:020000040800F2
:100000002859002029030008093D0008FB37000893
:10001000053D000859100008A96000080000000014
:10002000000000000000000000000000690200085D
:10003000B718000800000000C5020008E74C0008DF
:100040004303000843030008430300084303000878
:100050004303000843030008430300084303000868
:100060004303000843030008430300084303000858
:100070004303000843030008430300084303000848
:100080004303000843030008430300084303000838
:100090004303000843030008430300084303000828
:1000A0004303000843030008430300084303000818
:1000B000C94D000843030008430300084303000838
:1000C00043030008430300084303000843030008F8
:1000D00043030008430300084303000843030008E8
:1000E00043030008430300084303000843030008D8
:1000F00043030008D94D00084303000843030008E8
:1001000043030008430300084303000843030008B7
:1001100043030008430300084303000843030008A7
:100120008D1700089D1700084303000843030008CB
:100130004303000843030008430300084303000887
:100140004303000843030008430300084303000877
:100150004303000843030008430300084303000867
:100160004303000843030008430300084303000857
:100170004303000843030008430300080000000095
:10018000430300084303000800F002F800F05CF8A5
:100190000AA090E8000C82448344AAF10107DA45E2
:1001A00001D100F051F8AFF2090EBAE80F0013F0D8
:1001B000010F18BFFB1A43F00103184798E703002B
:1001C000B8E703000A444FF0000C10F8013B13F0AD
:1001D000070408BF10F8014B1D1108BF10F8015BA0
:1001E000641E05D010F8016B641E01F8016BF9D193
:1001F00013F0080F1EBF10F8014BAD1C0C1B09D1EA
:100200006D1E58BF01F801CBFAD505E014F8016B5B
:1002100001F8016B6D1EF9D59142D6D370470000ED
:100220000023002400250026103A28BF78C1FBD8FF
:10023000520728BF30C148BF0B6070471FB508F098
:1002400010F81FBD10B510BD00F0D0F91146FFF732
:10025000F5FF06F007F800F0EEF903B4FFF7F2FF40
:1002600003BC00F0F5F900002C4B19680868B0E8F1
:10027000F04F80F30988BFF36F8F4FF0000080F3D9
:10028000118870470000000008480068006880F38B
:1002900008884FF0000080F3148862B661B6BFF39F
:1002A0004F8FBFF36F8F00DF00BF00BF08ED00E08E
:1002B000DFF80C00016841F470010160704700BF75
:1002C00088ED00E0EFF30980BFF36F8F134B1A68DE
:1002D0001EF0100F08BF20ED108A20E9F04F1060CB
:1002E00009B44FF0500080F31188BFF34F8FBFF374
:1002F0006F8F06F0F5FE4FF0000080F3118809BC07
:1003000019680868B0E8F04F1EF0100F08BFB0EC95
:10031000108A80F30988BFF36F8F704700010020B7
:10032000EFF30580704700000948804709480047FF
:10033000FEE7FEE7FEE7FEE7FEE7FEE7FEE7FEE795
:10034000FEE7FEE704480549054A064B70470000F2
:10035000B54D0008890100082853002028590020C5
:10036000285500202855002053EA020C00F069802F
:100370002DE9F04B4FF00006002B1FBFB3FA83F5B9
:1003800003FA05F424FA05F65E4012BF1643B2FAEA
:1003900082F502FA05F4C5F120051EBF22FA05FC1C
:1003A00044EA0C04203556EA044C4FEA144418BFC2
:1003B000641C4FF000084FF00009904271EB030CF1
:1003C00039D3002919BFB1FA81F701FA07F6B0FA5B
:1003D00080F700FA07F6C7F120071EBF20FA07FCD6
:1003E00046EA0C062037B6FBF4FCA7EB0507103FE6
:1003F00007F01F0BCBF120060CFA0BFB2CFA06F6CC
:1004000044BFB3460026202FA4BF5E464FF0000B2A
:100410005BEA060C08BF4FF0010B19EB0B09ABFBB5
:10042000027C48EB0608C01B06FB02CC0BFB03CC8E
:1004300071EB0C01C1E70B46024641464846BDE858
:10044000F08B13B54FF000004FF00001AFF30080C8
:10045000BDE81C407047032A40F2308010F0030CC6
:1004600000F0158011F8013BBCF1020F624498BF07
:1004700011F801CB00F8013B38BF11F8013BA2F1A4
:10048000040298BF00F801CB38BF00F8013B11F01F
:10049000030300F07980083AC0F0088051F8043B6B
:1004A000083A51F804CBA0E80810F5E7121D5CBF2C
:1004B00051F8043B40F8043BAFF30080D20724BF5F
:1004C00011F8013B11F801CB48BF11F8012B24BFF3
:1004D00000F8013B00F801CB48BF00F8012B704742
:1004E00002F0FF0343EA032242EA024200F002B8AC
:1004F0004FF000020429C0F0128010F0030C00F04D
:100500001B80CCF1040CBCF1020F18BF00F8012BCA
:10051000A8BF20F8022BA1EB0C0100F00DB85FEA98
:10052000C17C24BF00F8012B00F8012B48BF00F864
:10053000012B70474FF0000200B5134694469646D3
:10054000203922BFA0E80C50A0E80C50B1F12001E6
:10055000BFF4F7AF090728BFA0E80C5048BF0CC094
:100560005DF804EB890028BF40F8042B08BF7047F2
:1005700048BF20F8022B11F0804F18BF00F8012B64
:10058000704770477047704710B5203AC0F00B8035
:10059000B1E81850203AA0E81850B1E81850A0E887
:1005A0001850BFF4F5AF5FEA027C24BFB1E81850E1
:1005B000A0E8185044BF18C918C0BDE810405FEA51
:1005C000827C24BF51F8043B40F8043B08BF7047CD
:1005D000D20728BF31F8023B48BF11F8012B28BFD2
:1005E00020F8023B48BF00F8012B7047754600F029
:1005F0002BF8AE4605006946534620F007008546B5
:1006000018B020B5FFF79EFEBDE820404FF0000671
:100610004FF000074FF000084FF0000B21F00701EA
:10062000AC46ACE8C009ACE8C009ACE8C009ACE82D
:10063000C0098D46704710B50446AFF300802046D0
:10064000BDE81040FFF709BE00487047C8520020BF
:1006500001491820ABBEFEE726000200704710B526
:1006600000F006F800F030F800F05AF810BD000075
:1006700010B52DED048B1048008800EE100AB8EE7E
:10068000400A0E4880ED000A90ED000A10EE101AA4
:10069000084607F075FD41EC190B9FED090B53EC73
:1006A000102B07F085FB41EC180B07F093FA034978
:1006B0000860BDEC048B10BD80010020B851002003
:1006C000011D41857E01483F10B52DED048B10487A
:1006D000008800EE100AB8EE400A0E4880ED000ACD
:1006E00090ED000A10EE101A084607F049FD41ECA3
:1006F000190B9FED090B53EC102B07F059FB41EC44
:10070000180B07F067FA03490860BDEC048B10BDB5
:1007100088010020C85100201B47ACC5A700683FD6
:1007200010B52DED048B1048808800EE100AB8EE4D
:10073000400A0E4880ED020A90ED020A10EE101AEF
:10074000084607F01DFD41EC190B9FED090B53EC1A
:10075000102B07F02DFB41EC180B07F03BFA034977
:100760008860BDEC048B10BD88010020C8510020BA
:10077000011D41857E01483F70B50546AC6B206C7C
:1007800000F0500050BB206C40F4007020642068E2
:10079000806800F04050E8B9207ED8B92068C06A6F
:1007A00000F4700020B12068806800F4806088B98F
:1007B0002068406820F0200021684860206C20F408
:1007C00080702064206C00F4805018B9206C40F0D8
:1007D00001002064204601F039F90BE0206C00F0A4
:1007E000100018B1204601F04EF903E0A06BC16C77
:1007F0002846884770BD70B50546AC6B4020206424
:10080000606C40F004006064204601F03CF970BD6B
:1008100070B50446A56B284601F034F970BD0000A0
:1008200055494A6822F440324A604A6843681A438C
:100830004A600268526822F4807203685A60026853
:100840005368026943EA022203685A6002685268E8
:1008500022F0407203685A600268526883681A4343
:1008600003685A600268926822F4006203689A6022
:1008700002689268C3681A4303689A603F4B826AB1
:100880009A4218D00268926822F0706203689A60F7
:1008900002689268836A1A4303689A6002689268E1
:1008A00022F0405203689A6002689268C36A1A4351
:1008B00003689A600BE00268926822F07062036835
:1008C0009A600268926822F0405203689A60026857
:1008D000926822F0020203689A6002689368027EBE
:1008E00043EA420203689A602022125CA2B10268C5
:1008F000526842F4006203685A600268526822F447
:10090000604203685A6002685368426A521E43EAB2
:10091000423203685A6005E00268526822F40062BD
:1009200003685A600268D26A22F470020368DA62CD
:100930000268D36A828B521E43EA02520368DA626B
:100940000268926822F4007203689A6002689368F1
:1009500090F8302043EA422203689A600268926865
:1009600022F4806203689A6002689368426943EAED
:10097000822203689A607047002301400100000F43
:10098000074808490968405C40B1054805490968BD
:10099000405C401E0249034A1268885470470000B8
:1009A00098000020A0000020074808490968405C22
:1009B000042808D0044805490968405C401C0249E5
:1009C000024A1268885470479C000020A000002052
:1009D0006748006830B1012835D0022864D0032868
:1009E00030D192E0634862490968405C00EB8000C6
:1009F000614901EB800061495D4A1268895C50F8E9
:100A0000210009281ED05B4859490968405C00EB69
:100A10008000594901EB80015848554A1268805CB2
:100A200051F82000401C5349514A1268895C01EB7F
:100A30008101514A02EB8101504A4D4B1B68D25C47
:100A400041F8220092E04B4849490968405C00EBBC
:100A500080004B4901EB80004849454A1268895C97
:100A600050F8210009281ED0424841490968405CDD
:100A700000EB8000424901EB800140483C4A12688B
:100A8000805C51F82000401C3A49394A1268895C60
:100A900001EB81013A4A02EB81023849344B1B6871
:100AA000C95C42F8210061E0324831490968405C84
:100AB00000EB8000334901EB800030492C4A12687A
:100AC000895C50F8210009281ED02A482849096865
:100AD000405C00EB80002B4901EB80012748244A51
:100AE0001268805C51F82000401C2249204A12689C
:100AF000895C01EB8101234A02EB81021F491C4BF7
:100B00001B68C95C42F8210030E01A48184909689E
:100B1000405C00EB80001C4901EB80011748144A3F
:100B20001268805C51F8200009281ED01148104935
:100B30000968405C00EB8000134901EB80000F491D
:100B40000B4A1268895C50F82100401C0949084A88
:100B50001268895C01EB81010B4A02EB8101074AB3
:100B6000034B1B68D25C41F8220000BF00BF7047F6
:100B7000A000002098000020F40300209C0000202A
:100B8000300400206C040020A80400200448006801
:100B9000032804D002480068401C014908607047DF
:100BA000A0000020074808490968405C022808D0D6
:100BB000044805490968405C401C0249024A126821
:100BC0008854704798000020A0000020074808497A
:100BD0000968405C40B1054805490968405C401E11
:100BE0000249034A12688854704700009C000020A4
:100BF000A00000206548006830B1012834D00228E8
:100C000062D003282FD18FE0614860490968405CB9
:100C100000EB80005F4901EB80005F495B4A12688E
:100C2000895C50F82100F0B1594858490968405C86
:100C300000EB8000574901EB80015748534A126886
:100C4000805C51F82000401E5149504A1268895C6E
:100C500001EB81014F4A02EB81014F4A4B4B1B686C
:100C6000D25C41F822008FE0494848490968405C5D
:100C700000EB8000494901EB80004749434A126874
:100C8000895C50F82100F0B1414840490968405C56
:100C900000EB8000414901EB80013F483B4A12686C
:100CA000805C51F82000401E3949384A1268895C3E
:100CB00001EB8101394A02EB81023749334B1B6852
:100CC000C95C42F821005FE0314830490968405C66
:100CD00000EB8000324901EB80002F492B4A12685B
:100CE000895C50F82100F0B1294828490968405C26
:100CF00000EB80002A4901EB80012748234A126853
:100D0000805C51F82000401E2149204A1268895C0D
:100D100001EB8101224A02EB81021F491B4B1B6838
:100D2000C95C42F821002FE0194818490968405C65
:100D300000EB80001B4901EB80011748134A126841
:100D4000805C51F82000F0B1114810490968405CFE
:100D500000EB8000134901EB80000F490B4A126839
:100D6000895C50F82100401E0949084A1268895CD4
:100D700001EB81010B4A02EB8101074A034B1B681F
:100D8000D25C41F8220000BF00BF7047A0000020E5
:100D900098000020F40300209C0000203004002074
:100DA0006C040020A80400200448006820B1034817
:100DB0000068401E0149086070470000A000002044
:100DC0000448006820B903480068401C01490860D5
:100DD00070470000A400002004480068042804D0E4
:100DE00002480068401C014908607047A8000020C4
:100DF00009480A49096850F8210009280AD006481C
:100E00000649096850F82100401C0349034A12684A
:100E100041F8220070470000AC000020A80000202C
:100E200004480068022804D002480068401C0149B8
:100E300008607047C000002004480068012804D101
:100E400002480068401E014908607047A400002065
:100E50000448006820B103480068401E014908604A
:100E600070470000A800002008480949096850F8A8
:100E7000210050B105480649096850F82100401E7C
:100E80000249034A126841F822007047AC00002072
:100E9000A800002004480068022804D00248006826
:100EA000401E014908607047C000002009480A49F7
:100EB000096850F8210009280AD00648064909683F
:100EC00050F82100401C0349034A126841F82200EF
:100ED00070470000C4000020C000002010B510239F
:100EE00002A20021084603F0DBF810BD4252315F38
:100EF0004243320010B5102302A20021084603F03D
:100F0000CFF810BD4252315F4243330010B5102379
:100F100002A20021084603F0C3F810BD4252315F1F
:100F20004243340008480949096850F8210050B18B
:100F300005480649096850F82100401E0249034A45
:100F4000126841F822007047C4000020C000002051
:100F500010B5102302A20021084603F0A1F810BD2D
:100F60004252325F4243320010B5102302A20021E8
:100F7000084603F095F810BD4252325F42433300F9
:100F800010B5102302A20021084603F089F810BD15
:100F90004252325F4243340010B5102302A20021B6
:100FA000084603F07DF810BD4252335F42433100E2
:100FB00010B5102302A20021084603F071F810BDFD
:100FC0004252335F4243320010B5102302A2002187
:100FD000084603F065F810BD4252335F42433300C8
:100FE00010B5102302A20021084603F059F810BDE5
:100FF0004252335F4243340010B5102302A2002155
:10100000084603F04DF810BD4252345F42433100B0
:1010100010B5102302A20021084603F041F810BDCC
:101020004252345F4243320010B5102302A2002125
:10103000084603F035F810BD4252345F4243330096
:1010400010B5102302A20021084603F029F810BDB4
:101050004252345F4243340000BFFEE710B52DED2D
:10106000048B5648D0ED020AB0EE600A544803F0F3
:101070005DFD544890ED000AB8EEC00A524880ED7C
:10108000000A006807F07CF841EC190B9FED4F0B4C
:1010900053EC102B06F08CFE41EC180B06F09AFD79
:1010A00049490860464890ED110A0846D0ED000A0B
:1010B00030EE200A80ED000A464890ED000A4648CE
:1010C000D0ED000A20EE200A444880ED000A0846D0
:1010D00090ED000A05F06EF8414880ED000A90EDB1
:1010E000000A3E48D0ED000A20EE200A10EE101A49
:1010F000084607F045F841EC190B9FED3A0B53EC0D
:10110000102B06F055FE41EC180B06F063FD344938
:101110000860084690ED000A344880ED000A274830
:1011200090ED000A3148D0ED000A30EEC00A80EDA3
:10113000000A2F482D4991ED000A90ED011AD0EDDB
:10114000031A21EE211AD0ED001A01EE801AD0ED1B
:10115000021A90ED042A01EE821AD0ED051A31EE42
:10116000211AF0EE410A90ED031A80ED041A80ED89
:10117000030AC0ED050A00BF1E48C0ED000A90ED4D
:10118000000AF2EE040A20EE200ABCEEC00A10EEBD
:10119000100A194948630B48006840F28F118842D1
:1011A00003D100200749086004E006480068401C9D
:1011B00004490860BDEC048B10BD0000C85100203C
:1011C00044520020AC010020B0010020981826AE47
:1011D000BE15903FB8010020B4010020BC010020E2
:1011E000C001002039B4C876BE9FF63FC40100207C
:1011F00020520020C80100200000014010B52DED54
:10120000048B5D4890ED000AB8EEC00A5B4880EDA3
:10121000000A006806F0B4FF41EC190B9FED580B73
:1012200053EC102B06F0C4FD41EC180B06F0D2FC79
:1012300052490860084690ED000A04F0BBFF52488E
:1012400080ED000A90ED000AF3EE080A20EE200A75
:1012500010EE101A084606F093FF41EC190B9FEDB3
:101260004B0B53EC102B06F0A3FD41EC180B06F0D2
:10127000B1FC45490860474890ED000A0846D0EDAA
:10128000000A30EEC00A444880ED000A4348424953
:1012900091ED000A90ED011AD0ED031A21EE211A0A
:1012A000D0ED001A01EE801AD0ED021A90ED042A5A
:1012B00001EE821AD0ED051A31EE211AF0EE410A44
:1012C00090ED031A80ED041A80ED030AC0ED050AC3
:1012D00000BF3348C0ED000A324890ED000A3048A4
:1012E000D0ED000A30EEC00A2F4880ED000A2F48EA
:1012F0002D4991ED000A90ED011AD0ED031A21EE6F
:10130000211AD0ED001A01EE801AD0ED021A90EDEC
:10131000042A01EE821AD0ED051A31EE211AF0EE00
:10132000410A90ED031A80ED041A80ED030AC0ED26
:10133000050A00BF1E48C0ED000A90ED000AF2EE5B
:10134000040A20EE200ABCEEC00A10EE100A194969
:1013500048630948006840F28F11884203D1002099
:101360000549086004E004480068401C0249086020
:10137000BDEC048B10BD00009001002098010020FE
:10138000981826AEBE15903F9401002039B4C87657
:10139000BE9FF63FB85100209C010020D85100208C
:1013A000A0010020C8510020A4010020FC51002011
:1013B000A80100200000014010B5B7EE000A134854
:1013C00080ED060A9FED120A80ED070A9FED100AD4
:1013D00080ED080A012104F0CDFE0E4803F056FB13
:1013E000FBEE041AB3EE041ADFED0B0A9FED0B0AB5
:1013F000084803F02DFBB1EE000A094880ED000A11
:10140000B7EE000A074880ED000A10BD2052002008
:10141000000000004452002000409C46000048426A
:10142000B4010020B801002038B504461020009017
:10143000012311214A20226802F0E8FD0120102337
:101440002E2211210090512002F05AFD1020009010
:10145000012311215820626802F0D8FD102000906D
:10146000012311215F20A26802F0D0FD102000901E
:10147000012311216620E26802F0C8FD10200090CF
:10148000012311216D20226902F0C0FD38BD00004A
:1014900010B59FED100A104880ED060A9FED0F0A67
:1014A00080ED070A9FED0D0A80ED080A012104F086
:1014B00061FEB7EE000A0A4880ED060A9FED070AB2
:1014C00080ED070A9FED050A80ED080A012104F06E
:1014D00051FE10BD85EB913FD85100200000000067
:1014E000FC51002008B55348006880BB0120102340
:1014F000532200210090462002F002FD012010231B
:101500006922002100904D2002F0FAFC01201023F6
:101510006E2200210090542002F0F2FC01201023E2
:101520006722002100905B2002F0EAFC01201023DA
:101530006C2200210090612002F0E2FC01201023C7
:10154000652200210090682002F0DAFC30E0FFE71D
:1015500001201023442200210090462002F0D0FCFC
:10156000012010236F22002100904D2002F0C8FCC2
:1015700001201023752200210090542002F0C0FCAD
:10158000012010236222002100905B2002F0B8FCB1
:10159000012010236C2200210090652002F0B0FC95
:1015A000012010236522002100906B2002F0A8FC8E
:1015B0002148006830B1012810D002281AD0032831
:1015C00030D123E001201023312200210090192086
:1015D00002F096FC194802F0C5FD23E0012010231B
:1015E000322200210090192002F08AFC144802F0F7
:1015F000B9FD17E0012010233322002100901920AB
:1016000002F07EFC0F4802F0ADFD0BE0012010233C
:10161000342200210090192002F072FC0A4802F0E6
:10162000A1FD00BF00BF0948FFF7FEFE084802F019
:1016300041FE08BDA4000020A0000020F40300200B
:10164000300400206C040020A8040020AC0000201E
:10165000C400002008B50120102350220021009072
:10166000084602F04DFC0120102349220021009081
:10167000072002F045FC01201023442200210090A5
:101680000E2002F03DFC012010234D22002100908D
:10169000282002F035FC012010234F220021009069
:1016A0002F2002F02DFC0120102344220021009065
:1016B000362002F025FC0120102345220021009055
:1016C0003D2002F01DFC012010234B22112100902F
:1016D000002002F015FC012010237022112100903F
:1016E000082002F00DFC012010234B222021009045
:1016F000002002F005FC0120102369222021009027
:10170000082002F0FDFB012010234B222F21009026
:10171000002002F0F5FB0120102364222F2100900D
:10172000082002F0EDFB02F0C5FB01201023492246
:10173000112100903C2002F0E3FB012010237222D3
:1017400011210090432002F0DBFB012010235222E4
:10175000202100903C2002F0D3FB012010236122C5
:1017600020210090432002F0CBFB012010237422A3
:10177000202100904A2002F0C3FB012010236F2299
:1017800020210090512002F0BBFB08BD10B502489B
:1017900000F074FB10BD00005C02002010B5024890
:1017A00000F06CFB10BD0000BC0200200146087870
:1017B00010381823B0FBF3F20848805CC865032A90
:1017C00005D908686FF30900001D886503E0086803
:1017D0006FF309008865886D704700009C820008DF
:1017E000014600208A6A8B69CBB932B1012A0DD03B
:1017F000022A03D0032A10D10EE000BFCB6A03F007
:101800008073B3F1807F00D1012007E0CB6AB3F190
:10181000C07F00D1012001E000E000BF34E08B690F
:10182000B3F5005F1AD132B1012A07D0022A03D0E2
:10183000032A11D10AE000BF01200EE0CB6A03F0B9
:101840008073B3F1807F00D1012006E0CB6AB3F151
:10185000C07F00D1012000E000BF15E032B1012AB5
:1018600005D0022A04D0032A0CD103E000BF00BF38
:10187000012008E0CB6A03F08073B3F1807F00D1D0
:10188000012000E000BF00BF704730B50468246845
:1018900024F4802405682C60046863608468402C0C
:1018A00004D10468A2600468E16003E00468A160F8
:1018B0000468E26030BD704772B600BFFEE700000A
:1018C00038B502460020009000BF92F83C00012885
:1018D00001D1022038BD012082F83C0000BF086819
:1018E000092816D91068C0680C780A3C04EB440536
:1018F0000724AC40A0431468E0600C780A3C04EB79
:1019000044048868A0401468E46820431468E060D8
:1019100013E0106800690C7804EB44050724AC4020
:10192000A043146820610C7804EB44048868A0404C
:10193000146824692043146820614868072817D276
:101940001068406B0C79641E04EB84051F24AC40C6
:10195000A04314686063088880B20C79641E04EBAD
:101960008404A0401468646B20431468606331E011
:1019700048680D2817D21068006B0C79E41F04EB3F
:1019800084051F24AC40A04314682063088880B2FB
:101990000C79E41F04EB8404A0401468246B2043FA
:1019A0001468206316E01068C06A0C790D3C04EBE3
:1019B00084051F24AC40A0431468E062088880B20C
:1019C0000C790D3C04EB8404A0401468E46A2043C5
:1019D0001468E062194B1A4C1068A04206D10868DE
:1019E000122803D1586840F480005860144C1068E5
:1019F000A0421CD10868102802D00868112816D10E
:101A0000586840F400005860086810280FD10D484D
:101A100000680D4CB0FBF4F000EB8000400000903B
:101A200002E00098401E009000980028F9D100BF05
:101A3000002082F83C0000BF00BF4BE700230140BC
:101A4000002001401000002040420F0010B5044665
:101A50000A492068884210D1FEF701FE02F00EFC10
:101A60000748006810B1012806D102E0FFF7C6FB65
:101A700002E0FFF7F3FA00BF00BF10BD00220140F3
:101A8000A40000207047704770B5044600250CB9CB
:101A9000012070BD1549A06A884200D000BF206CAB
:101AA00030B9204600F024F80020606484F83C003F
:101AB000206C00F0100088B9206C20F4885040F0B1
:101AC000020020642046FEF7ABFE00206064206C1C
:101AD00020F0020040F00100206400E0012500BF7A
:101AE000002084F83C0000BF2846D2E70100000F28
:101AF00010B586B00446142101A8FEF71BFD6A4903
:101B00002068884263D100BF0020009067480068C9
:101B100040F48070654908600846006800F48070F1
:101B2000009000BF00BF00BF002000905F48143845
:101B3000006840F004005D491439086008460068F8
:101B400000F00400009000BF00BF00BF0020009024
:101B50000846006840F0010008600846006800F090
:101B60000100009000BF00BF0620019003200290FA
:101B70000020039001A94E4800F074FB482001901A
:101B8000032002900020039001A94A4800F06AFB5C
:101B900049484A4908600020486000214748816060
:101BA000C1604FF480610161490041618900816138
:101BB0004911C16100210162416200F07FFA08B160
:101BC000FFF77AFE00BF3D48A063846369E03C49AB
:101BD0002068884265D100BF00200090334800682B
:101BE00040F48060314908600846006800F4806075
:101BF000009000BF00BF00BF002000902B481438A9
:101C0000006840F00400294914390860084600685B
:101C100000F00400009000BF00BF00BF0020009053
:101C20000846006840F0010008600846006800F0BF
:101C30000100009000BF00BF092001900320029026
:101C40000020039001A91A4800F00CFB0620019027
:101C5000032002900020039001A9164800F002FB27
:101C600015481830174908604FF08060486000211F
:101C700014488160C1604FF4806101614900416195
:101C8000890081614911C16100210162416200F056
:101C900015FA08B1FFF710FE00BF0A48A06384637D
:101CA00000BF06B010BD00000020014044380240D3
:101CB0000008024000000240106402405C02002064
:101CC00000220140BC020020F8B504460D4616462D
:101CD0000020009000BF94F83C00012801D10220B0
:101CE000F8BD012084F83C0000BF2068806800F047
:101CF0000100A0B92068806840F001002168886078
:101D0000554800685549B0FBF1F000EB40000090E9
:101D100002E00098401E009000980028F9D1206849
:101D2000806800F48070B0F5807F05D120688068FD
:101D300020F48070216888602068806800F00100CD
:101D400000287ED0206C40F20161884340F480700E
:101D500020642068406800F4806028B1206C20F482
:101D6000005040F480502064206C00F48050B0F5A6
:101D7000805F04D1606C20F00600606401E0002008
:101D8000606400BF002084F83C0000BF344F354839
:101D9000A16BC8633448A16B08643448A16BC86464
:101DA0006FF02200216808602068406840F0806081
:101DB000216848602068806840F4807021688860ED
:101DC000226802F14C0133462A46A06B00F0ECF980
:101DD000786800F01F0018BB25492068884213D09E
:101DE00024492068884204D1381D006800F01F0093
:101DF00050B12149206888422BD11948001D006844
:101E000000F01F00102824D22068806800F04050A5
:101E1000F8B92068806840F080402168886018E048
:101E200013492068884214D12068806800F040502F
:101E300078B92068806840F080402168886008E0B8
:101E4000FFE7206C40F010002064606C40F001005F
:101E50006064002044E700001000002040420F00B2
:101E6000002301407907000811080008F70700085F
:101E7000002001400021014000220140F8B5044645
:101E8000002000908C4800684FF41651B0FBF1F729
:101E9000A56D2E6894F85C1008208840304098B1F9
:101EA0002068006800F0040070B12068006820F02D
:101EB00004002168086094F85C1008208840A8603D
:101EC000606D40F00100606594F85C10012088406E
:101ED000304068B12068406900F0800040B194F85B
:101EE0005C1001208840A860606D40F002006065D1
:101EF00094F85C1004208840304068B12068006885
:101F000000F0020040B194F85C1004208840A86002
:101F1000606D40F00400606594F85C10102088400B
:101F2000304078B32068006800F0080050B394F89F
:101F30005C1010208840A8602068006800F48020B1
:101F400080B12068006800F4002028B9206CC8B176
:101F50002046216C884715E0A06C98B12046A16C02
:101F600088470FE02068006800F4807028B9206876
:101F7000006820F0080021680860206C10B120463D
:101F8000216C884794F85C1020208840304000285D
:101F900065D02068006800F0100000285FD094F839
:101FA0005C1020208840A86094F83500052828D1CE
:101FB0002068006820F016002168086020684069E9
:101FC00020F0800021684861206C08B9A06C28B11D
:101FD0002068006820F008002168086094F85C1010
:101FE0003F208840A860012084F8350000BF002011
:101FF00084F8340000BF206D10B12046216D884761
:10200000F8BD2068006800F4802080B12068006876
:1020100000F4002028B9606C10B12046616C88473C
:102020001DE0E06BD8B12046E16B884717E02068DF
:10203000006800F4807068B92068006820F0100023
:1020400021680860012084F8350000BF002084F872
:10205000340000BFE06B10B12046E16B8847606D33
:1020600038B3606D00F00100F0B1052084F8350050
:102070002068006820F001002168086000BF009817
:10208000401C0090B84200D905E02068006800F0CC
:1020900001000028F3D100BF012084F8350000BF03
:1020A000002084F8340000BFE06C10B12046E16CE1
:1020B000884700BFA4E70000100000202DE9F04190
:1020C0000446002500F0D6F9074614B90120BDE802
:1020D000F081606A00B100BF022084F8350000BFC3
:1020E000002084F8340000BF2068006820F0010060
:1020F000216808600AE000F0BDF9C01B052805D979
:1021000020206065032084F83500E0E7206800683F
:1021100000F001000028EED1206805682148054044
:10212000D4E901010843E168084321690843616972
:102130000843A1690843E1690843216A084305434C
:10214000606A042803D1D4E90B01084305432068E1
:1021500005602068456925F00705606A0543606AE7
:1021600004280DD1A06A0543E06A48B12046FFF774
:1021700037FB28B140206065012084F83500A6E7D0
:10218000206845612046FFF711FB064694F85C1075
:102190003F208840B06000206065012084F8350051
:1021A000002094E73F8010F02DE9F04704460D46EB
:1021B00016461F464FF00008D4F8589000BF94F818
:1021C0003400012802D10220BDE8F087012084F804
:1021D000340000BF94F83500012825D1022084F88E
:1021E0003500002060653B46324629462046FFF711
:1021F0004CFB94F85C103F208840C9F80800206828
:10220000006840F0160021680860206C28B1206842
:10221000006840F00800216808602068006840F00D
:1022200001002168086006E000BF002084F8340047
:1022300000BF4FF002084046C6E7000070B50446F4
:1022400000F018F906462546681C10B104480078CD
:10225000054400BF00F00EF9801BA842FAD370BD00
:102260000C000020F8B502460B4600250024002093
:102270000021D6E0012606FA01F51E6806EA0504EB
:10228000AC4274D11E7906F00306012E04D01E79EB
:1022900006F00306022E13D190684F000326BE40BD
:1022A000B0434F00DE68BE40304390605068012666
:1022B0008E40B0431E79C6F300168E403043506006
:1022C0001E7906F00306032E09D0D0684F000326BE
:1022D000BE40B0434F009E68BE403043D0601E7980
:1022E00006F00306022E13D1CF0802F1200656F89D
:1022F00027004E07F70E0F26BE40B0434F07FF0ED4
:102300001E69BE403043CF0802F1200646F8270080
:1023100010684F000326BE40B0431E7906F0030646
:102320004F00BE40304310605E6806F44036002E19
:1023300076D000BF002600963C4E366846F48046B4
:102340003A4F3E603E46366806F48046009600BF2F
:1023500000BF374E8F0856F827008E07370F0F261D
:10236000BE40B043334EB24202D1002624E057E0D3
:10237000314EB24201D101261EE0304EB24201D1AF
:10238000022619E02E4EB24201D1032614E02D4E52
:10239000B24201D104260FE02B4EB24201D10526F4
:1023A0000AE02A4EB24201D1062605E0284EB2428A
:1023B00001D1072600E008268F073F0FBE403043BB
:1023C0001B4E8F0846F82700224E3068A0435E68F7
:1023D00006F4801606B120431E4E3060361D30686C
:1023E000A0435E6806F4001606B12043194E361D60
:1023F0003060184E361F3068A0435E6806F4003621
:1024000006B12043134E361F3060361F3068A0439C
:102410005E6806F4803606B120430E4E083E3060FA
:10242000491C1029FFF426AFF8BD000044380240D3
:102430000838014000000240000402400008024049
:10244000000C02400010024000140240001802403C
:10245000001C0240083C0140024613690B400BB1CE
:10246000012000E0002070470AB1816101E00B0407
:102470008361704701480068704700000400002035
:102480000348006803490978084401490860704717
:10249000040000200C00002010B50D48006840F436
:1024A00000700B4908600846006840F480600860CE
:1024B0000846006840F480700860032000F0DCF8F3
:1024C0000F2000F007F800F05FF8002010BD0000BA
:1024D000003C02402DE9F04188B004460027B84690
:1024E00000BF002001902348006840F4807021491B
:1024F00008600846006800F48070019000BF00BFCB
:1025000002A903A800F08EF9069F1FB900F0B2F9E6
:10251000054602E000F0AEF945001748B5FBF0F0C3
:10252000A0F1010815481649086040F2E731144847
:10253000C160C0F80480002101618160816100F008
:102540005FFD064696B90E4800F016FE06466EB9C7
:102550002D2000F043F8102C07D2002221462D2018
:1025600000F04CF80748046000E00126304608B04F
:10257000BDE8F0814038024040420F00002000409A
:10258000AC0300200800002008B500BF0020009028
:102590001148006840F480400F4908600846006810
:1025A00000F48040009000BF00BF00BF00200090FA
:1025B000081F006840F08050091F08600846006846
:1025C00000F08050009000BF00BF00220F21901E3D
:1025D00000F014F808BD00004438024001460846E7
:1025E000002809DB00F01F0301229A4043099B00E9
:1025F00003F1E023C3F8002100BF70472DE9F05F2D
:1026000080460D461646002703F050FD0746394622
:102610002A46334601F00700C0F1070ABAF1040F59
:1026200002D94FF0040A01E0C0F1070AD14600F1D7
:10263000040ABAF1070F02D24FF0000A01E0A0F13C
:10264000030AD4464FF0010A0AFA09FAAAF1010A6C
:102650000AEA020A0AFA0CFA4FF0010B0BFA0CFB19
:10266000ABF1010B0BEA030B4AEA0B04214640468F
:1026700003F024FDBDE8F09F00BF00F00702064B09
:1026800019684FF6FF031940044B0B4343EA02213C
:10269000014B196000BF70470CED00E00000FA0527
:1026A00070B504460D460CB9012070BD584800684D
:1026B00000F00700A84209D255490D70084600688D
:1026C00000F00700A84201D00120EEE7207800F0DA
:1026D000020002281DD1207800F00400042805D152
:1026E0004C48006840F4E0504A490860207800F007
:1026F0000800082805D14748006840F46040454973
:1027000008604448006820F0F000A168084341498F
:102710000860207800F00100A8B36068012807D1A4
:102720003C4808380068C0F34040B8B90120BCE715
:102730006068022802D06068032807D1354808384D
:102740000068C0F3406048B90120AEE7314808385E
:102750000068C0F3400008B90120A6E72D480068D2
:1027600020F00300616808432A490860FFF782FEF1
:10277000064609E0FFF77EFE801B41F28831884261
:1027800002D9032091E707E02248006800F00C001E
:102790006168B0EB810FEDD11D48006800F00700C3
:1027A000A84209D91A490D700846006800F00700D0
:1027B000A84201D0012078E7207800F00400042826
:1027C00007D11448006820F4E050E168084311493B
:1027D0000860207800F00800082808D10D4800683B
:1027E00020F46040216940EAC1000A49086000F015
:1027F00051F808490968C1F30311074A515CC84000
:102800000649086006480068FFF764FE00204CE7B0
:10281000003C024008380240A4820008100000205A
:10282000080000200F2202600D4A126802F0030225
:1028300042600B4A126802F0F0028260084A126895
:1028400002F4E052C260064A126802F46042D20802
:102850000261044A126802F007020A607047000031
:1028600008380240003C0240014800687047000000
:102870001000002000B5FFF7F7FF04490968C1F315
:102880008221034A515CC84000BD00000838024064
:10289000B48200082DE9F047002400250026A14657
:1028A0002548006800F00C0020B1042805D0082855
:1028B0003AD105E0DFF8849039E0DFF8849036E023
:1028C0001D48001F006800F03F041B48001F0068FF
:1028D00000F4800078B11A481749091F0968C1F34C
:1028E0008811A0FB01700146224600233846FDF7FF
:1028F0003BFD05460EE011480F49091F0968C1F369
:102900008811A0FB01700146224600233846FDF7DE
:102910002BFD05460848001F0068C0F30140401C1D
:102920004600B5FBF6F902E0DFF8109000BF00BFEB
:102930004846BDE8F0870000083802400024F40053
:1029400040787D01F8B504460CB90120F8BD207827
:1029500000F00100002874D0F948006800F00C0075
:1029600004280DD0F648006800F00C00082813D1A8
:10297000F348001F006800F48000B0F5800F0BD111
:10298000EF4808380068C0F34040002859D060681C
:10299000002856D10120D9E700BF6068B0F5803F1C
:1029A00008D1E7480838006840F48030E449083925
:1029B00008601EE06068B0F5A02F0DD1E04808382F
:1029C000006840F48020DE49083908600846006845
:1029D00040F4803008600CE0D9480838006820F4E2
:1029E0008030D749083908600846006820F4802004
:1029F000086000BF606890B1FFF73CFD054606E047
:102A0000FFF738FD401B642801D903209EE7CC481E
:102A100008380068C0F340400028F1D011E0FFF70B
:102A200029FD054606E0FFF725FD401B642801D976
:102A300003208BE7C24808380068C0F340400028F4
:102A4000F1D1207800F0020002285FD1BC48006874
:102A500000F00C0058B1BA48006800F00C000828DB
:102A60001CD1B748001F006800F48000B0B9B4481A
:102A700008380068C0F3400020B1E068012801D0A8
:102A8000012063E7AE480838006820F0F8002169AB
:102A900040EAC100AA490839086037E0E06800B39D
:102AA0000120A8490860FFF7E5FC054606E0FFF7AE
:102AB000E1FC401B022801D9032047E7A048083861
:102AC0000068C0F340000028F1D09D480838006835
:102AD00020F0F800216940EAC100994908390860EE
:102AE00014E0002097490860FFF7C4FC054606E0A3
:102AF000FFF7C0FC401B022801D9032026E79048BD
:102B000008380068C0F340000028F1D1207800F0B8
:102B1000080008282CD16069A8B101208A49086002
:102B2000FFF7A8FC054606E0FFF7A4FC401B0228BF
:102B300001D903200AE782486C300068C0F34000E6
:102B40000028F1D014E000207F490860FFF792FCD4
:102B5000054606E0FFF78EFC401B022801D9032042
:102B6000F4E677486C300068C0F340000028F1D1EB
:102B7000207800F00400042870D100277048383015
:102B8000006800F0805090B900BF002000906C48B1
:102B90003830006840F08050694938310860084694
:102BA000006800F08050009000BF00BF0127674818
:102BB000006800F48070B0B96448006840F4807028
:102BC00062490860FFF756FC054606E0FFF752FC35
:102BD000401B022801D90320B8E65C48006800F4D5
:102BE00080700028F2D000BFA068012808D15448A6
:102BF0006830006840F001005149683108601DE00C
:102C0000A06805280DD14E486830006840F00400E7
:102C10004B49683108600846006840F001000860D0
:102C20000CE047486830006820F0010044496831F2
:102C300008600846006820F00400086000BFA06833
:102C4000A8B1FFF717FC054609E0FFF713FC401B8E
:102C500041F28831884202D9032077E626E03848DD
:102C600068300068C0F340000028EED013E0FFF7A2
:102C700001FC054608E0FFF7FDFB401B41F28831EF
:102C8000884201D9032061E62D4868300068C0F30E
:102C900040000028EFD1012F07D1294838300068C3
:102CA00020F0805026493831086000BFA069002814
:102CB00045D02348006800F00C0008285DD0A069CA
:102CC000022845D100201F490866FFF7D3FB0546BF
:102CD00006E0FFF7CFFB401B022801D9032035E6B1
:102CE000174808380068C0F340600028F1D1D4E9E3
:102CF00007010843616A40EA81110122A06AC2EB20
:102D0000500041EA00412C20005D41EA00600C497E
:102D1000091F086001200B490866FFF7ABFB054659
:102D200006E0FFF7A7FB401B022801D903200DE6B0
:102D3000034808380068C0F340600028F1D049E03B
:102D40000838024000004742800E474200700040B1
:102D5000002021490866FFF78DFB054606E0FFF7D6
:102D600089FB401B022801D90320EFE51B480068BE
:102D7000C0F340600028F2D12CE0A069012800D106
:102D8000E4E51648001D0668A069012820D006F475
:102D90008001E06981421BD106F03F01206A814237
:102DA00016D147F6C0703040616AB0EB811F0FD179
:102DB00006F440310122A06AC2EB5000B1EB004F93
:102DC00006D106F070612C20005DB1EB006F01D0E0
:102DD0000120BBE50020B9E5000047420038024071
:102DE0007047704710B50346002200BF93F83C00BF
:102DF000012801D1022010BD012083F83C0000BF52
:102E000022F0FF00CC6840EA040222F440708C6893
:102E100040EA040222F480604C6840EA040222F492
:102E200000600C6840EA040222F480500C6940EA19
:102E3000040222F400504C6940EA040222F480406B
:102E4000CC6940EA04021868426400BF002083F89D
:102E50003C0000BF00BFCEE730B502460B4600BFC6
:102E600092F83C00012801D1022030BD012082F8F7
:102E70003C0000BF022082F83D00106844681068E2
:102E8000816824F070041868044310684460184D89
:102E90001068A8421BD01068B0F1804F17D0154DB4
:102EA0001068A84213D0144D1068A8420FD0134DDB
:102EB0001068A8420BD0124D1068A84207D0114DDF
:102EC0001068A84203D0104D1068A84205D121F027
:102ED00080015868014310688160012082F83D003C
:102EE00000BF002082F83C0000BF00BFBDE700002B
:102EF000000001400004004000080040000C0040B9
:102F000000040140004001400018004070B5044634
:102F10000D4615B994F842000BE0042D02D1432070
:102F2000005D06E0082D02D14420005D01E045204F
:102F3000005D012801D0012070BD1DB9022084F878
:102F400042000EE0042D03D102214320015508E088
:102F5000082D03D102214420015502E00221452021
:102F6000015504222946206801F0BBFF2068406C0F
:102F700040F40040216848641A49206888421BD008
:102F80002068B0F1804F17D017492068884213D0CD
:102F90001649206888420FD01549206888420BD016
:102FA00014492068884207D013492068884203D01A
:102FB0001249206888420CD12068806800F007061A
:102FC000062E0CD02068006840F0010021680860DF
:102FD00005E02068006840F00100216808600020DA
:102FE000AAE7000000000140000400400008004083
:102FF000000C004000040140004001400018004067
:1030000010B504460CB9012010BD94F83D0028B954
:10301000002084F83C00204600F026F8022084F8C6
:103020003D00211D206801F0DFFE012084F84600EC
:1030300000BF84F83E0001213F200155402001558A
:103040004120015500BF00BF012084F84200432009
:103050000155442001554520015500BF012084F849
:103060003D000020D0E7000038B50446194920682B
:1030700088420FD100BF002000901748006840F040
:103080000100154908600846006800F00100009042
:1030900000BF1DE02068B0F1804F19D100BF0020B3
:1030A00000900D48001F006840F001000A49091F08
:1030B00008600846006800F00100009000BF00BFF3
:1030C000002205211C20FFF799FA1C20FFF786FA41
:1030D00038BD00000000014044380240014691F82C
:1030E0003D00012801D001207047022081F83D00F9
:1030F0001A4B086898421BD00868B0F1804F17D06F
:10310000174B0868984213D0164B086898420FD0A6
:10311000154B086898420BD0144B0868984207D0AA
:10312000134B0868984203D0124B086898420CD1A0
:103130000868806800F00702062A0CD0086800685A
:1031400040F001000B68186005E00868006840F076
:1031500001000B6818600020C6E700000000014075
:103160000004004000080040000C00400004014042
:103170000040014000180040014691F83D00012840
:1031800001D001207047022081F83D000868C06826
:1031900040F001000B68D8601A4B086898421BD0B9
:1031A0000868B0F1804F17D0174B0868984213D0C9
:1031B000164B086898420FD0154B086898420BD000
:1031C000144B0868984207D0134B0868984203D004
:1031D000124B086898420CD10868806800F007021A
:1031E000062A0CD00868006840F001000B681860DF
:1031F00005E00868006840F001000B6818600020D6
:10320000C0E700000000014000040040000800404A
:10321000000C004000040140004001400018004044
:103220002DE9F04104460D46002700BF94F83C000C
:10323000012802D10220BDE8F081012084F83C0081
:1032400000BF022084F83D002068866826F07706DB
:1032500026F47F46206886602868502833D00CDC2E
:10326000202850D004DC00284BD0102851D149E050
:10327000302849D040284CD139E060282DD0702822
:1032800007D0B0F5805F03D0B0F5005F41D10DE00D
:1032900041E0D5E902136A68206801F033FE206836
:1032A000866846F077062068866034E0D5E9021328
:1032B0006A68206801F026FE2068806840F480403B
:1032C0002168886027E0EA686968206801F00AFFE1
:1032D0005021206801F021FE1DE0EA68696820683D
:1032E00001F013FF6021206801F017FE13E0EA6887
:1032F0006968206801F0F6FE4021206801F00DFEAB
:1033000009E000BF00BF00BF2968206801F005FE8A
:1033100001E0012700BF00BF012084F83D0000BF8D
:10332000002084F83C0000BF384684E7704710B5A1
:10333000044620680069C0F34000D8B12068C06826
:10334000C0F34000B0B16FF00200216808610120B5
:1033500020772068806900F0030018B12046FFF74D
:10336000E5FF05E0204600F0FDF8204600F0B1F949
:103370000020207720680069C0F38000D8B1206861
:10338000C068C0F38000B0B16FF00400216808612C
:10339000022020772068806900F4407018B1204630
:1033A000FFF7C4FF05E0204600F0DCF8204600F0FF
:1033B00090F90020207720680069C0F3C000D8B1E0
:1033C0002068C068C0F3C000B0B16FF00800216889
:1033D0000861042020772068C06900F0030018B15C
:1033E0002046FFF7A3FF05E0204600F0BBF820468B
:1033F00000F06FF90020207720680069C0F300100A
:10340000D8B12068C068C0F30010B0B16FF01000F0
:1034100021680861082020772068C06900F44070A6
:1034200018B12046FFF782FF05E0204600F09AF829
:10343000204600F04EF9002020772068006900F057
:10344000010058B12068C06800F0010030B16FF091
:10345000010021680861204600F0C2F92068006977
:10346000C0F3C01058B12068C068C0F3C01030B1BC
:103470006FF08000216808612046FFF7B1FC2068EA
:103480000069C0F3801058B12068C068C0F3801094
:1034900030B16FF0400021680861204600F0ACF9BF
:1034A00020680069C0F3401058B12068C068C0F3BC
:1034B000401030B16FF02000216808612046FFF70E
:1034C00090FC10BD10B586B00446142101A8FDF78C
:1034D00031F820492068884239D100BF002000908F
:1034E0001D48006840F001001B490860084600685C
:1034F00000F00100009000BF00BF00BF002000905E
:103500000846006840F0100008600846006800F0B7
:103510001000009000BF00BF8020019002200290A8
:103520000020039004900120059001A90B48FEF7AC
:1035300099FE4FF400700190022002900020039049
:1035400004900120059001A90548FEF78BFE06B006
:1035500010BD000000000140303802400000024071
:103560000010024070472DE9F04104460D46164612
:10357000002700BF94F83C00012802D10220BDE8DA
:10358000F081012084F83C0000BF36B1042E1BD02E
:10359000082E31D00C2E5ED145E02946206801F07E
:1035A000C5FC2068806940F00800216888612068B7
:1035B000806920F004002168886120688069296999
:1035C00008432168886148E02946206801F0E6FC4C
:1035D0002068806940F40060216888612068806903
:1035E00020F480602168886120688069296940EA48
:1035F00001202168886130E02946206801F00CFD37
:103600002068C06940F008002168C8612068C0696E
:1036100020F004002168C8612068C0692969084356
:103620002168C86119E02946206801F031FD206851
:10363000C06940F400602168C8612068C06920F456
:1036400080602168C8612068C069296940EA01205A
:103650002168C86101E0012700BF00BF00BF002052
:1036600084F83C0000BF384689E710B504460CB921
:10367000012010BD94F83D0028B9002084F83C00DA
:10368000204600F025F8022084F83D00211D206826
:1036900001F0AAFB012084F8460000BF84F83E0038
:1036A00001213F200155402001554120015500BF17
:1036B00000BF012084F842004320015544200155F9
:1036C0004520015500BF012084F83D000020D0E7CF
:1036D0007047704770B504460D4615B994F83E0022
:1036E0000BE0042D02D13F20005D06E0082D02D141
:1036F0004020005D01E04120005D012801D0012053
:1037000070BD1DB9022084F83E000EE0042D03D1E7
:1037100002213F20015508E0082D03D1022140205D
:10372000015502E00221412001550122294620686D
:1037300001F0C6FB23492068884203D02249206853
:10374000884201D1012000E0002028B12068406CAF
:1037500040F40040216848641A49206888421BD020
:103760002068B0F1804F17D018492068884213D0E4
:103770001749206888420FD01649206888420BD02C
:1037800011492068884207D013492068884203D035
:103790001249206888420CD12068806800F0070632
:1037A000062E0CD02068006840F0010021680860F7
:1037B00005E02068006840F00100216808600020F2
:1037C0009EE70000000001400004014000040040AA
:1037D00000080040000C004000400140001800407C
:1037E00010B5044603492068884201D1FEF748FE1F
:1037F00010BD000000200040704700BFFEE7000041
:103800001FB50020009001900290039026482749A0
:1038100008604FF440304860002124488160012155
:1038200001610021017680F820104FF08051C162C3
:10383000091181620021C1600421C161012180F868
:10384000301000214161FEF71FF908B1FEF734F88E
:103850000320009001200190029069461348FEF772
:103860002FF808B1FEF728F80220019069460F48AA
:10387000FEF726F808B1FEF71FF80B200090032092
:10388000019069460948FEF71BF808B1FEF714F8E5
:103890000C2000900420019069460448FEF710F8BF
:1038A00008B1FEF709F81FBD00200140CC0100203F
:1038B0001FB50020009001900290039026482749F0
:1038C00008604FF4403048600021244881600121A5
:1038D00001610021017680F820104FF08051C16213
:1038E000091181620021C1600421C161012180F8B8
:1038F000301000214161FEF7C7F808B1FDF7DCFF89
:10390000012000900190029069461448FDF7D8FF0D
:1039100008B1FDF7D1FF02200090019069460F48E1
:10392000FDF7CEFF08B1FDF7C7FF0A200090032086
:10393000019069460948FDF7C3FF08B1FDF7BCFFD8
:103940000D2000900420019069460448FDF7B8FF5F
:1039500008B1FDF7B1FF1FBD002201401402002095
:1039600008B500BF002000900E48006840F48000B9
:103970000C4908600846006800F48000009000BF11
:1039800000BF002205213820FEF738FE3820FEF760
:1039900025FE002205213920FEF730FE3920FEF7F2
:1039A0001DFE08BD3038024010B5044A002104480D
:1039B00002F0BAFC0349086010BD000078820008DC
:1039C000BD4C00080000002000B587B0142102A8FB
:1039D000FCF7B0FD00BF002001906048006840F097
:1039E00080005E4908600846006800F08000019091
:1039F00000BF00BF00BF002001900846006840F0F3
:103A0000040008600846006800F00400019000BF50
:103A100000BF00BF002001900846006840F0010090
:103A200008600846006800F00100019000BF00BF78
:103A300000BF002001900846006840F010000860B8
:103A40000846006800F01000019000BF00BF00BFF2
:103A5000002001900846006840F002000860084617
:103A6000006800F00200019000BF00BF00BF00200E
:103A700001900846006840F00800086008460068A9
:103A800000F00800019000BF00BF00222021344850
:103A9000FEF7EAFC00224FF470413248FEF7E4FCE6
:103AA00001224AF655013048FEF7DEFC01224FF4B0
:103AB00020712B48FEF7D8FC4FF4287002900120AB
:103AC000039004900320059002A92548FEF7CAFB45
:103AD0004FF4704002900120039004900320059061
:103AE00002A92048FEF7BEFB4AF6550002900120CD
:103AF000039004900320059002A91B48FEF7B2FB37
:103B00004FF40A400290002003900120049002A983
:103B10001648FEF7A7FB4FF40060029000200390C8
:103B20000120049002A90E48FEF79CFB4FF4A470FC
:103B30000290002003900120049002A90948FEF79A
:103B400091FB01200290002003900120049002A923
:103B50000748FEF787FB07B000BD00003038024081
:103B60000008024000040240000C02400000024035
:103B70000010024000B595B00020119012901390F3
:103B800014900F9010901C2108A8FCF7D3FC202162
:103B90006846FCF7CFFC3148314908600020486096
:103BA00020212F4881604FF4AF61C1600021016185
:103BB00041618161FFF724FA08B1FDF77DFE4FF402
:103BC0008050119011A92648FFF72AFB08B1FDF794
:103BD00073FE2348FFF749FD08B1FDF76DFE002095
:103BE0000F9010900FA91E48FFF736F908B1FDF7A6
:103BF00063FE602008904FF42F70099000200A9017
:103C00000B900C900D900E90002208A91448FFF71D
:103C1000AAFC08B1FDF750FE01200990042208A972
:103C20000F48FFF7A0FC08B1FDF746FE002000900A
:103C300001900290039004904FF4005005900020F2
:103C4000079069460648FFF7CDF808B1FDF734FE46
:103C50000348FFF737FC15B000BD0000000001402D
:103C60001C03002000B58DB0002009900A900B9035
:103C70000C90079008901C216846FCF75BFC4FF005
:103C800080401F4908600020486000211C48816076
:103C900040F27751C160002101618161FFF7B0F905
:103CA00008B1FDF709FE4FF48050099009A91448A6
:103CB000FFF7B6FA08B1FDF7FFFD1148FFF7D5FC95
:103CC00008B1FDF7F9FD00200790089007A90C48FE
:103CD000FFF7C2F808B1FDF7EFFD602000904FF448
:103CE0002F7001900020029004900C226946044835
:103CF000FFF739FC08B1FDF7DFFD0DB000BD000096
:103D00006403002000BFFEE700BFFEE730B50024DB
:103D10000CE0002506E00020074901EBC50108552D
:103D2000681CC5B2802DF6DB601CC4B2082CF0DB29
:103D300000F0C0F830BD0000E4040020F0B51446E7
:103D400000267F2801DC3F2900DDF0BD0B46CF17A0
:103D500001EB5777FF10C7F10707FAB2CF1701EB56
:103D60005777FF10A1EBC707FDB2C5F10707012385
:103D7000BB40DEB24CB10A4B03EBC0039B5C334348
:103D8000074F07EBC007BB5408E0054B03EBC0032C
:103D90009B5CB343024F07EBC007BB5400BFD4E7A3
:103DA000E404002010B501203F4908603F49C1F8F4
:103DB000B4023D490C3908603D49086000203A4989
:103DC000091F08606420FEF739FA01203749C1F85D
:103DD000B8026420FEF732FA0021AE2000F090F91C
:103DE0000021D52000F08CF90021502000F088F946
:103DF0000021A82000F084F900213F2000F080F984
:103E00000021D32000F07CF90021084600F078F969
:103E10000021402000F074F900218D2000F070F99D
:103E20000021142000F06CF90021202000F068F936
:103E30000021022000F064F90021A12000F060F9C7
:103E40000021C02000F05CF90021DA2000F058F9D0
:103E50000021122000F054F90021812000F050F9D7
:103E60000021EF2000F04CF90021D92000F048F9A2
:103E70000021F12000F044F90021DB2000F040F99E
:103E80000021302000F03CF90021A42000F038F996
:103E90000021A62000F034F90021AF2000F030F915
:103EA000FFF734FF10BD0000BC824042008040425A
:103EB0009402414230B500241CE004F1B001C8B2C4
:103EC000002100F01DF90021084600F019F9002139
:103ED000102000F015F9002508E0084901EBC501A4
:103EE000085D012100F00CF9681CC5B2802DF4DBDF
:103EF000601CC4B2082CE0DB30BD0000E4040020EC
:103F00002DE9F84F80460F4616461C46BA46204615
:103F1000E31704EB5373DB1021464FEAE47C04EB18
:103F20005C7C4FEAEC0CA4EBCC0CBCF1000F02D093
:103F30004FF0010C01E04FF0000C6344224604EB0B
:103F4000D27C4FEA6C0C03FB0CF303F0FF0BA6F1E1
:103F50002000C6B200254EE00C2C07D106EB46002F
:103F6000274901EB8000405D009013E0102C05D143
:103F7000244800EB0610405D00900BE0182C07D1A0
:103F800006EBC600204901EB8000405D009001E097
:103F9000BDE8F88F4FF0000927E0009800F080009E
:103FA00028B1394640460A9AFFF7C8FE09E00A9848
:103FB00008B9012000E00020024639464046FFF7DC
:103FC000BDFE00984006000E0090781CC7B2A7EB1B
:103FD0000A00A04205D1574608F1010000F0FF0891
:103FE00006E009F1010000F0FF09B9F1080FD4DB88
:103FF00000BF681CC5B25D45AEDB00BFC8E700006E
:10400000BC82000830870008208D00082DE9FF4F92
:1040100081B0074691461E460E9D4FF0000A0024CF
:1040200039E0301B401EC1B20A2002F042F9B9FB50
:10403000F0F00A21B0FBF1F201FB1208BAF1000F17
:1040400016D1701EA04213DDB8F1000F0ED1012071
:10405000AB4605EBDB71491001FB04710090C8B25F
:104060002B4620220299FFF74BFF12E04FF0010A86
:104070000120AB4605EBDB71491001FB0471009098
:10408000C8B208F13001CAB22B460299FFF738FFD7
:1040900000BF601CC4B2B442C3DB05B0BDE8F08F02
:1040A000F8B506460F4615461C4621E004EBD471D0
:1040B0004910C1F18001B14202DA00263819C7B2B5
:1040C000C4F14000B84204DA002006460746FFF774
:1040D0001DFE012000902A78234639463046FFF71E
:1040E0000FFF204604EBD07106EB6101CEB26D1CD0
:1040F00028787E2802DC28782028D7DAF8BD00004E
:1041000010B5144B19600023134CC4F8B0320022D0
:1041100015E00023114C236000F0800323B101233C
:104120000E4C0834236003E000230C4C0834236059
:1041300001230A4C23604306180E531CDAB2082AE6
:10414000E7DB0123054C241F2360054CC4F894329F
:1041500010BD00009402414200804042B4824042BF
:104160000000414238B5044600BF6421206848433E
:10417000616801EB810100EB4100A1684518102046
:1041800003232A46112100900F20FFF73FFF012053
:1041900010232E22112100902820FFF7B1FE1020BD
:1041A0000090012311212C20E268FFF72FFF10203F
:1041B00000900123112133202269FFF727FFD4E962
:1041C000051001EB810100EB4105102002232A4676
:1041D000202100900F20FFF719FF012010232E222D
:1041E000202100901F20FFF78BFE1020009001235C
:1041F00020212320E269FFF709FF1020009001230E
:1042000020212A20226AFFF701FF102000900123BD
:1042100020213120626AFFF7F9FE1020009001236F
:104220002F210F20A26AFFF7F1FE012010232E227A
:104230002F2100901620FFF763FE1020009001232D
:104240002F211D20E26AFFF7E1FE102000900123DC
:104250002F212420226BFFF7D9FE1020009001238C
:104260002F212B20626BFFF7D1FE1020009001233D
:104270002F213220A26BFFF7C9FE38BD10B50B48C5
:1042800090ED010AF2EE000AB4EEE00AF1EE10FA47
:104290000BDD00224FF400610548FEF7E5F803E06E
:1042A00040F2F310FDF7CAFFFAE710BDB851002045
:1042B000000C024038B50446102000900123202154
:1042C0005A202268FFF7A2FE012010232E2220216F
:1042D00000906120FFF714FE1020009001232021A0
:1042E00068206268FFF792FE1020009001232021D1
:1042F0006F20A268FFF78AFE38BD10B500F008F8FD
:1043000000F06AF800F0CCF800F02EF910BD0000C3
:1043100010B5002201212B48FEF7A6F82A480068B4
:104320002A49086008212A48FEF796F826490860BD
:104330000846006825490968401A012801D1FCF7A0
:104340001FFB214840682149086040212048FEF7B2
:1043500083F81D494860084640681C490968401AAE
:10436000012801D1FCF720FB174880681749086035
:104370004FF480711648FEF76FF8134988600846BD
:10438000806812490968401A012801D1FCF720FB16
:104390000D48C0680D49086001210E48FEF75CF821
:1043A0000949C8600846C06808490968401A0128D8
:1043B00001D1FCF7EBFB012211460248FEF754F84D
:1043C00010BD0000000C0240180000201400002066
:1043D000000402400010024010B5002204212B48C6
:1043E000FEF742F82A4800692A49086008212A484D
:1043F000FEF732F826490861084600692549096830
:10440000401A012801D1FCF7CDFB21484069214920
:10441000086040212048FEF71FF81D494861084602
:1044200040691C490968401A012801D1FCF7CEFBFC
:1044300017488069174908604FF480711648FEF7E5
:104440000BF8134988610846806912490968401AC7
:10445000012801D1FCF7CEFB0D48C0690D49086069
:1044600001210E48FDF7F8FF0949C8610846C069F7
:1044700008490968401A012801D1FCF795FC01227E
:1044800004210248FDF7F0FF10BD0000000C0240BF
:104490001800002014000020000402400010024018
:1044A00010B5002210212B48FDF7DEFF2A48006AD4
:1044B0002A49086008212A48FDF7CEFF26490862EC
:1044C0000846006A25490968401A012801D1FCF70D
:1044D00077FC2148406A2149086040212048FDF7C7
:1044E000BBFF1D4948620846406A1C490968401ADA
:1044F000012801D1FCF770FC1748806A1749086051
:104500004FF480711648FDF7A7FF134988620846EB
:10451000806A12490968401A012801D1FCF768FC39
:104520000D48C06A0D49086001210E48FDF794FF4F
:104530000949C8620846C06A08490968401A012842
:1045400001D1FCF76DFC012210210248FDF78CFF20
:1045500010BD0000000C02401800002014000020D4
:10456000000402400010024010B5002240212B48F8
:10457000FDF77AFF2A48006B2A49086008212A487B
:10458000FDF76AFF264908630846006B254909685C
:10459000401A012801D1FCF74FFC2148406B21490A
:1045A000086040212048FDF757FF1D494863084631
:1045B000406B1C490968401A012801D1FCF748FCEE
:1045C0001748806B174908604FF480711648FDF753
:1045D00043FF134988630846806B12490968401AF3
:1045E000012801D1FCF740FC0D48C06B0D49086063
:1045F00001210E48FDF730FF0949C8630846C06B2A
:1046000008490968401A012801D1FCF743FC01223E
:1046100040210248FDF728FF10BD0000000C0240B9
:104620001800002014000020000402400010024086
:1046300010B500F007F800F06DF800F0D3F800F0C6
:1046400035F910BD10B500224FF400512C48FDF78C
:104650000BFF2C4800682C4908604FF400712B4870
:10466000FDF7FAFE274908600846006826490968F0
:10467000401A012801D1FCF719FC22484068224960
:1046800008604FF400612148FDF7E6FE1D494860CF
:10469000084640681C490968401A012801D1FCF706
:1046A0001DFC18488068184908604FF400411748FD
:1046B000FDF7D2FE134988600846806812490968F0
:1046C000401A012801D1FCF715FC0E48C0680E49BC
:1046D00008604FF400610E48FDF7BEFE0949C8604E
:1046E0000846C06808490968401A012801D1FCF74A
:1046F0000DFC012251030248FDF7B6FE10BD00007B
:10470000000C02405800002014000020000002406D
:104710000008024010B500224FF400412C48FDF77C
:10472000A3FE2C4800692C4908604FF400712B4807
:10473000FDF792FE27490861084600692649096885
:10474000401A012801D1FCF7EDFB224840692249BB
:1047500008604FF400612148FDF77EFE1D49486165
:10476000084640691C490968401A012801D1FCF734
:10477000EFFB18488069184908604FF4004117485A
:10478000FDF76AFE13498861084680691249096885
:10479000401A012801D1FCF7E7FB0E48C0690E4919
:1047A00008604FF400610E48FDF756FE0949C861E4
:1047B0000846C06908490968401A012801D1FCF778
:1047C000DFFB0122D1030248FDF74EFE10BD0000C1
:1047D000000C02405800002014000020000002409D
:1047E0000008024010B5002280212C48FDF73CFE55
:1047F0002B48006A2B4908604FF400712A48FDF7E6
:104800002BFE274908620846006A26490968401AB3
:10481000012801D1FCF7C0FB2148406A214908600A
:104820004FF400612048FDF717FE1D494862084615
:10483000406A1C490968401A012801D1FCF7B8FBFD
:104840001748806A174908604FF400411648FDF781
:1048500003FE134988620846806A12490968401AB3
:10486000012801D1FCF7B0FB0D48C06A0D49086072
:104870004FF400610948FDF7EFFD0949C862084699
:10488000C06A08490968401A012801D1FCF7A8FB51
:10489000012280210148FDF7E7FD10BD000802401C
:1048A00058000020140000200000024010B5002233
:1048B0004FF400712C48FDF7D7FD2C48006B2C49B4
:1048C00008604FF400712B48FDF7C6FD27490863C7
:1048D0000846006B26490968401A012801D1FCF7F7
:1048E0008BFB2248406B224908604FF4006121484D
:1048F000FDF7B2FD1D4948630846406B1C49096835
:10490000401A012801D1FCF783FB1848806B184935
:1049100008604FF400411748FDF79EFD1349886376
:104920000846806B12490968401A012801D1FCF73A
:104930007BFB0E48C06B0E4908604FF400610A48CB
:10494000FDF78AFD0949C8630846C06B0849096834
:10495000401A012801D1FCF773FB012251020248E1
:10496000FDF782FD10BD0000000802405800002045
:10497000140000200000024090ED102ADFED332AE1
:1049800022EE222AF0EE421AB6EE002A80ED152A17
:10499000B7EE002A21EE822AD0ED142A22EE222A36
:1049A000F0EE420AC0ED160A90ED142A22EE212AFA
:1049B00022EE212AD0ED142A22EE222AB0EE420A5B
:1049C00080ED170A30EE802AF1EE002A32EE222A1C
:1049D000F7EE002A82EE823AB0EE431A20EE812AE8
:1049E00080ED182A90ED182AFFEE002A22EE222AE6
:1049F00080ED192AB1EE002A32EE402AF0EE002AAC
:104A000022EE222A22EE012A80ED1A2A30EEC02A56
:104A1000F1EE002A32EE622A22EE012A80ED1B2AF4
:104A2000B6EE002A20EE022A22EE012A80ED1C2A90
:104A300090ED1C2AF0EE002A22EE222A80ED1D2A9B
:104A400090ED1C2A80ED1E2A70470000DA0FC94045
:104A500010B52DED048B0446B0EE408AF0EE608A6E
:104A6000B0EE419AF0EE619A84ED108AB7EE000A3A
:104A7000C0EE280AC4ED140A2046FFF77DFF84ED3E
:104A8000209AC4ED1F9ABDEC048B10BD9FED260A41
:104A900080ED000A9FED240A80ED010A9FED220AB5
:104AA00080ED020A9FED200A80ED030A9FED1E0AA9
:104AB00080ED040A9FED1C0A80ED050A9FED1A0A9D
:104AC00080ED060A9FED180A80ED070A9FED160A91
:104AD00080ED080A9FED140A80ED090A9FED120A85
:104AE00080ED0A0A9FED100A80ED0B0A9FED0E0A79
:104AF00080ED0C0A9FED0C0A80ED0D0A9FED0A0A6D
:104B000080ED0E0A9FED080A80ED0F0A9FED060A60
:104B100080ED110A9FED040A80ED130A9FED020A51
:104B200080ED120A704700000000000010B52DED66
:104B3000028B0446B0EE408A84ED008A94ED000AB0
:104B4000D4ED020A30EE600AD4ED180A20EE200AF5
:104B5000D4ED1A0A94ED041A00EE810AD4ED1B0A72
:104B600094ED051A00EE810A84ED030A94ED040A1F
:104B700084ED050A94ED030A84ED040A94ED1C0A01
:104B8000D4ED000A20EE200AD4ED1D0A94ED011A9E
:104B900000EE810AD4ED1E0A94ED021A00EE810A9D
:104BA000D4ED1A0A94ED071A00EE810AD4ED1B0A1F
:104BB00094ED081A00EE810A84ED060A94ED070AC6
:104BC00084ED080A94ED060A84ED070A94ED010AC3
:104BD00084ED020A94ED000A84ED010A94ED120AB4
:104BE000D4ED030A20EE200AD4ED130A94ED061A40
:104BF00000EE810A84ED090A94ED120AD4ED060A4A
:104C000020EE200AD4ED130A94ED031A00EEC10A37
:104C100084ED0B0A94ED0E0AD4ED200A94ED091AE6
:104C200000EE810AD4ED1F0A94ED0A1A00EE810A03
:104C300084ED0D0A94ED0D0A84ED0E0A94ED090A37
:104C400084ED0A0A94ED100AD4ED0D0A30EE200A24
:104C500084ED0F0A94ED0F0AD4ED140A60EE200AD9
:104C600094ED110A9FED141A00EE810A84ED110AE9
:104C700094ED110ADFED100AB4EEE00AF1EE10FA3D
:104C800007DD94ED110ADFED0C0A30EE600A84EDC9
:104C9000110AD4ED110AB0EE600A01F08BFA84ED2E
:104CA000130AD4ED110AB0EE600A01F01BFA84ED8C
:104CB000120ABDEC028B10BDDA0FC94001F0B0F949
:104CC00010E0FFF71AFBFFF7B3FC00F041FC00F027
:104CD000E1FA01F0C1F8FCF705FCFFF7EBF8312031
:104CE000FDF7ACFAEDE710B54FF0E020006902F0F7
:104CF000A7FD012803D0BDE8104002F0A9BA10BDFD
:104D000000B593B0302107A8FBF714FC142102A8CA
:104D1000FBF710FC00BF002001902448006840F021
:104D20008050224908600846006800F080500190D9
:104D300000BF00BF00BF002001901D48006840F484
:104D400080401B4908600846006800F480400190DC
:104D500000BF00BF012007900004089002200D90C2
:104D600041050E9119210F914FF4A8711091022164
:104D700011910421129107A8FDF7E4FD08B1FCF799
:104D80009BFD0F20029002200390002004904FF41E
:104D9000A05005904FF480500690052102A8FDF721
:104DA0007FFC08B1FCF788FD13B000BD403802401D
:104DB000007000400348006840F47000014908603A
:104DC0007047000088ED00E010B50248FEF7AFFA2A
:104DD00010BD00006403002010B50248FEF7A7FADA
:104DE00010BD0000AC03002010B50268294B9842AA
:104DF0000ED0B0F1804F0BD0274B984208D0274BF4
:104E0000984205D0264B984202D0264B984203D1B7
:104E100022F070024B681A431E4B984220D0B0F12A
:104E2000804F1DD01C4B98421AD01C4B984217D073
:104E30001B4B984214D01B4B984211D01A4B9842EE
:104E40000ED01A4B98420BD0194B984208D0194BF0
:104E5000984205D0184B984202D0184B984203D183
:104E600022F44072CB681A4322F080034C6943EA73
:104E7000040202608B68C3620B688362054B984230
:104E800002D0084B984201D10B69036301234361AF
:104E900010BD000000000140000400400008004078
:104EA000000C00400004014000400140004401406B
:104EB0000048014000180040001C00400020004055
:104EC00030B501F01F05012404FA05F3046A9C4380
:104ED0000462046A01F01F0502FA05F52C4304621E
:104EE00030BD30B501F01F05042404FA05F3046A4F
:104EF0009C430462046A01F01F0502FA05F52C4385
:104F0000046230BD30B50C46816821F47F4142EA2D
:104F1000032525432943816030BD0A46816821F07D
:104F2000700142F0070319438160704730B5056A8C
:104F300025F001050562026A4368846924F0700463
:104F400024F003040D682C4322F002028D682A43EA
:104F5000104DA84200D103E00F4DA84206D100BF7A
:104F600022F00802CD682A4322F00402094DA8422B
:104F700002D0094DA84207D123F4807323F40073B3
:104F80004D692B438D692B43436084614D684563B4
:104F9000026230BD000001400004014030B5056AE6
:104FA00025F010050562026A4368846924F4E04430
:104FB00024F440740D6844EA052422F020028D6830
:104FC00042EA0512124DA84200D103E0114DA84259
:104FD00007D100BF22F08002CD6842EA051222F01C
:104FE00040020B4DA84202D00A4DA84209D123F439
:104FF000806323F400634D6943EA85038D6943EAC6
:105000008503436084614D688563026230BD0000A2
:10501000000001400004014030B5056A25F48075A8
:105020000562026A4368C46924F0700424F0030432
:105030000D682C4322F400728D6842EA0522124D5D
:10504000A84200D103E0114DA84207D100BF22F4CD
:105050000062CD6842EA052222F480620A4DA8422D
:1050600002D00A4DA84209D123F4805323F40053FF
:105070004D6943EA05138D6943EA05134360C46132
:105080004D68C563026230BD00000140000401406C
:1050900030B5056A25F480550562036A4468C26923
:1050A00022F4E04222F440720D6842EA052223F421
:1050B00000538D6843EA0533084DA84202D0084DDD
:1050C000A84204D124F480444D6944EA8514446024
:1050D000C2614D680564036230BD000000000140FC
:1050E0000004014030B50B461446026A056A25F0FB
:1050F00001050562816921F0F00141EA041122F005
:105100000A021A438161026230BD30B50B46144673
:10511000056A25F0100505628169026A21F4704173
:1051200041EA043122F0A00242EA031281610262E4
:1051300030BD00000EB56420009000200190029068
:1051400000BFA0E05DF820100A22B1FBF2F302FBE1
:10515000131100EB80024E4B03EB820211615DF8EC
:10516000201000EB800203EB82021269891A64228C
:10517000B1FBF2F302FB13110A22B1FBF2F100EBD7
:105180008002434B03EB8202D1605DF8201000EBFC
:10519000800203EB82021269891A00EB800203EBA2
:1051A0008202D26802EB8202A1EB42014FF47A72D2
:1051B000B1FBF2F302FB13116422B1FBF2F100EB3D
:1051C0008002334B03EB820291605DF8201000EB0C
:1051D000800203EB82021269891A00EB800203EB62
:1051E0008202D26802EB8202A1EB420100EB800254
:1051F00003EB8202926802EBC20303EB0212A1EB03
:10520000820142F21072B1FBF2F302FB13114FF470
:105210007A72B1FBF2F100EB80021D4B03EB8202CC
:1052200051605DF8201000EB800203EB82021269EE
:10523000891A00EB800203EB8202D26802EB820241
:10524000A1EB420100EB800203EB8202926802EBC9
:10525000C20303EB0212A1EB820100EB80020C4BB4
:1052600003EB8202526802EB4203C3EBC212A1EBD2
:10527000C20142F21072B1FBF2F100EB8002044B6A
:1052800043F82210401C0328FFF65CAF0EBD00005F
:105290006C04002000B52DED108B85B0A14890ED79
:1052A000040AB8EE400A10EE101A084602F068FF31
:1052B00041EC1B0B9FED9C0B53EC102B02F078FD87
:1052C00041EC190B974890ED030AB8EE400A10EE36
:1052D000101A084602F054FF41EC1D0B9FED940B91
:1052E00053EC102B02F064FD41EC1B0B8D4890ED4C
:1052F000000AB8EE400ADFED900A20EE200AD0ED59
:10530000010AF8EE600AB2EE041A00EE810AD0ED4E
:10531000020AF8EE600A30EE200A10EE101A084673
:1053200002F02EFF41EC1C0B53EC1B2B02F084FC13
:1053300041EC1A0B53EC192B02F07EFC41EC180BDC
:1053400002F048FC7D498861764890ED090AB8EE84
:10535000400A10EE101A084602F012FF41EC1B0B37
:105360009FED770B53EC102B02F022FD41EC190B53
:105370006C4890ED080AB8EE400A10EE101A084684
:1053800002F0FEFE41EC1D0B9FED670B53EC102B62
:1053900002F00EFD41EC1B0B624890ED070AB8EEDF
:1053A000400A10EE101A084602F0EAFE41EC1F0B0C
:1053B0009FED5F0B53EC102B02F0FAFC41EC1D0B40
:1053C000584890ED060AB8EE400AD0ED050AF8EE0E
:1053D000600AB2EE041A00EE810A10EE101A0846B6
:1053E00002F0CEFE41EC1E0B53EC1D2B02F024FC10
:1053F00041EC1C0B53EC1B2B02F01EFC41EC1A0B76
:1054000053EC192B02F018FC41EC180B02F0E2FBF4
:105410004A49C861434890ED0E0AB8EE400A10EEC2
:10542000101A084602F0ACFE41EC1A0B9FED460B39
:1054300053EC102B02F0BCFC41EC180B394890EDFA
:105440000D0AB8EE400A10EE101A084602F098FE57
:1054500041EC1C0B9FED3A0B53EC102B02F0A8FC17
:1054600041EC1A0B2F4890ED0C0AB8EE400A10EEF2
:10547000101A084602F084FE41EC1E0B9FED2A0B29
:1054800053EC102B02F094FC41EC1C0B254890EDE2
:105490000B0AB8EE400A10EE101A084602F070FE31
:1054A0009FED230B53EC102BCDE900019DED000B7C
:1054B00051EC100B02F07CFC41EC1E0B194890EDF6
:1054C0000A0AB8EE400A10EE101A084602F058FE1A
:1054D00041EC1F0B53EC1E2B02F0AEFB41EC1D0BFD
:1054E00053EC1C2B02F0A8FB41EC1B0B53EC1A2BCA
:1054F00002F0A2FB41EC190B53EC182B02F09CFBC1
:10550000CDE902019DED020B51EC100B02F062FBA4
:105510000A4908620021094800F02CFE05B0BDECE4
:10552000108B00BD6C0400207B14AE47E17A843FF1
:105530009A9999999999B93F0000C8422052002040
:10554000FCA9F1D24D62503F2D431CEBE2361A3FCD
:1055500010B52DED108B84B0FE4890ED040AB8EE26
:10556000400A10EE101A084602F00AFE41EC1B0B2E
:105570009FEDF90B53EC102B02F01AFC41EC190BC8
:10558000F44890ED030AB8EE400A10EE101A0846EF
:1055900002F0F6FD41EC1D0B9FEDF10B53EC102BCF
:1055A00002F006FC41EC1B0BEA4890ED000AB8EE55
:1055B000400ADFEDED0A20EE200AD0ED010AF8EEF8
:1055C000600A9FEDE91A00EE810AD0ED020AF8EEBA
:1055D000600A30EE200A10EE101A084602F0D0FDE4
:1055E00041EC1C0B53EC1B2B02F026FB41EC1A0B7D
:1055F00053EC192B02F020FB41EC180B02F0EAFAF5
:10560000DA498861D34890ED090AB8EE400A10EEF5
:10561000101A084602F0B4FD41EC1B0B9FEDD40BB1
:1056200053EC102B02F0C4FB41EC190BC94890ED70
:10563000080AB8EE400A10EE101A084602F0A0FD63
:1056400041EC1D0B9FEDC40B53EC102B02F0B0FB93
:1056500041EC1B0BBF4890ED070AB8EE400A10EE74
:10566000101A084602F08CFD41EC1F0B9FEDBC0B9D
:1056700053EC102B02F09CFB41EC1D0BB54890ED58
:10568000060AB8EE400AD0ED050AF8EE600AB2EE5E
:10569000041A00EE810A10EE101A084602F070FD9E
:1056A00041EC1E0B53EC1D2B02F0C6FA41EC1C0B17
:1056B00053EC1B2B02F0C0FA41EC1A0B53EC192BE4
:1056C00002F0BAFA41EC180B02F084FAA749C8615B
:1056D000A04890ED0E0AB8EE400A10EE101A0846E7
:1056E00002F04EFD41EC1B0B9FEDA30B53EC102B76
:1056F00002F05EFB41EC190B964890ED0D0AB8EEF6
:10570000400A10EE101A084602F03AFD41EC1D0B5B
:105710009FED970B53EC102B02F04AFB41EC1B0B57
:105720008C4890ED0C0AB8EE400A10EE101A0846AC
:1057300002F026FD41EC1F0B9FED870B53EC102B65
:1057400002F036FB41EC1D0B8249C86A02F01CFBDB
:105750009FED830B53EC102BCDE902019DED020B65
:1057600051EC100B02F024FB41EC1F0B02F032FA5B
:1057700000EE100A7748D0ED0A0AF8EE600A30EE23
:10578000200A10EE104A204602F0FAFC41EC1E0BF3
:1057900053EC1D2B02F050FA41EC1C0B53EC1B2B6D
:1057A00002F04AFA41EC1A0B53EC192B02F044FABE
:1057B00041EC180B02F00EFA6C49086200216B48AC
:1057C00000F0D8FC6E4890ED040AB8EE400A10EEE6
:1057D000101A084602F0D4FC41EC1B0B9FED5E0B47
:1057E00053EC102B02F0E4FA41EC190B644890EDF5
:1057F000030AB8EE400A10EE101A084602F0C0FC88
:1058000041EC1D0B9FED560B53EC102B02F0D0FA20
:1058100041EC1B0B5A4890ED000AB8EE400ADFED50
:10582000520A20EE200AD0ED010AF8EE600AB2EE2C
:10583000041A00EE810AD0ED020AF8EE600A30EE9A
:10584000200A10EE101A084602F09AFC41EC1C0BDC
:1058500053EC1B2B02F0F0F941EC1A0B53EC192B13
:1058600002F0EAF941EC180B02F0B4F945498861FD
:10587000434890ED090AB8EE400A10EE101A0846A7
:1058800002F07EFC41EC1B0B9FED390B53EC102B0F
:1058900002F08EFA41EC190B394890ED080AB8EE87
:1058A000400A10EE101A084602F06AFC41EC1D0B8B
:1058B0009FED290B53EC102B02F07AFA41EC1B0BF5
:1058C0002F4890ED070AB8EE400A10EE101A08466D
:1058D00002F056FC41EC1F0B9FED210B53EC102BFB
:1058E00002F066FA41EC1D0B254890ED060AB8EE71
:1058F000400AD0ED050AF8EE600AB2EE041A00EE96
:10590000810A10EE101A084602F03AFC41EC1E0B18
:1059100053EC1D2B02F090F941EC1C0B53EC1B2BAC
:1059200002F08AF941EC1A0B53EC192B02F084F9BE
:1059300041EC180B02F04EF91249C861104890ED85
:105940000E0AB8EE400A10EE101A084602F018FCD3
:105950001AE00000F40300207B14AE47E17A843F94
:105960009A9999999999B93F0000C842D851002055
:10597000FCA9F1D24D62503F2D431CEBE2361A3F99
:1059800030040020FC51002041EC1B0B1FED060BE6
:1059900053EC102B02F00CFA41EC190B394890ED46
:1059A0000D0AB8EE400A10EE101A084602F0E8FBA5
:1059B00041EC1C0B1FED120B53EC102B02F0F8F90D
:1059C00041EC1B0B2F4890ED0C0AB8EE400A10EE8C
:1059D000101A084602F0D4FB41EC1D0B1FED220B00
:1059E00053EC102B02F0E4F941EC1C0B254890ED30
:1059F0000B0AB8EE400A10EE101A084602F0C0FB7F
:105A000041EC1F0B1FED2A0B53EC102B02F0D0F9C9
:105A100041EC1D0B1B4890ED0A0AB8EE400A10EE4F
:105A2000101A084602F0ACFB41EC1E0B53EC1D2B88
:105A300002F002F953EC1C2BCDE900019DED000BA7
:105A400051EC100B02F0F8F853EC1B2BCDE90201DE
:105A50009DED020B51EC100B02F0EEF841EC1A0B2D
:105A600053EC192B02F0E8F841EC180B02F0B2F8F5
:105A7000054908620021044800F07CFB04B0BDEC3D
:105A8000108B10BD30040020FC5100200EB5712099
:105A9000009000200190029000BFA0E05DF820106F
:105AA0000A22B1FBF2F302FB131100EB8002A34BBD
:105AB00003EB820211615DF8201000EB800203EB22
:105AC00082021269891A6422B1FBF2F302FB1311FC
:105AD0000A22B1FBF2F100EB8002984B03EB820249
