:020000040800F2
:1000000000590020290300085F300008032C000875
:100010005D300008850C0008F54A0008000000006B
:10002000000000000000000000000000690200085D
:100030005513000800000000C5020008053D000837
:100040004303000843030008430300084303000878
:100050004303000843030008430300084303000868
:100060004303000843030008430300084303000858
:100070004303000843030008430300084303000848
:100080004303000843030008430300084303000838
:100090004303000843030008430300084303000828
:1000A0004303000843030008430300084303000818
:1000B000C93D000843030008430300084303000848
:1000C00043030008430300084303000843030008F8
:1000D00043030008430300084303000843030008E8
:1000E00043030008430300084303000843030008D8
:1000F00043030008D53D00084303000843030008FC
:1001000043030008430300084303000843030008B7
:1001100043030008430300084303000843030008A7
:1001200099120008A51200084303000843030008C1
:100130004303000843030008430300084303000887
:100140004303000843030008430300084303000877
:100150004303000843030008430300084303000867
:100160004303000843030008430300084303000857
:100170004303000843030008430300080000000095
:10018000430300084303000800F002F800F05CF8A5
:100190000AA090E8000C82448344AAF10107DA45E2
:1001A00001D100F051F8AFF2090EBAE80F0013F0D8
:1001B000010F18BFFB1A43F001031847B88A00006B
:1001C000D88A00000A444FF0000C10F8013B13F0ED
:1001D000070408BF10F8014B1D1108BF10F8015BA0
:1001E000641E05D010F8016B641E01F8016BF9D193
:1001F00013F0080F1EBF10F8014BAD1C0C1B09D1EA
:100200006D1E58BF01F801CBFAD505E014F8016B5B
:1002100001F8016B6D1EF9D59142D6D370470000ED
:100220000023002400250026103A28BF78C1FBD8FF
:10023000520728BF30C148BF0B6070471FB506F09A
:1002400004FD1FBD10B510BD00F0D0F91146FFF739
:10025000F5FF04F0FFFC00F0EEF903B4FFF7F2FF46
:1002600003BC00F0F5F900002C4B19680868B0E8F1
:10027000F04F80F30988BFF36F8F4FF0000080F3D9
:10028000118870470000000008480068006880F38B
:1002900008884FF0000080F3148862B661B6BFF39F
:1002A0004F8FBFF36F8F00DF00BF00BF08ED00E08E
:1002B000DFF80C00016841F470010160704700BF75
:1002C00088ED00E0EFF30980BFF36F8F134B1A68DE
:1002D0001EF0100F08BF20ED108A20E9F04F1060CB
:1002E00009B44FF0500080F31188BFF34F8FBFF374
:1002F0006F8F05F0E9FB4FF0000080F3118809BC17
:1003000019680868B0E8F04F1EF0100F08BFB0EC95
:10031000108A80F30988BFF36F8F7047D0000020E8
:10032000EFF30580704700000948804709480047FF
:10033000FEE7FEE7FEE7FEE7FEE7FEE7FEE7FEE795
:10034000FEE7FEE704480549054A064B70470000F2
:10035000B93D000889010008005300200059002021
:10036000005500200055002053EA020C00F069807F
:100370002DE9F04B4FF00006002B1FBFB3FA83F5B9
:1003800003FA05F424FA05F65E4012BF1643B2FAEA
:1003900082F502FA05F4C5F120051EBF22FA05FC1C
:1003A00044EA0C04203556EA044C4FEA144418BFC2
:1003B000641C4FF000084FF00009904271EB030CF1
:1003C00039D3002919BFB1FA81F701FA07F6B0FA5B
:1003D00080F700FA07F6C7F120071EBF20FA07FCD6
:1003E00046EA0C062037B6FBF4FCA7EB0507103FE6
:1003F00007F01F0BCBF120060CFA0BFB2CFA06F6CC
:1004000044BFB3460026202FA4BF5E464FF0000B2A
:100410005BEA060C08BF4FF0010B19EB0B09ABFBB5
:10042000027C48EB0608C01B06FB02CC0BFB03CC8E
:1004300071EB0C01C1E70B46024641464846BDE858
:10044000F08B13B54FF000004FF00001AFF30080C8
:10045000BDE81C407047032A40F2308010F0030CC6
:1004600000F0158011F8013BBCF1020F624498BF07
:1004700011F801CB00F8013B38BF11F8013BA2F1A4
:10048000040298BF00F801CB38BF00F8013B11F01F
:10049000030300F07980083AC0F0088051F8043B6B
:1004A000083A51F804CBA0E80810F5E7121D5CBF2C
:1004B00051F8043B40F8043BAFF30080D20724BF5F
:1004C00011F8013B11F801CB48BF11F8012B24BFF3
:1004D00000F8013B00F801CB48BF00F8012B704742
:1004E00002F0FF0343EA032242EA024200F002B8AC
:1004F0004FF000020429C0F0128010F0030C00F04D
:100500001B80CCF1040CBCF1020F18BF00F8012BCA
:10051000A8BF20F8022BA1EB0C0100F00DB85FEA98
:10052000C17C24BF00F8012B00F8012B48BF00F864
:10053000012B70474FF0000200B5134694469646D3
:10054000203922BFA0E80C50A0E80C50B1F12001E6
:10055000BFF4F7AF090728BFA0E80C5048BF0CC094
:100560005DF804EB890028BF40F8042B08BF7047F2
:1005700048BF20F8022B11F0804F18BF00F8012B64
:10058000704770477047704710B5203AC0F00B8035
:10059000B1E81850203AA0E81850B1E81850A0E887
:1005A0001850BFF4F5AF5FEA027C24BFB1E81850E1
:1005B000A0E8185044BF18C918C0BDE810405FEA51
:1005C000827C24BF51F8043B40F8043B08BF7047CD
:1005D000D20728BF31F8023B48BF11F8012B28BFD2
:1005E00020F8023B48BF00F8012B7047754600F029
:1005F0002BF8AE4605006946534620F007008546B5
:1006000018B020B5FFF79EFEBDE820404FF0000671
:100610004FF000074FF000084FF0000B21F00701EA
:10062000AC46ACE8C009ACE8C009ACE8C009ACE82D
:10063000C0098D46704710B50446AFF300802046D0
:10064000BDE81040FFF709BE004870479C520020EB
:1006500001491820ABBEFEE726000200704710B526
:1006600000F006F800F022F8BDE8104000F03CB8B9
:100670000A4810B500880A4C00EE100AB8EE400A8D
:1006800010EE100A06F070FA9FED061B53EC112BCA
:1006900006F082F805F092FF206010BD50010020A6
:1006A0008C510020011D41857E01483F0A4810B54C
:1006B00000880A4C00EE100AB8EE400A10EE100A4C
:1006C00006F052FA9FED061B53EC112B06F064F86E
:1006D00005F074FF206010BD580100209C510020DF
:1006E0001B47ACC5A700683F0A4810B580880A4C74
:1006F00000EE100AB8EE400A10EE100A06F034FAC6
:100700009FED061B53EC112B06F046F805F056FF43
:10071000A06010BD580100209C510020011D4185A2
:100720007E01483F10B50146806B026C12F0500FFD
:1007300005D0026CD20626D500F0D3FE10BD016CA8
:1007400041F40071016401688A6812F0405F17D1BA
:10075000027EAAB9CA6A12F4700F02D08A685205E2
:100760000ED44A6822F020024A60016C21F48071A4
:100770000164016CC90403D4016C41F001010164FE
:1007800000F092FE10BD806BC26CBDE810400846C0
:10079000104710B5806B40210164416C41F00401A9
:1007A000416400F09EFE10BD10B5806B00F098FE15
:1007B00010BD0000464910B54A6822F440324A6034
:1007C0004A6843681A434A6001684A6822F48072A2
:1007D0004A6001684A68036942EA03224A60016884
:1007E0004A6822F040724A6001684A6883681A4386
:1007F0004A6001688A6822F400628A6001688A6837
:10080000C3681A438A60816A6FF07062D1420168DE
:100810008A6822F070628A6001688A680CD0836AF4
:100820001A438A6001688A6822F040528A6001682F
:100830008A68C36A1A4301E022F040528A60016864
:100840008A6822F002028A6001688A68037E42EAAE
:1008500043028A6090F82010002901684A680FD08E
:1008600042F400624A6001684A6822F460424A60C9
:1008700001684A68174C436A04EB43331A4301E0AA
:1008800022F400624A600168CA6A22F47002CA62F5
:100890000168CA6A838B104C04EB03531A43CA6283
:1008A00001688A6822F400728A6001688A6890F898
:1008B000303042EA43228A6001688A6822F480620A
:1008C0008A6001688A68406942EA8020886010BDB9
:1008D0000023014000E0FFFF0000F0FF044A101F6A
:1008E000C168505C002801D0401E50547047000081
:1008F00018000020044AA2F10800C168505C0428D6
:1009000001D0401C505470471C0000202148C26890
:10091000001D011DA2B1012A22D0022A30D0032AD3
:100920000DD1C078C97800EB80021B4800EB820231
:1009300052F82100092802D0401C42F821007047DB
:100940000078097800EB80021348B43800EB82008D
:1009500050F82120092AF2D0521C40F8212070477B
:10096000407800EB80020C48783800EB820248782F
:1009700052F820100929F2D0491C42F82010704783
:100980008078897800EB800203483C3800EB8202D3
:10099000CEE70000140000207C0400200348C1685A
:1009A000032901D0491CC1607047000014000020D9
:1009B000044A101FC168505C022801D0401C5054EA
:1009C0007047000018000020044AA2F10800C16826
:1009D000505C002801D0401E505470471C0000207D
:1009E0002148C268001D011DA2B1012A22D0022A9D
:1009F00030D0032A0DD1C078C97800EB80021B48A3
:100A000000EB820252F82100002802D0401E42F87A
:100A1000210070470078097800EB80021348B43851
:100A200000EB820050F82120002AF2D0521E40F83C
:100A300021207047407800EB80020C48783800EBAA
:100A40008202487852F820100029F2D0491E42F85C
:100A5000201070478078897800EB800203483C388A
:100A600000EB8202CEE70000140000207C0400208E
:100A70000348C168002901D0491EC16070470000C9
:100A80001400002003480169002901D101210161FE
:100A9000704700001400002003484169042901D078
:100AA000491C416170470000140000200548A0F176
:100AB0009C01496950F82120092A02D0521C40F8B3
:100AC00021207047B000002003488169022901D02D
:100AD000491C81617047000014000020034801692F
:100AE000012901D10021016170470000140000209C
:100AF00003484169002901D0491E41617047000047
:100B0000140000200548A0F19C01496950F82120FB
:100B1000002A02D0521E40F821207047B000002069
:100B200003488169022901D0491E81617047000094
:100B3000140000200548A0F1B001896950F8212077
:100B4000092A02D0521C40F821207047C40000201E
:100B50001023002101A2084602F0F6BB4252315F89
:100B6000424332001023002101A2084602F0ECBBF0
:100B70004252315F424333001023002101A2084654
:100B800002F0E2BB4252315F424334000548A0F11B
:100B9000B001896950F82120002A02D0521E40F885
:100BA00021207047C40000201023002101A2084624
:100BB00002F0CABB4252325F42433200102300218E
:100BC00001A2084602F0C0BB4252325F42433300EA
:100BD0001023002101A2084602F0B6BB4252325F48
:100BE000424334001023002101A2084602F0ACBBAE
:100BF0004252335F424331001023002101A20846D4
:100C000002F0A2BB4252335F424332001023002164
:100C100001A2084602F098BB4252335F42433300C0
:100C20001023002101A2084602F08EBB4252335F1E
:100C3000424334001023002101A2084602F084BB85
:100C40004252345F424331001023002101A2084682
:100C500002F07ABB4252345F42433200102300213B
:100C600001A2084602F070BB4252345F4243330097
:100C70001023002101A2084602F066BB4252345FF5
:100C800042433400FEE7000070B5464D464895EDFE
:100C9000020A02F095FF454C94ED000AB8EEC00A36
:100CA00010EE100A05F060FF9FED411B53EC112B75
:100CB00005F072FD05F082FC00EE100A3A48B7EE2E
:100CC000001AD0ED110A30EE800A84ED010AD4ED4D
:100CD000030A30EE811AC0EE811AC4ED041A94EDB5
:100CE000021A60EE810AC4ED050A03F06DFFD4ED2F
:100CF000050A20EE200A10EE100A05F035FF9FEDE0
:100D00002E1B53EC112B05F047FD05F057FC00EEB0
:100D1000100A254884ED060AD5ED000A2438284B30
:100D200030EE600A40F25C5284ED070AD0ED010A11
:100D300090ED031AD0ED001A90ED042A60EE810ABE
:100D400041EE800AD0ED021A41EE820AD0ED051A7A
:100D500080ED041A80ED030AB2EE040A70EEA10AD7
:100D6000C0ED050A20EE800A1648C4ED080A10EE10
:100D7000101A994204DC10EE101A134B994201DA52
:100D8000426304E0BCEEC00A10EE101A4163206812
:100D9000A0F580718F3902D0401C206070BD00200A
:100DA000FBE700009C510020185200207C0100202D
:100DB000981826AEBE15903F39B4C876BE9FF63F50
:100DC0000080AB44000001400000E04110B54B4CF6
:100DD00094ED000AB8EEC00A10EE100A05F0C4FE49
:100DE0009FED471B53EC112B05F0D6FC05F0E6FBFD
:100DF00000EE100A84ED020A03F0E6FEF3EE080AA4
:100E000020EE200A10EE100A05F0AEFE9FED3E1B0C
:100E100053EC112B05F0C0FC05F0D0FB00EE100ADE
:100E20003B4884ED010A3D4AD0ED000A394830EED6
:100E3000600A84ED030AD0ED010A90ED031AD0EDAB
:100E4000001A90ED042A60EE810A41EE800AD0ED8E
:100E5000021A41EE820AD0ED051A80ED041A80EDE7
:100E6000030A70EEA10AC0ED050A2B48C4ED040A7E
:100E700090ED000A274870EEC00A2430C4ED050A40
:100E800090ED010A90ED031AD0ED001A90ED042ABE
:100E900020EE010A01EEA00AD0ED021A01EE820A4C
:100EA000D0ED051A80ED041AC0ED030AF2EE040A33
:100EB00030EE210A80ED050A84ED060A20EE200AB4
:100EC000174810EE101A914202DD40F25C510AE020
:100ED00010EE101A134A914201DA1C2103E0BCEE15
:100EE000C00A10EE101A41632068A0F580718F3996
:100EF00002D0401C206010BD0020FBE760010020F4
:100F0000981826AEBE15903F39B4C876BE9FF63FFE
:100F10008C510020AC5100209C5100200080AB443B
:100F2000000001400000E04110B515489FED150A92
:100F300001212DED028BB7EE008A80ED068A80ED4F
:100F4000070A80ED080A03F023FE0D48243002F062
:100F50000BFE0B48FBEE041AB3EE041ADFED0A0A8F
:100F60009FED0A0A243002F0E5FD0948B1EE000ABF
:100F700080ED020A80ED038ABDEC028B10BD0000FB
:100F8000F45100200000000000409C460000484250
:100F90007C01002038B51025009504460268012325
:100FA00011214A2002F094F90120009010232E22F2
:100FB0001121512002F032F900950123112158200E
:100FC000626802F085F90095012311215F20A26873
:100FD00002F07EF90095012311216620E26802F0FB
:100FE00077F90095012311216D20226902F070F933
:100FF00038BD000010B511489FED0F0A01212DEDFD
:10100000028B9FED0F8A80ED060A80ED078A80ED46
:10101000088A03F0BDFD0948B7EE000A243001211B
:1010200080ED060A80ED078A80ED088ABDEC028B10
:10103000BDE8104003F0ACBD85EB913FAC51002002
:101040000000000038B5474801244FF01003006845
:10105000009488B344220021462002F0DFF81023D8
:101060006F2200214D20009402F0D8F81023752241
:1010700000215420009402F0D1F8102362220021B4
:101080005B20009402F0CAF810236C220021652036
:10109000009402F0C3F81023652200216B20009415
:1010A00002F0BCF83048006870B3012835D002283F
:1010B00045D003283BD14BE0FFE7532200214620D7
:1010C00002F0ACF81023692200214D20009402F0B8
:1010D000A5F810236E2200215420009402F09EF8FF
:1010E0001023672200215B20009402F097F8102360
:1010F0006C2200216120009402F090F810236522F8
:10110000002168200094CBE7102331220021192010
:10111000009402F083F8154807E0102332220021E2
:101120001920009402F07AF8114802F05DF9114894
:10113000FFF730FFBDE838400F4802F0E9B910234F
:10114000332200211920009402F068F80B48ECE7E4
:101150001023342200211920009402F05FF808487F
:10116000E3E700002400002020000020C803002046
:1011700004040020B0000020C4000020400400202F
:101180007C04002038B50124002110235022084699
:10119000009402F043F81023492200210720009414
:1011A00002F03CF81023442200210E20009402F0AB
:1011B00035F810234D2200212820009402F02EF84B
:1011C00010234F2200212F20009402F027F8102333
:1011D000442200213620009402F020F810234522FA
:1011E00000213D20009402F019F810234B22112118
:1011F0000020009402F012F8102370221121082020
:10120000009402F00BF810234B22202100200094C0
:1012100002F004F81023692220210820009401F034
:10122000FDFF10234B222F210020009401F0F6FF38
:10123000102364222F210820009401F0EFFF01F019
:10124000C7FF1023492211213C20009401F0E6FF42
:101250001023722211214320009401F0DFFF10239C
:10126000522220213C20009401F0D8FF102361225B
:1012700020214320009401F0D1FF1023742220216B
:101280004A20009401F0CAFF10236F222021512030
:10129000009401F0C3FF38BD014800F09DBA000082
:1012A00030020020014800F097BA000090020020B0
:1012B00001681823CAB2103AB2FBF3F2054B6FF380
:1012C0000901032A9B5CC36500D9091D8165084695
:1012D00070470000846C000810B5014600208B693F
:1012E0008A6A4FF0C07453B1B3F5005F15D072B184
:1012F000012A0CD0022A0AD0032A09D104E01AB12B
:10130000012A06D0022A03D1C96AC90100D50120E9
:1013100010BDC96AA142FAD010BD002AF7D0012A37
:10132000F2D0022AF3D0032AF3D010BD30B50468FE
:10133000256825F480252560046863608368402B58
:10134000036803D099600068C26030BD9A6000688D
:10135000C16030BD704772B6FEE7000078B500246A
:10136000009490F83C20012A19D0012280F83C20FA
:101370000A6807230568092A13D9EE680A3A02EBBE
:10138000420293409E43EE600B788A680A3B03EB6F
:1013900043039A400368DD682A43DA6010E00220C4
:1013A00078BD2E6902EB420293409E432E610B787A
:1013B0008A6803EB43039A4003681D692A431A6154
:1013C0004A681F23072A13D205686E6B521E02EB70
:1013D000820293409E436E630B790A885B1E92B231
:1013E00003EB83039A4003685D6B2A435A6327E04B
:1013F00005680D2A12D22E6BD21F02EB8202934097
:101400009E432E630B790A88DB1F92B203EB8303A2
:101410009A4003681D6B2A431A6311E0EE6A0D3A85
:1014200002EB820293409E43EE620B790A880D3BE9
:1014300092B203EB83039A400368DD6A2A43DA62BF
:10144000164B0568144A9D4206D10D68122D03D132
:10145000556845F48005556005689D4218D10B68B4
:10146000102B01D0112B13D1536843F400035360A8
:10147000096810290CD10A490A4A0968B1FBF2F13E
:1014800001EB8101490000E0491E00910029FBD1D8
:1014900080F83C40002078BD00230140002001403E
:1014A0001000002040420F0010B500680A49884231
:1014B00010D1FFF7D4F802F013F80848006828B1FB
:1014C000012807D1BDE81040FFF7DEBBBDE81040A2
:1014D000FFF77CBC10BD000000220140240000206A
:1014E0007047704770B504004FF0000503D0206CC2
:1014F000002610B107E0012070BD204600F01CF866
:10150000666484F83C60206CC00610D4206C20F423
:10151000885040F0020020642046FFF74BF96664D3
:10152000206C20F0020040F00100206400E0012562
:1015300084F83C60284670BD2DE9F04F87B0054621
:1015400014216846FEF7F6FF4848DFF81CC12B68F7
:1015500000244649143806270326454A4FF480687C
:101560004FF400694FF4005A4FF4807B634538D143
:101570000B6843F480730B60096801F48071059176
:10158000016841F004010160016801F00401059166
:10159000016841F0010101600068009700F001005E
:1015A0000590CDE901646946104600F099FA48209B
:1015B000CDE90006694602942E4800F091FA2F4EBC
:1015C0002D4806F10C03C6E90004B46083E8100F4F
:1015D0003462304674623FE0AE63B56307B0BDE885
:1015E000F08FDFF89CC06345F8D10B6843F480634B
:1015F0000B60096801F480610591016841F0040104
:101600000160016801F004010591016841F00101E8
:1016100001600068694600F0010005900920CDE9ED
:1016200000060294104600F05BFA0097CDE90164D1
:101630006946104800F054FA104E0F4860361830D2
:1016400030604FF08060C6E9010406F10C033046BB
:1016500083E8100F3462746200F08EF90028BBD06A
:10166000FFF779FEB8E7000000200140443802404F
:1016700000080240000002401064024030020020D6
:1016800000220140F8B5044600200E46009094F870
:101690003C10012907D0012184F83C1021688B6897
:1016A000DB0702D011E00220F8BD8B6843F0010394
:1016B0008B604049404B0968B1FBF3F101EB4101FC
:1016C00000E0491E00910029FBD121688B68DB05F1
:1016D00003D58B6823F480738B6021688B68DB07EC
:1016E0005DD0236C40F20165AB4343F48073236407
:1016F0004968490505D5216C21F4005141F4805118
:101700002164216CC90404D5616C21F00601616477
:1017100000E0606484F83C00A16B2948274DC86351
:10172000A16B28480864A16B2748C86421686FF042
:10173000220008602068416841F0806141602068B3
:10174000816841F4807181602168134632464C31D2
:10175000A06B00F07BF968681C49C006206806D0C1
:10176000884224D1816811F0405F13D01FE0884285
:10177000F8D0174A904203D1D1F80423D206F1D011
:10178000144A904213D1D1F8041301F01F0110291B
:10179000E8D30CE0816841F08041816007E0206C73
:1017A00040F010002064606C40F001006064002094
:1017B000F8BD00001000002040420F00002301404F
:1017C00025070008A907000893070008002001402A
:1017D00000210140002201402DE9F84304464FF06A
:1017E0000009CDF8009063484FF41651A56D0068CC
:1017F000B0FBF1F72E6894F85C10082000FA01F1B4
:1018000031420FD021680A6852070BD50A6822F0CE
:1018100004020A6094F85C108840A860606D40F093
:101820000100606594F85C104FF0010808FA01F0BF
:10183000304208D021684969090604D5A860606D66
:1018400040F00200606594F85C100420884030424B
:1018500008D021680968890704D5A860606D40F048
:101860000400606594F85C1010208840304218D065
:1018700021680968090714D5A86020680168490330
:1018800004D50068000308D5A16C07E00168C9050C
:1018900003D4016821F008010160216C09B12046E0
:1018A000884794F85C1020208840304231D021686D
:1018B0000968C9062DD5A86094F835000528206868
:1018C000016806D0490347D5006800031DD4616C48
:1018D0001CE021F0160101602068416921F08001BF
:1018E0004161206C08B9A06C20B12068016821F02A
:1018F0000801016094F85C103F208840A86084F8DB
:10190000358084F83490216D1FE0E16B09B12046E9
:101910008847606D00282BD0606DC00714D005206B
:1019200084F835002068016821F001010160009809
:10193000401C0090B84203D820680068C007F6D168
:1019400084F8358084F83490E16C002910D001B01F
:101950002046BDE8F04308470168C905D5D40168B1
:1019600021F01001016084F8358084F83490CCE7D0
:10197000BDE8F883100000202DE9F041044600F096
:10198000B1F906465CB1022084F83500002584F8E0
:1019900034502068016821F0010101600DE0012050
:1019A000BDE8F08100F09EF9801B052805D92020B4
:1019B0006065032084F83500F2E720680068C007FE
:1019C000F0D12268116820480140D4E9010318438E
:1019D000D4E903363343184363691843A3691843B2
:1019E000E3691843236A18430843616A042903D151
:1019F000D4E90B1319430843106020684069666AF4
:101A000020F0070130460E43012704280CD1A06ABC
:101A10000643E06A40B12046FFF75EFC20B140205B
:101A2000606584F83570BAE7206846612046FFF7A4
:101A30003FFC94F85C203F2191408160656584F80B
:101A400035700020ACE700003F8010F02DE9F04138
:101A50000446866D90F83400002501280DD0012041
:101A600084F8340094F835700020012F07D084F8F2
:101A7000340002252846BDE8F0810220FBE702275A
:101A800084F8357060652046FFF750FC94F85C10D0
:101A90003F208840B0602068016841F01601016075
:101AA000206C20B12068016841F0080101602068C5
:101AB000016841F001010160DCE7000070B50446F7
:101AC00000F010F90546601C02D004480078044478
:101AD00000F008F9401BA042FAD370BD04000020BA
:101AE0002DE9F84FDFF8BCA10022012503264FF0B5
:101AF0000F090AF1040BAAF1040E00BF0B6805FAE6
:101B000002F42340A34270D10F7907F00307012F9D
:101B100001D0022F16D187684FEA420806FA08FC66
:101B200027EA0C07D1F80CC00CFA08FC4CEA070CA9
:101B3000C0F808C04768A7430C79C4F30014944068
:101B40003C4344600C79E443A4070AD0C4684FEADC
:101B5000420C06FA0CF7BC438F6807FA0CF72743D0
:101B6000C7600C7904F00304022C12D1D40800EBF6
:101B7000840CDCF820405707FF0E09FA07F824EA26
:101B80000804D1F8108008FA07F848EA0408CCF8ED
:101B9000208004684FEA420C06FA0CF7BC430F7928
:101BA00007F0030707FA0CF7274307604C6814F4A3
:101BB000403F70D03C4C276847F48047276024683A
:101BC00022F0030704F480440094384C07EB040C23
:101BD000DCF8084897074FEA177809FA08F7BC437A
:101BE000334FB84202D1002724E054E0314FB842CD
:101BF00001D101271EE0304FB84201D1022719E080
:101C00002E4FB84201D1032714E02D4FB84201D125
:101C100004270FE02B4FB84201D105270AE02A4FD5
:101C2000B84201D1062705E0284FB84201D1072765
:101C300000E0082707FA08F72743CCF80878DAF815
:101C400000405746D1F804C09C435FEACC2C00D535
:101C50001C433C60DBF800405F46D1F804C09C4365
:101C60005FEA8C2C00D51C433C60DEF800407746D0
:101C7000D1F804C09C435FEA8C3C00D51C433C6017
:101C8000084F083F3C68D1F804C09C435FEACC3C55
:101C900000D51C433C60521C102AFFF42FAFBDE856
:101CA000F88F0000083C01404438024000300140F9
:101CB000000002400004024000080240000C024004
:101CC000001002400014024000180240001C0240B4
:101CD0000069084000D0012070470AB18161704757
:101CE0000904FBE7014880687047000004000020F9
:101CF0000248816802781144816070470400002026
:101D00000B4810B5016841F400710160016841F4AD
:101D100080610160016841F480710160032000F07E
:101D20009FF80F2000F006F800F050F8002010BDDA
:101D3000003C024030B505461F4887B000240168CA
:101D400041F480710160006806A900F48070009081
:101D500001A800F031F90498A8B100F04DF9400055
:101D60001649174AB0FBF1F11648491E026040F2CD
:101D7000E732C0E90324C0E90114846100F008FCE3
:101D8000040003D015E000F037F9E9E70D4800F052
:101D900093FC04000DD12D2000F034F8102D07D253
:101DA000002229462D2000F03BF80748056000E09E
:101DB000012407B0204630BD4038024040420F00A9
:101DC0000020004080030020080000200C4882B062
:101DD000016841F480410160006800F48040009097
:101DE0000748001F016841F080510160006800222F
:101DF00000F0805000900F21901E02B000F010B84B
:101E000044380240002809DB00F01F020121914004
:101E10004009800000F1E020C0F800117047000088
:101E2000F0B40E4B1B680C46C3F30223C3F1070545
:101E3000042D00D90425191D072901D2002300E033
:101E4000DB1E012606FA05F1491E214099409E40FD
:101E5000761E16403143F0BC02F04DBE0CED00E0A2
:101E6000064900F0070208684FF6FF03184040EAF1
:101E70000220034A10430860704700000CED00E0A8
:101E80000000FA052DE9F0470E46050065D0DFF8A1
:101E90001481D8F80000F7B200F00700B04207D272
:101EA00088F80070D8F8000000F00700B04254D164
:101EB00028683D4C810712D5400703D5206840F4BF
:101EC000E05020602878000703D5206840F4604087
:101ED00020602068A96820F0F0000843206028787E
:101EE000C0072DD0304968680839012812D002286F
:101EF00013D0032811D00968890700292DDA216839
:101F000021F0030101432160FFF7ECFE814641F21D
:101F1000883A0EE009688903EFE709688901ECE770
:101F2000FFF7E0FEA0EB0901514502D90320BDE80F
:101F3000F0872068696800F00C00B0EB810FEFD1EA
:101F4000D8F80010404601F00701B14207D90770E8
:101F5000006800F00700B04201D00120E7E72878D0
:101F6000400705D52068E96820F4E0500843206068
:101F70002878000706D52068296920F4604040EAE7
:101F8000C100206000F048F82168084AC1F303113D
:101F9000515CC8400649086006480068FFF7CAFE61
:101FA0000020C4E7003C0240083802408C6C000866
:101FB00010000020080000200F2202600C4A136865
:101FC00003F003034360136803F0F00383601368B6
:101FD00003F4E053C36012684FF4E05303EAD20203
:101FE00002610448006800F00700086070470000C4
:101FF00008380240003C024004480549006809686E
:10200000044AC1F38221515CC8407047100000208F
:10201000083802409C6C0008154810B5006810F0A4
:102020000C02144813D01449042A0FD0082A0ED1E8
:102030000F4C241F2268236802F03F025B0207D581
:102040002068C0F38810A0FB010106E0084610BD1F
:102050002168C1F38811A1FB00010023FEF784F978
:102060002168C1F30141491C4900B0FBF1F010BDEA
:10207000083802400024F40040787D012DE9F84F33
:1020800004006ED02078DFF84C93C007A9F1040556
:102090004AD009F104000168C1F38101012908D087
:1020A0000068C0F3810002280AD1D9F8000040027C
:1020B00006D52868800337D560680028E1D033E072
:1020C0006068B0F5803F10D0B0F5A02F286810D020
:1020D00020F480302860286820F480202860606820
:1020E000A8B1FFF7FFFD06460DE0286840F48030F8
:1020F000F4E740F480202860F7E700BFFFF7F2FD27
:10210000801B642873D828688003F7D50CE0FFF79C
:10211000E9FD064605E000BFFFF7E4FD801B6428EB
:10212000F0D828688003F7D42078DFF8AC828007E5
:102130004FF0000A3ED5A748001D016811F00C0FB2
:1021400008D00068C0F3810002280BD1D9F8000044
:10215000400207D42868800716D5E068012800D11E
:1021600012E033E1E068B8B10120C8F80000FFF7E1
:10217000B9FD064605E000BFFFF7B4FD801B02284D
:10218000C0D828688007F7D52868216920F0F800B2
:1021900040EAC10028600DE0C8F800A0FFF7A2FDEA
:1021A000064604E0FFF79EFD801B02281FD8286822
:1021B0008007F7D42078000722D5864F87486169C9
:1021C000703771B101210160FFF78CFD064604E014
:1021D000FFF788FD801B022809D838688007F7D5EB
:1021E0000EE0C0F800A0FFF77DFD064605E082E0A6
:1021F000FFF778FD801B02287DD838688007F7D468
:102200002078400768D5DFF8CCB100270BF13C0BF4
:10221000DBF80000C0000BD4DBF8001041F0805167
:10222000CBF80010DBF80000012700F08050009090
:102230006B4E3068C00510D4306840F48070306058
:10224000FFF750FD009005E0FFF74CFD0099401AA4
:10225000022850D83068C005F6D55E4EA0686C36AE
:1022600001280FD00528306810D020F00100306020
:10227000306820F004003060A068B8B1FFF732FD8C
:1022800000900FE0306840F00100F4E740F00400F7
:102290003060F7E7FFF726FD0099411A41F28830D8
:1022A000814266D830688007F4D50EE0FFF71AFD4A
:1022B000009007E0FFF716FD0099411A41F28830BF
:1022C000814256D830688007F4D42FB1DBF8001073
:1022D00021F08051CBF80010A069C8B33D49091D19
:1022E0000968C1F3810102294AD00228504607D06B
:1022F000C8F8600000E03CE0FFF7F4FC04463BE077
:102300004746C8F86000FFF7EDFC064605E000BF51
:10231000FFF7E8FC801B02282BD828688001F7D43F
:10232000D4E907010843A16A2E4A490802EB01419A
:10233000626A41EA8211084394F82C1040EA016174
:10234000C9F8001001203866FFF7CCFC044606E00F
:102350003EE000BFFFF7C6FC001B022809D8286832
:102360008001F7D534E000BFFFF7BCFC001B02285A
:1023700002D90320BDE8F88F28688001F4D427E053
:102380000128F7D0D9F80000E26900F480019142F9
:102390001CD1226A00F03F01914217D147F6C0716B
:1023A000626A0140B1EB821F10D1A26A4FF0FF3385
:1023B00000F4403103EB5202B1EB024F06D194F826
:1023C0002C1000F07060B0EB016F01D00120D1E75C
:1023D0000020CFE70438024000004742800E474209
:1023E000007000400000FFFF7047704710B590F884
:1023F0003C20012A22D0012280F83C20CA688C6847
:1024000022F4407222434C6822F4806222430C681A
:1024100022F4006222430C6922F4805222434C6968
:1024200022F400522243C969002322F480420A4365
:1024300001684A6480F83C30002010BD022010BDC5
:1024400070B590F83C20012A32D0012480F83C403D
:10245000022280F83D2003685A689D6822F07006C9
:102460000A6832435A60134B02689A4214D0B2F1A0
:10247000804F11D0104B9A420ED0104B9A420BD085
:102480000F4B9A4208D00F4B9A4205D00E4B9A42FE
:1024900002D00E4B9A4204D1496825F080031943BB
:1024A000916080F83D40002180F83C10084670BDE6
:1024B000022070BD00000140000400400008004000
:1024C000000C0040000401400040014000180040A2
:1024D00010B50446022249B104290ED0082913D0B0
:1024E00094F84500012816D0012010BD94F8420050
:1024F0000128F9D184F842200FE094F84300012824
:10250000F2D184F8432008E094F844000128EBD18C
:1025100084F8442001E084F845200422206801F07A
:10252000D0FC2068416C41F40041416411492068AD
:10253000884214D0B0F1804F11D00F4988420ED09C
:102540000E4988420BD00E49884208D00D49884276
:1025500005D00D49884202D00C49884204D18168D7
:1025600001F00701062903D0016841F00101016073
:10257000002010BD000001400004004000080040A1
:10258000000C0040000401400040014000180040E1
:1025900010B5040003D094F83D0010B107E001200D
:1025A00010BD002084F83C00204600F01FF80220F7
:1025B00084F83D00211D206801F012FC012084F800
:1025C000460084F83E0084F83F0084F8400084F818
:1025D000410084F8420084F8430084F8440084F801
:1025E000450084F83D00002010BD000008B50068DB
:1025F0001149884209D11148016841F00101016087
:10260000006800F00100009008BDB0F1804FFBD1E0
:102610000A48001F016841F00101016000680022C2
:1026200000F00100009005211C20FFF7F9FBBDE838
:1026300008401C20FFF7E6BB000001404438024080
:1026400090F83D10012901D001207047022180F847
:102650003D1000681149884214D0B0F1804F11D06C
:102660000F4988420ED00F4988420BD00E4988424C
:1026700008D00E49884205D00D49884202D00D4944
:10268000884204D1816801F00701062903D001685E
:1026900041F001010160002070470000000001408E
:1026A0000004004000080040000C0040000401400D
:1026B000004001400018004090F83D10012901D071
:1026C00001207047022180F83D100168CA6842F07D
:1026D0000102CA6000681149884214D0B0F1804FED
:1026E00011D00F4988420ED00E4988420BD00E49B6
:1026F000884208D00D49884205D00D49884202D051
:102700000C49884204D1816801F00701062903D0F1
:10271000016841F0010101600020704700000140A4
:102720000004004000080040000C0040000401408C
:10273000004001400018004070B5044690F83C008D
:102740000025012817D0012684F83C60022084F877
:102750003D002068826822F0770222F47F42826086
:102760000868502838D00DDC20284FD005DC90B305
:10277000102811D14AE0022070BD302846D04028F0
:102780000AD13BE060282FD070280DD0B0F5805FD3
:1027900003D0B0F5005F12D0012584F83D60002021
:1027A00084F83C00284670BDCB68D1E9012120683F
:1027B00001F094FB2068816841F0770109E0CB6863
:1027C000D1E90121206801F089FB2068816841F48A
:1027D00080418160E1E719E0CA684968206801F03A
:1027E00051FC5021206806E0CA684968206801F061
:1027F0005AFC6021206801F07BFBCEE7CA6849687B
:10280000206801F03FFC40212068F4E7226801467F
:102810001046F0E7704770B50446006801694FF054
:102820000005C943890715D4C168C943890711D474
:10283000E91E016101202077206880698007204619
:1028400002D0FFF7E7FF04E000F0D6F8204600F0E2
:1028500068F9257720680169C943490717D4C16819
:10286000C943490713D46FF00401016102202077A6
:102870002068806910F4407F204602D0FFF7CAFF2D
:1028800004E000F0B9F8204600F04BF92577206805
:102890000169C943090716D4C168C943090712D49D
:1028A0006FF008010161042020772068C06980076B
:1028B000204602D0FFF7AEFF04E000F09DF820466E
:1028C00000F02FF9257720680169C943C90617D49C
:1028D000C168C943C90613D46FF010010161082013
:1028E00020772068C06910F4407F204602D0FFF7AF
:1028F00091FF04E000F080F8204600F012F92577FF
:1029000020680169C943C90708D1C168C943C9071B
:1029100004D1891E0161204600F068F92068016930
:10292000C943090609D4C168C943090605D46FF033
:10293000800101612046FFF757FD20680169C94306
:10294000490609D4C168C943490605D46FF040015E
:102950000161204600F054F920680169C9438906E5
:102960000BD4C168C943890607D46FF02001016107
:102970002046BDE87040FFF738BD70BD70B586B029
:10298000044614216846FDF7D5FD174920688842A2
:1029900027D116480024016841F001010160016857
:1029A00001F001010591016841F01001016000682A
:1029B000022500F01000059080200090CDE9015420
:1029C0000126CDE9034669460948FFF789F8280240
:1029D0000090CDE90154CDE9034669460548FFF76B
:1029E0007FF806B070BD00000000014030380240A2
:1029F0000000024000100240704770B5044690F895
:102A00003C0000260D4601280FD0012084F83C0030
:102A10006AB1042A1DD0082A2FD00C2A3FD00126E3
:102A2000002084F83C00304670BD022070BD206854
:102A300001F066FA2068816941F00801816120682F
:102A4000816921F004018161206881692A6911434B
:102A500011E0206801F084FA2068816941F4006186
:102A600081612068816921F48061816120688169C8
:102A70002A6941EA02218161D2E7206801F0A6FAC1
:102A80002068C16941F00801C1612068C16921F075
:102A90000401C1612068C1692A69114311E02068FD
:102AA00001F0C8FA2068C16941F40061C161206881
:102AB000C16921F48061C1612068C1692A6941EA64
:102AC0000221C161ACE710B5040003D094F83D00C9
:102AD00010B107E0012010BD002084F83C00204622
:102AE00000F01EF8022084F83D00211D206801F04E
:102AF00077F9012084F8460084F83E0084F83F000E
:102B000084F8400084F8410084F8420084F84300CF
:102B100084F8440084F8450084F83D00002010BD8E
:102B20007047704710B50446022249B104290ED0FF
:102B3000082913D094F84100012816D0012010BDB7
:102B400094F83E000128F9D184F83E200FE094F873
:102B50003F000128F2D184F83F2008E094F84000BB
:102B60000128EBD184F8402001E084F841200122C3
:102B7000206801F099F916492068164A884201D068
:102B8000904203D1436C43F400434364206888427D
:102B900013D0B0F1804F10D00F4988420DD00F49AB
:102BA00088420AD00E49884207D0904205D00D498C
:102BB000884202D00C49884204D1816801F00701A3
:102BC000062903D0016841F001010160002010BD19
:102BD00000000140000401400004004000080040E3
:102BE000000C00400040014000180040006803490C
:102BF000884201D1FFF77CB87047000000200040F8
:102C00007047FEE77FB500212548009101910291B0
:102C1000224A0391026001244FF440320461C0E96A
:102C20000121017680F820102207C26204251211CA
:102C3000C5618262C16080F830404161FEF752FC9C
:102C400008B1FEF788FB0326CDE900646946144805
:102C50000294FEF783FB08B1FEF77DFB0220019092
:102C600069460F48FEF77AFB08B1FEF774FB0B20AC
:102C7000CDE9000669460A48FEF770FB08B1FEF789
:102C80006AFB0C20CDE9000569460548FEF766FBA6
:102C9000002801D0FEF75FFB7FBD0000002001404F
:102CA000A00100207FB500212548009101910291EB
:102CB000224A0391026001244FF440320461C0E9CA
:102CC0000121017680F820102207C262042512112A
:102CD000C5618262C16080F830404161FEF702FC4C
:102CE00008B1FEF738FB0094019469461448029439
:102CF000FEF734FB08B1FEF72EFB02200090019096
:102D000069460F48FEF72AFB08B1FEF724FB0A20AC
:102D100000900320019069460948FEF71FFB08B1A7
:102D2000FEF719FB0D20CDE9000569460448FEF7C2
:102D300015FB002801D0FEF70EFB7FBD00220140ED
:102D4000E80100200D4808B5016841F480010160E8
:102D50000068002200F48000009005213820FFF771
:102D60005FF83820FFF74EF8002205213920FFF7E1
:102D700057F8BDE808403920FFF744B83038024022
:102D800010B5044A0021044801F0C2FF034908605D
:102D900010BD0000606C0008DD3C00080000002051
:102DA0002DE9F04F87B014216846FDF7C3FB484872
:102DB0000025016841F080010160016801F0800197
:102DC0000591016841F004010160016801F004010E
:102DD0000591016841F001010160016801F0010104
:102DE0000591016841F010010160016801F01001D6
:102DF0000591016841F002010160016801F00201E2
:102E00000591016841F0080101600068DFF8C49095
:102E100000F008000590002220214846FEF75DFFE3
:102E2000DFF8B4B04FF47047002239465846FEF739
:102E300054FFDFF8A8A04AF6550801224146504643
:102E4000FEF74BFF01224FF420714846FEF745FF85
:102E500001244FF42870CDE900040326CDE9024691
:102E600069464846FEF73CFECDE90074CDE90246CE
:102E700069465846FEF734FECDE90084CDE90246A6
:102E800069465046FEF72CFE4FF40A40CDE9000596
:102E9000694602941248FEF723FEE002CDE90005E0
:102EA000694602944846FEF71BFE4FF4A470CDE934
:102EB0000005694602945846FEF712FECDE900452A
:102EC000694608480294FEF70BFE07B0BDE8F08F94
:102ED000303802400008024000040240000C02406A
:102EE000000002400010024010B596B000240F947C
:102EF00010941194129413941C2168461494FDF7B5
:102F000019FB202107A8FDF715FB2E482C49C0E925
:102F10000014202181604FF4AF61C0E903144461C3
:102F20008461FFF735FB08B1FEF715FA4FF48050C6
:102F30000F900FA92348FFF7FFFB08B1FEF70BFA2C
:102F40002048FFF7C0FD08B1FEF705FA139413A956
:102F50001C481494FFF774FA08B1FEF7FCF96020DE
:102F600000904FF42F70CDE901040394049405946C
:102F70000022694613480694FFF73FFD08B1FEF7AB
:102F8000EAF901200190042269460E48FFF735FD59
:102F900008B1FEF7E0F90794089409944FF4005043
:102FA0000A94CDE90B4007A906480E94FFF71EFAD4
:102FB00008B1FEF7D0F90348FFF7E0FC16B010BDEA
:102FC00000000140F002002010B58EB000240794EC
:102FD000089409940A940B941C2168460C94FDF7FC
:102FE000A9FA1D484FF08041C0E9001440F2775122
:102FF000C0E9024104618461FFF7CAFA08B1FEF733
:10300000AAF94FF48050079007A91348FFF794FBE3
:1030100008B1FEF7A0F91048FFF755FD08B1FEF71B
:103020009AF90B940BA90C480C94FFF709FA08B114
:10303000FEF791F9602000904FF42F70CDE9010464
:103040000C22694604480494FFF7D7FC002801D0FD
:10305000FEF781F90EB010BD38030020FEE7FEE751
:1030600010B40021084B0A465FF0000003EBC004D7
:10307000401CC0B262548028F8D3491CC9B2082948
:10308000F2D310BC00F0A4B8B804002010B57F281B
:1030900016D83F2914D80723A3EBD10301F0070169
:1030A000C1F107040121A140064CDBB204EBC000D2
:1030B000002AC25CC9B201D00A4300E08A43C2546C
:1030C00010BD0000B804002070B53F4C0125C4F8C5
:1030D000BC52C4F8B452C4F8B0523C48C0F8945240
:1030E0000020C4F8B802642004F52C74FEF7E6FC56
:1030F000A5606420FEF7E2FC0021AE2000F050F94C
:103100000021D52000F04CF90021502000F048F9B2
:103110000021A82000F044F900213F2000F040F9F0
:103120000021D32000F03CF90021084600F038F9D6
:103130000021402000F034F900218D2000F030F90A
:103140000021142000F02CF90021202000F028F9A3
:103150000021022000F024F90021A12000F020F934
:103160000021C02000F01CF90021DA2000F018F93D
:103170000021122000F014F90021812000F010F944
:103180000021EF2000F00CF90021D92000F008F90F
:103190000021F12000F004F90021DB2000F000F90B
:1031A0000021302000F0FCF80021A42000F0F8F805
:1031B0000021A62000F0F4F80021AF2000F0F0F884
:1031C000BDE87040FFF74CBF008040420000414224
:1031D00070B5114E002400BF04F1B000C0B2002150
:1031E00000F0DEF80021084600F0DAF80021102097
:1031F00000F0D6F85FF0000506EBC5000121005D88
:1032000000F0CEF86D1CEDB2802DF5D3641CE4B255
:10321000082CE1D370BD0000B80400202DE9FF4F59
:103220001D460C468946580700D0012000EBD5000A
:10323000690810FB01F0203A00F0FF0A02F0FF0BD2
:1032400000263BE00C2D0FD0102D13D0182D37D1B8
:103250001C490BEBCB0001EB80004FF00008875DB1
:1032600038060BD50D9A0CE017480BEB4B0100EB21
:103270008100F2E7154901EB0B10EEE70D9890B1D4
:10328000002221460098FFF701FF7806641C070E14
:10329000E4B2A4EB0900A84207D100984C46401CB8
:1032A000C0B2009008E00122EBE708F1010000F055
:1032B000FF08B8F1080FD3D3761CF6B25645C1D338
:1032C000BDE8FF8F08770008A46C0008187100089B
:1032D0002DE9FF4F81B00026DDF838A01D4693464A
:1032E000814634464FF001084FEA5A0727E0281B71
:1032F000401EC1B20A2001F0D3FCBBFBF0F00A2152
:10330000B0FBF1F201FB120026B9691E8C4201DA12
:1033100048B101263030C2B207FB0490C0B2534618
:10332000CDF8008006E007FB0490C0B2534620228F
:10333000CDF800800299FFF771FF641CE4B2AC4243
:10334000D5D305B0BDE8F08F2DE9F84704461F46F8
:10335000802016460D46A0EB5709C3F140084FF0F8
:10336000010A16E0A14502D20024E819C5B2A84519
:1033700003DA00242546FFF773FECDF800A032786B
:103380003B4629462046FFF749FF04EB5700C4B2ED
:10339000761C307820385E28E4D9BDE8F887000034
:1033A00070B50F4DC5F894120E490024C1F8B04213
:1033B00022460123C1F8B442060602D5C1F8BC3248
:1033C00001E0C1F8BC42C1F8B4324006521C000E04
:1033D000D2B2082AEED3C1F8B032C5F8943270BD2B
:1033E0000000414200804042F8B504460068642174
:1033F00048436168102501EB810100EB4100A168A1
:103400000323421811210F200095FFF761FF0126C9
:1034100010232E22112128200096FFF7FFFE009591
:10342000012311212C20E268FFF752FF00950123B0
:10343000112133202269FFF74BFFD4E9051001EB7E
:10344000810100EB4102022320210F200095FFF7AC
:103450003FFF10232E2220211F200096FFF7DEFEC3
:103460000095012320212320E269FFF731FF009519
:10347000012320212A20226AFFF72AFF0095012339
:1034800020213120626AFFF723FF009501232F21BD
:103490000F20A26AFFF71CFF10232E222F211620D7
:1034A0000096FFF7BBFE009501232F211D20E26A45
:1034B000FFF70EFF009501232F212420226BFFF739
:1034C00007FF009501232F212B20626BFFF700FFE0
:1034D000009501232F213220A26BFFF7F9FEF8BDE2
:1034E000094810B54068B0F1824F0BDD00224FF45F
:1034F00000610648FEF7F1FB40F2F3142046FEF7A8
:10350000DDFAFBE710BD00008C510020000C0240EA
:1035100038B51025009504460268012320215A2061
:10352000FFF7D6FE0120009010232E2220216120DB
:10353000FFF774FE00950123202168206268FFF7E1
:10354000C7FE0095012320216F20A268FFF7C0FE6F
:1035500038BD10B500F008F800F056F800F0A4F8F7
:10356000BDE8104000F0F0B82DE9F041224F0022F4
:1035700001213846FEF7B1FB204D214EA5F11C0478
:103580002868206008213046FEF7A2FB28602168E9
:10359000401A012801D1FDF7A1F968682060402197
:1035A0003046FEF795FB68602168401A012801D17A
:1035B000FDF7A0F9A86820604FF480713046FEF74F
:1035C00087FBA8602168401A012801D1FDF79EF908
:1035D000E868206001210B48FEF77AFBE86021686B
:1035E000401A012801D1FDF7D9F93846BDE8F0416C
:1035F00001221146FEF771BB000C02403000002092
:1036000000040240001002402DE9F041224F002248
:1036100004213846FEF761FB204D214EA5F11C0424
:103620002869206008213046FEF752FB2861216896
:10363000401A012801D1FDF7BBF9686920604021DB
:103640003046FEF745FB68612168401A012801D128
:10365000FDF7BAF9A86920604FF480713046FEF793
:1036600037FBA8612168401A012801D1FDF7B8F99C
:10367000E869206001210B48FEF72AFBE861216818
:10368000401A012801D1FDF7F3F93846BDE8F041B1
:1036900001220421FEF721BB000C02403000002073
:1036A00000040240001002402DE9F041224F0022A8
:1036B00010213846FEF711FB204D214EA5F11C04C8
:1036C000286A206008213046FEF702FB2862216844
:1036D000401A012801D1FDF7D5F9686A2060402120
:1036E0003046FEF7F5FA68622168401A012801D1D8
:1036F000FDF7D2F9A86A20604FF480713046FEF7DA
:10370000E7FAA8622168401A012801D1FDF7CEF935
:10371000E86A206001210B48FEF7DAFAE8622168C6
:10372000401A012801D1FDF7CFF93846BDE8F04134
:1037300001221021FEF7D1BA000C02403000002017
:1037400000040240001002402DE9F041224F002207
:1037500040213846FEF7C1FA204D214EA5F11C0448
:10376000286B206008213046FEF7B2FA28632168F2
:10377000401A012801D1FDF7B1F9686B20604021A2
:103780003046FEF7A5FA68632168401A012801D186
:10379000FDF7AEF9A86B20604FF480713046FEF75C
:1037A00097FAA8632168401A012801D1FDF7AAF908
:1037B000E86B206001210B48FEF78AFAE863216874
:1037C000401A012801D1FDF7ABF93846BDE8F041B8
:1037D00001224021FEF781BA000C02403000002097
:1037E000000402400010024010B500F009F800F09B
:1037F0005DF800F0AFF8BDE8104000F0FBB8000045
:103800002DE9F047DFF894904FF40058002241462C
:103810004846FEF762FA224D224EA5F15C04286864
:1038200020604FF400713046FEF752FA286021689C
:10383000401A012801D1FDF77DF968684FF400674F
:10384000206039463046FEF743FA68602168401A26
:10385000012801D1FDF77CF9A86820604FF40041F0
:103860003046FEF735FAA8602168401A012801D1D8
:10387000FDF778F9E868206039460B48FEF728FA2A
:10388000E8602168401A012801D1FDF775F9414629
:103890004846BDE8F0470122FEF71FBA000C02407F
:1038A0007000002000000240000802402DE9F047AF
:1038B000DFF890904FF40047002239464846FEF763
:1038C0000CFA214C214EA4F15C0520692860B91145
:1038D0003046FEF7FDF920612968401A012801D120
:1038E000FDF754F960694FF400682860414630469E
:1038F000FEF7EEF960612968401A012801D1FDF751
:1039000053F9A069286039463046FEF7E1F9A06115
:103910002968401A012801D1FDF750F9E0692860B3
:1039200041460B48FEF7D4F9E0612968401A0128A6
:1039300001D1FDF74DF939464846BDE8F04701226F
:10394000FEF7CBB9000C02407000002000000240DE
:10395000000802402DE9F041234F00228021384623
:10396000FEF7BBF9214C224EA4F15C05206A2860C9
:1039700079153046FEF7ACF920622968401A012813
:1039800001D1FDF72FF9606A4FF4006828604146C5
:103990003046FEF79DF960622968401A012801D17E
:1039A000FDF72AF9A06A28604FF400413046FEF77F
:1039B0008FF9A0622968401A012801D1FDF726F984
:1039C000E06A286041463846FEF782F9E0622968DD
:1039D000401A012801D1FDF723F93846BDE8F0412E
:1039E00001228021FEF779B9000802407000002012
:1039F000000002402DE9F0474FF40077DFF8948093
:103A000000223E4639464046FEF767F9224D3146D0
:103A1000A5F15C04286B214E20603046FEF758F972
:103A200028632168401A012801D1FDF703F9686B6A
:103A30004FF40069206049463046FEF749F9686353
:103A40002168401A012801D1FDF7FEF8A86B20601B
:103A50004FF400413046FEF73BF9A8632168401A55
:103A6000012801D1FDF7FAF8E86B20604946464687
:103A70004046FEF72DF9E8632168401A012801D17C
:103A8000FDF7F6F839463046BDE8F0470122FEF76B
:103A900024B900000008024070000020000002402D
:103AA00090ED100ADFED220AB6EE002A80ED152A0D
:103AB00060EE200A90ED141AF1EE001AB7EE003A0B
:103AC00021EE200A80ED160A60EE200A60EE810ADF
:103AD000C0ED170A30EE201A71EE212A83EE221A69
:103AE00031EEE03A60EE012A30EE600AC0ED182AAD
:103AF000F1EE622AC0ED192AF0EE002A30EE610ADA
:103B000023EE223A20EE010A23EE013A80ED1A3A22
:103B100080ED1B0A20EE820A20EE010A80ED1C0ACD
:103B200060EE220AC0ED1D0A80ED1E0A70470000FB
:103B3000DA0FC94010B504462DED028BF0EE418A34
:103B400080ED100AB7EE000AB0EE618A80EE201A0E
:103B500080ED141AFFF7A4FFC4ED208A84ED1F8ABC
:103B6000BDEC028B10BD00009FED140A80ED000A31
:103B700080ED010A80ED020A80ED030A80ED040A5F
:103B800080ED050A80ED060A80ED070A80ED080A3F
:103B900080ED090A80ED0A0A80ED0B0A80ED0C0A1F
:103BA00080ED0D0A80ED0E0A80ED0F0A80ED110AFE
:103BB00080ED130A80ED120A70470000000000003B
:103BC00010B580ED000AD0ED022A90ED181A90EDA4
:103BD0001A2A70EE620AD0ED1B1A90ED053A0446DF
:103BE00020EE811AD0ED040A3B4902EE201A01EEC4
:103BF000831A80ED031AC0ED050A80ED041AD0ED9A
:103C00001C0AD4ED1D3A94ED013A60EE800A43EEB1
:103C1000830AD4ED1E3A43EEA20AD4ED072A42EEFF
:103C2000220A94ED082A41EE820AC4ED060AC4ED88
:103C3000082AC4ED070A84ED023A84ED010A94EDE6
:103C4000122A94ED130A62EE011A40EE201A62EE77
:103C5000200A40EE410AC4ED091AC4ED0B0A94EDA6
:103C60000E0AD4ED200A94ED0A1A00EEA10AD4ED52
:103C70001F0A00EE810A84ED0D0A84ED0E0AC4EDE0
:103C80000A1AD4ED100A30EE800A84ED0F0AD4ED42
:103C9000140A20EE201A94ED110ADFED0E0A01EE4F
:103CA000200A10EE100A84ED110A884202DC94ED1D
:103CB000110A03E030EE600A84ED110A00F084FF7F
:103CC00084ED130A94ED110A00F026FF84ED120A28
:103CD00010BD0000DA0FC940DA0FC94000F0C4FE81
:103CE000FFF737FCFFF780FD00F046FB00F03EFADF
:103CF00000F010FEFDF7A6F9FFF76AFA3120FDF794
:103D0000DDFEEDE710B54FF0E020006902F08CFA1F
:103D1000012803D0BDE8104001F08EBF10BD0000A7
:103D200030B593B030216846FCF704FC14210CA890
:103D3000FCF700FC1E480025016841F0805101603D
:103D4000006800F0805011901A48016841F48041E9
:103D500001600068022400F480401190012000906E
:103D6000000401908001CDE90640192008904FF42D
:103D7000A870CDE9090404200B906846FEF77EF98F
:103D800008B172B6FEE70CA90F2081E831004FF4AC
:103D9000A0500F904FF48050109005210CA8FEF712
:103DA00071F8002801D072B6FEE713B030BD0000F4
:103DB00040380240007000400248016841F4700140
:103DC0000160704788ED00E00148FEF724BD000067
:103DD000380300200148FEF71EBD000080030020CC
:103DE000F0B50268254C264D264E274F274B4FF045
:103DF000804CA04209D0604507D0A84205D0B0420F
:103E000003D0B84201D0984204D122F0700E4A6823
:103E100042EA0E02A0421BD0604519D0A84217D03A
:103E2000B04215D0B84213D0984211D0184DA842D4
:103E30000ED0184DA8420BD0174DA84208D0174DF0
:103E4000A84205D0164DA84202D0164DA84203D173
:103E500022F44075CA682A434D6922F080022A4341
:103E600002608A68C2620A688262A04201D09842F7
:103E700001D10969016301214161F0BD00000140E8
:103E80000004004000080040000C00400004014015
:103E9000004001400044014000480140001800403B
:103EA000001C00400020004010B501F01F0301215C
:103EB000046A99408C430462016A9A40114301628A
:103EC00010BD10B501F01F030421046A99408C4312
:103ED0000462016A9A401143016210BD10B5846802
:103EE00042EA032224F47F440A432243826010BD45
:103EF000826822F070020A4342F007018160704735
:103F0000F0B5026A22F001020262036A4268846923
:103F1000124E24F073050C682C4323F002058B68C5
:103F20002B430D4DA84201D0B04205D123F0080724
:103F3000CB683B4323F00403A84201D0B04205D133
:103F40004D6922F4407215438A692A4342608461B4
:103F5000496841630362F0BD000001400004014074
:103F6000F0B5026A22F010020262026A43688469B4
:103F70000D6824F4E64444EA05248D6822F020020A
:103F800042EA05120F4D104EA84201D0B04206D1B0
:103F9000CF6822F0800242EA071222F04002A842D3
:103FA00001D0B04207D14D6923F4406343EA850351
:103FB0008D6943EA850343608461496881630262D5
:103FC000F0BD00000000014000040140F0B5026AAD
:103FD00022F480720262026A4368C46922F40072A9
:103FE00024F073050C68124E2C438D6842EA0522BA
:103FF0000E4DA84201D0B04206D1CF6822F4006233
:1040000042EA072222F48062A84201D0B04207D1DE
:104010004D6923F4405343EA05138D6943EA0513C0
:104020004360C4614968C1630262F0BD00000140A1
:104030000004014030B5026A22F480520262046A30
:104040004268C3690D6823F4E64343EA05238D689B
:1040500024F4005444EA0534084DA84202D0084D27
:10406000A84204D14D6922F4804242EA851242609E
:10407000C36149680164046230BD00000000014072
:104080000004014010B5036A046A24F001040462CC
:10409000846924F0F00444EA021423F00A020A437B
:1040A0008461026210BD10B5036A23F0100303623D
:1040B0008369046A23F4704343EA023224F0A003C4
:1040C00043EA01118261016210BD00002DE9FE4743
:1040D00064210020CDE90010234BEA464FF00A0886
:1040E0004FF47A7442F21079CDF808005AF8207033
:1040F00000EB8006B7FBF8F208FB127503EB8602B3
:104100006FF0180C15617D1BB5FBF1F701FB17571C
:10411000B7FBF8F7D7607F4207EB870705EB47054A
:10412000B5FBF4F704FB1757B7FBF1F7976007FBF4
:104130000CF705EB87074D46B7FBF5FC09FB1C7C2C
:10414000BCFBF4FCC2F804C06FF07C020CFB02FC68
:1041500007EBCC02B2FBF9F2401C43F826200328FF
:10416000C4DBBDE8FE8700004004002070B5774C3A
:104170002DED0E8B94ED040AB8EE400A10EE100AF5
:1041800002F0F2FC9FED728B53EC182B02F004FB53
:1041900094ED030A41EC1A0BB8EE400A10EE100A37
:1041A00002F0E2FC9FED6C9B53EC192B02F0F4FA49
:1041B00094ED000A41EC1B0BB8EE400ADFED680AF3
:1041C000B2EE04EA20EE200AD4ED010AF8EE600A0D
:1041D00000EE8E0AD4ED020AF8EE600A30EE200AF4
:1041E00010EE100A02F0C0FC53EC1B2B02F018FA80
:1041F00053EC1A2B02F014FA02F0E0F9594DA861C1
:1042000094ED090AB8EE400A10EE100A02F0ACFC78
:104210009FED55DB53EC1D2B02F0BEFA94ED080A1E
:1042200041EC1C0BB8EE400A10EE100A02F09CFCA8
:1042300053EC182B02F0B0FA94ED070A41EC1B0B7B
:10424000B8EE400A10EE100A02F08EFC53EC192B67
:1042500002F0A2FA94ED060AD4ED050A41EC1A0B1D
:10426000B8EE400AF8EE600A00EE8E0A10EE100A70
:1042700002F07AFC53EC1A2B02F0D2F953EC1B2B10
:1042800002F0CEF953EC1C2B02F0CAF902F096F9B9
:10429000E86194ED0E0AB8EE400A10EE100A02F042
:1042A00063FC9FED331B53EC112B02F075FA94ED78
:1042B0000D0A41EC1A0BB8EE400A10EE100A02F09B
:1042C00053FC53EC1D2B02F067FA94ED0C0A41EC01
:1042D0001B0BB8EE400A10EE100A02F045FC53EC3E
:1042E000182B02F059FA94ED0B0A41EC1C0BB8EEB6
:1042F000400A10EE100A02F037FC53EC192B02F0C2
:104300004BFA94ED0A0A41EC180BB8EE400A10EE95
:10431000100A02F029FC53EC182B02F081F953EC3F
:104320001C2B02F07DF953EC1B2B02F079F953ECB6
:104330001A2B02F075F902F041F928622846BDEC0B
:104340000E8B0021BDE8704000F022BC400400202C
:104350007B14AE47E17A843F9A9999999999B93F2C
:104360000000C842F4510020FCA9F1D24D62503F38
:104370002D431CEBE2361A3F70B5E34C2DED108B4C
:1043800094ED040AB8EE400A10EE100A02F0ECFBBD
:104390009FEDDE8B53EC182B02F0FEF994ED030A2F
:1043A00041EC1A0BB8EE400A10EE100A02F0DCFBEA
:1043B0009FEDD89B53EC192B02F0EEF994ED000A17
:1043C00041EC1B0BB8EE400ADFEDD4FAD4ED010A44
:1043D00020EE2F0AF8EE600A00EEAF0AD4ED020AD2
:1043E000F8EE600A30EE200A10EE100A02F0BCFB74
:1043F00053EC1B2B02F014F953EC1A2B02F010F9BA
:1044000002F0DCF8C64DA86194ED090AB8EE400A46
:1044100010EE100A02F0A8FB9FEDC2AB53EC1A2B72
:1044200002F0BAF994ED080A41EC1D0BB8EE400A0F
:1044300010EE100A02F098FB53EC182B02F0ACF9C6
:1044400094ED070A41EC1C0BB8EE400A10EE100A7E
:1044500002F08AFB53EC192B02F09EF994ED060A48
:10446000D4ED050AB2EE04FAB8EE400AF8EE600A9E
:1044700041EC1B0B00EE8F0A10EE100A02F074FBE9
:1044800053EC1B2B02F0CCF853EC1C2B02F0C8F8B9
:1044900053EC1D2B02F0C4F802F090F8E86194EDA3
:1044A0000E0AB8EE400A10EE100A02F05DFB9FED16
:1044B0009FEB53EC1E2B02F06FF994ED0D0A41ECCB
:1044C0001D0BB8EE400A10EE100A02F04DFB53EC43
:1044D0001A2B02F061F994ED0C0A41EC1C0BB8EEBA
:1044E000400A10EE100A02F03FFB53EC182B02F0CA
:1044F00053F941EC1B0BE06A02F03AF953EC192B2B
:1045000002F04AF902F05AF8D4ED0A0A00EE100A55
:10451000F8EE600A30EE200A10EE100A02F024FBDA
:1045200053EC1B2B02F07CF853EC1C2B02F078F8B8
:1045300053EC1D2B02F074F802F040F828620021C1
:10454000284600F025FB7B4C94ED040AB8EE400AA7
:1045500010EE100A02F008FB53EC182B02F01CF9C5
:1045600094ED030A41EC1C0BB8EE400A10EE100A61
:1045700002F0FAFA53EC192B02F00EF994ED000A4E
:10458000D4ED010A41EC1B0BB8EE400AF8EE600ACC
:1045900020EE2F0A00EE8F0AD4ED020AF8EE600A30
:1045A00030EE200A10EE100A02F0DEFA53EC1B2B5C
:1045B00002F036F853EC1C2B02F032F801F0FEFF4B
:1045C0002435A86194ED090AB8EE400A10EE100AED
:1045D00002F0CAFA53EC1A2B02F0DEF894ED080A46
:1045E00041EC1D0BB8EE400A10EE100A02F0BCFAC6
:1045F00053EC182B02F0D0F894ED070A41EC1C0B99
:10460000B8EE400A10EE100A02F0AEFA53EC192B85
:1046100002F0C2F894ED060AD4ED050A41EC1B0B3A
:10462000B8EE400AF8EE600A00EE8F0A10EE100AAB
:1046300002F09AFA53EC1B2B01F0F2FF53EC1C2B07
:1046400001F0EEFF53EC1D2B01F0EAFF01F0B6FF85
:10465000E86194ED0E0AB8EE400A10EE100A02F07E
:1046600083FA53EC1E2B02F097F894ED0D0A41ECFF
:104670001B0BB8EE400A10EE100A02F075FA53EC6C
:104680001A2B02F089F894ED0C0A41EC1A0BB8EEE3
:10469000400A10EE100A02F067FA53EC182B02F0F1
:1046A0007BF894ED0B0A41EC180BB8EE400A10EEC3
:1046B000100A02F059FA53EC192B02F06DF894ED40
:1046C0000A0A41EC190BB8EE400A10EE100A02F08B
:1046D0004BFA53EC192B01F0A3FF53EC182B01F00C
:1046E0009FFF53EC1A2B01F09BFF53EC1B2B01F0A7
:1046F00097FF01F063FF28622846BDEC108B002174
:10470000BDE8704000F044BAC80300207B14AE47F7
:10471000E17A843F9A9999999999B93F0000C842E2
:10472000AC510020FCA9F1D24D62503F2D431CEB4F
:10473000E2361A3F040400202DE9FE4F4FF0000A34
:104740007120CDE9000A474C50466B464FF00A09EC
:104750004FF064084FF47A7B42F2107ECDF808A047
:1047600053F820604946B6FBF1F209FB126500EBF5
:10477000800704EB87026FF0180C1561751BB5FB01
:10478000F8F608FB1656B6FBF9F1D160494201EB89
:10479000810105EB41065946B6FBF1F50BFB1565AA
:1047A000B5FBF8F5956005FB0CF506EB850675463F
:1047B000B6FBF5FC0EFB1C6CBCFBFBFCC2F804C09A
:1047C0006FF07C020CFB02FC06EBCC02B2FBFEF2AB
:1047D000401C44F827200328C2DBCDE9008ACDF82D
:1047E00008A0CC46204A00209A46F1465AF82040BC
:1047F00000EB8005B4FBFCF10CFB114302EB8501DF
:104800006FF018070B61E31AB3FBF8F408FB1434DC
:10481000B4FBFCF4CC60644204EB840403EB44047A
:104820005B46B4FBF3F60BFB1646B6FBF8F68E6060
:104830007E4304EB86064C46B6FBF4F709FB17678C
:10484000B7FBFBF34B606FF07C014B4306EBC301FE
:10485000B1FBF9F1401C42F825100328C6DBBDE886
:10486000FE8F0000C80300200404002049F64041E8
:104870000A22B1FBF2F070B502FB101323486FF06F
:1048800018060361CB1A6421B3FBF1F401FB143465
:10489000B4FBF2F4C460644204EB840403EB44050B
:1048A0004FF47A74B5FBF4F304FB1353B3FBF1F349
:1048B0008360734305EB830642F21075B6FBF5F394
:1048C00005FB1363B3FBF4F36FF07C0443606343B5
:1048D00006EBC303B3FBF5F30360B1FBF2F002FB9D
:1048E00010130B488360C3F16403B3FBF1F401FBC5
:1048F0001434B4FBF2F24260524202EB820203EB48
:104900004202B2FBF1F1016070BD0000B000002076
:10491000C400002070B5494C2DED088B94ED020ABF
:10492000B8EE400A10EE100A02F01EF99FED44BBEB
:1049300053EC1B2B01F030FF94ED010A41EC180BF6
:10494000B8EE400A10EE100A02F00EF99FED3EABF1
:1049500053EC1A2B01F020FF94ED000A41EC190BE7
:10496000B8EE400A10EE100A02F0FEF853EC192BD4
:1049700001F056FE53EC182B01F052FE01F01EFE22
:10498000334D344CE86094ED040AB8EE400A10EE62
:10499000100A02F0E9F89FED301B53EC112B01F0E7
:1049A000FBFE94ED030A41EC190BB8EE400A10EE41
:1049B000100A02F0D9F89FED2A1B53EC112B01F0DD
:1049C000EBFE94ED020A41EC180BB8EE400A10EE33
:1049D000100A02F0C9F853EC1B2B01F0DDFE94ED38
:1049E000010A41EC1B0BB8EE400A10EE100A02F06F
:1049F000BBF853EC1A2B01F0CFFE94ED000A41EC0A
:104A00001A0BB8EE400A10EE100A02F0ADF853ECA3
:104A10001A2B01F005FE53EC1B2B01F001FE53ECA9
:104A2000182B01F0FDFD53EC192B01F0F9FD01F0FD
:104A3000C5FDA860BDEC088B70BD0000C40000205F
:104A40007B14AE47E17A843F9A9999999999B93F35
:104A50007C010020B00000202D431CEBE2361A3F01
:104A6000FCA9F1D24D62503F70B5FEF72DFBFCF76B
:104A700089FBFCF7BFFAFCF757FAFFF75DFEFFF77B
:104A800025FBFFF7F3FE164D4FF40064002221468C
:104A90002846FDF722F91348FDF7D2FD04211148FD
:104AA000FEF740F8042210491048FCF7EBFD0E49D0
:104AB000042208310E48FCF7E5FD0A48FDF7C0FD69
:104AC00000210848FEF72EF800210648FDF700FDFA
:104AD00021462846BDE870400122FDF7FEB80000DF
:104AE000000C0240F002002050010020A001002034
:104AF000E8010020FEE70907090E002804DB00F1A9
:104B0000E02080F80014704700F00F0000F1E02072
:104B100080F8141D704700009FED1A1AF5EE000A88
:104B200040EE010ABDEEE00AF5EEC00A10EE100AF2
:104B3000F1EE10FA00D2401E00EE100A1349F7EE13
:104B4000001AB8EEC00A30EEC00ADFED0F0A20EE00
:104B5000200AFCEEC00A10EE900AC0F3080000EE36
:104B6000900A01EB8000F8EE600A90ED011A70EEF9
:104B7000600A90ED000A71EEE01A21EE800A00EE64
:104B8000810A704783F9223E0000004464840008D3
:104B9000D0ED060A90ED070A002930EE801A90ED5C
:104BA000080A31EE001A80ED001AB0EE001A50EE3D
:104BB000410AC0ED010A80ED020A03D00021C16064
:104BC0000161416170470000B5EEC00AF1EE10FAD4
:104BD00004D210EE100A1B49884232D9B5EEC00A41
:104BE000DFED190A60EE200ABDEEE01A11EE100AA0
:104BF000F1EE10FA00D2401E00EE100A1449F7EE52
:104C0000001AB8EEC00A30EEC00ADFED100A60EEFE
:104C1000200ABCEEE00A10EE100AC0F3080000EE15
:104C2000100A01EB8000B8EE400A90ED011A70EE18
:104C3000C00A90ED000A71EEE01A21EE800A00EE43
:104C4000810A7047CD024CB483F9223E0000004433
:104C500064840008FDF754F8FFF762F8FEF7A0F847
:104C6000FEF770F8FDF7CEFFFEF7AEF9FEF73CF960
:104C7000FEF718F8FEF728FAFCF784FA00F018F8A7
:104C8000FEF77EF800F028F8FEF763FCFEF7ACFDB7
:104C9000FCF7D8F9FEF79CFA3120FCF70FFFF3E799
:104CA0000246012000E05043491EC9B2FBD27047C2
:104CB000EFF30580002802D06FF00500704705482B
:104CC000016811B14FF0FF307047012101600020F1
:104CD000704700002001002010B5EFF30580002888
:104CE00002D06FF0050010BD07480168012902D00D
:104CF0004FF0FF3010BD054A002111700221016004
:104D000000F092FE002010BD200100201FED00E009
:104D10002DE9F04385B00B464FF000070497EFF301
:104D2000058100294ED100284CD080244FF0180C6A
:104D30008946491E52B3166806B1B146956905B158
:104D4000AC46ACF10105382D03D2157915F0010FF1
:104D500003D005B00020BDE8F083556905B1AC086B
:104D6000D2F80880B8F1000F07D0D6685C2E04D3C3
:104D7000166916B10DB1012109E0B8F1000F06D195
:104D8000D56825B9156915B9002100E00021012970
:104D900001D061B116E09168126901920291CDF8DB
:104DA00000C02246494601F00FFA04900AE004A927
:104DB0000191A2B2CDF800C0494601F0CFF9012817
:104DC00000D00497049805B0BDE8F0832DE9F041C8
:104DD00004460F46134EF5683068001D00F0A0FC35
:104DE000B4F1FF3F07D137B13068BDE8F041011D94
:104DF0000D4800F0E8BC2C4430684460AC4206D258
:104E00003068011DB06BBDE8F04100F0C1BC3068F6
:104E1000011D706B00F0BCFCB06A844200D2B46229
:104E2000BDE8F081D0000020A80D002070B5044638
:104E300000F0D6FC1C4DA868401CA860286810B182
:104E4000686938B10CE02C60A868012808D100F02E
:104E500093F905E02868E16AC06A884200D82C60AE
:104E6000686A401C68626064E06A2969884200D907
:104E700028610E4900EB800001EB8000211D00F04D
:104E8000A2FC00F0CDFC686900280CD02868E16A1B
:104E9000C06A884207D206494FF080500860BFF3CD
:104EA0004F8FBFF36F8F70BDD0000020F808002037
:104EB00004ED00E038B500F093FC0F4C2068B8B961
:104EC0000E4800F057FC0E4800F054FC0B48E06020
:104ED0001430206100200B4B009003F15002102190
:104EE0000A2000F0BFFE206010B107A100F01CFDF9
:104EF000BDE8384000F094BC0C010020AC0E00204E
:104F0000C00E0020BC0D0020546D72510000000046
:104F100070B50D4C6068002815D00C4E00F060FC98
:104F2000F068C568281D00F0FBFBA068401EA0606B
:104F30006068401E606000F073FC284600F051F885
:104F400060680028EAD170BDD0000020940D0020D8
:104F50000B46026C002A0CD0C1681144C160D0F825
:104F600008C0614501D30168C160C1681846FBF7FC
:104F700072BA70472DE9F041044616460027A56B2A
:104F8000226C002A10D0C6B1E068FBF764FAE16831
:104F9000206C091AE1602268914202D2A168081AC5
:104FA000E060022E16D017E02068A8B9A06801F0D2
:104FB000B5F907460020A0600EE06068FBF74BFAE9
:104FC000216C606808446060A168884204D320684E
:104FD000606001E005B16D1E681CA0633846BDE845
:104FE000F08110B5044694F8591000290BD001291E
:104FF00011D0022914D0502080F31188BFF34F8FB5
:10500000BFF36F8FFEE7206B00F020FC2046BDE869
:10501000104000F01BBC2046BDE8104000F016BC5C
:1050200010BD00000749CA681168002904D000219A
:10503000016019B1002070470121F9E7D0680068CC
:10504000704700000C0100204FF47051104810F020
:10505000070F06D0C01D20F007000D49411AC1F509
:1050600070510C4A1060002353600144083921F04C
:105070000701183A11604B600B600B1A4360016026
:105080004068906050604FF00040506170470000F1
:105090008C1500203C010020074E4FF08054074D36
:1050A000FFF736FF30680128FAD92C60BFF34F8F25
:1050B000BFF36F8FF4E70000F808002004ED00E074
:1050C00070B51D46049C002909D02260E06321646C
:1050D0000121204600F0FEFD84F84C5070BD246094
:1050E000F4E72DE9F05F82460B9F0A9D0C9C0E466B
:1050F00090469B464FEA8801A522206BFBF7F0F90A
:10510000206BA8F1010100EB810020F007094FF0AE
:10511000000866B100202218315C82F83410315C3E
:1051200011B1401C1028F6D384F8438001E084F8C4
:105130003480382D00D33725E562E564C4F850800B
:10514000201D00F022FB04F1180000F01EFB24617A
:10515000C5F13800A0616462C4F8548084F85880B6
:105160005A465146484600F0C5FA2060002F00D04C
:105170003C60BDE8F09F000070B500240F4D04EBCB
:10518000840005EB800000F0F5FA641C382CF6D39F
:105190000B4800F0EFFA0B4800F0ECFA0A4800F078
:1051A000E9FA0A4800F0E6FA094800F0E3FA09488B
:1051B000034941631431816370BD0000F808002089
:1051C000580D00206C0D0020800D0020940D002053
:1051D000A80D0020D000002010B4144900E01146B2
:1051E0000A688242FBD34B6803EB010C844503D170
:1051F00040681844486008460C68D0F804C00CEBBE
:105200000003A3420CD10A4B1B689A4206D0526895
:10521000624442600A681268026002E0036000E0D3
:105220000260814200D0086010BC70473C01002041
:105230002401002010B5002441600061DFF838C06F
:1052400091420BD8D11A8269914201D3012410E016
:10525000011DDCF8100000F09BFA0AE09A4203D22C
:10526000994201D3012404E0011DDCF80C0000F098
:105270008FFA204610BD00000C01002010B5044636
:1052800000F0AEFAA06B20B1002400F0C9FA20466D
:1052900010BD0124F9E710B5044600F0A1FAA06B97
:1052A000E16B884201D1012400E0002400F0B8FA4B
:1052B000204610BDF8B505460E461748C068C068C0
:1052C000C468201D00F02CFA94F8280010F0040F98
:1052D00018D0A0692B46411932462046FFF7AAFF95
:1052E000A0B100200346014600902A46204601F066
:1052F0002BF958B9502080F31188BFF34F8FBFF3BB
:105300006F8FFEE720F0010084F82800216A01B0C9
:105310002046BDE8F04008470C01002030B587B0BA
:10532000414D002202A9286800F034FE002875D003
:105330000298002803DA039A059904989047029886
:10534000002864DB049C606910B1201D00F0E8F9BE
:1053500001A800F0B3F8024602980A2857D2DFE805
:1053600000F00505052F364D05052F3694F8280069
:1053700040F0010084F828000398A1690346014425
:105380002046FFF757FF002841D0216A2046884772
:1053900094F8280010F0040F39D0002000900398F2
:1053A000A169002342181946204601F0CDF870BBD0
:1053B000502080F31188BFF34F8FBFF36F8FFEE74C
:1053C00094F8280020F0010084F828001FE094F8E9
:1053D000280040F0010084F828000398A06128B15B
:1053E000811813462046FFF725FF10E0502080F378
:1053F0001188BFF34F8FBFF36F8FFEE794F828003B
:1054000010F0020F0CD020F0010084F828000022D8
:1054100002A9286800F0BEFD002889D107B030BD80
:10542000204600F013FAF2E70C010020F8B505461B
:105430000C4600F041FB684600F040F80646009834
:1054400010B100F0E7FFF8BD44B9B54206D800F04E
:10545000E1FF31462846FFF72DFFF8BD0C481CB18F
:105460000169096891B10024A91B2246006800F077
:105470006FFA00F0CFFF0028EFD106494FF08050BF
:105480000860BFF34F8FBFF36F8FF8BD0124EBE7C8
:105490000C01002004ED00E00749486B006800287B
:1054A00005D0486BC068C0684068886270474FF09C
:1054B000FF30886270470000D000002070B50446BD
:1054C00000F0C0FE0546074EB068854204D200F0E9
:1054D0000BF80120206001E000202060B560284624
:1054E00070BD00000C010020F8B51C4EF06800688B
:1054F000002826D00027F068C0680568C468201D11
:1055000000F00EF9216A2046884794F8280010F030
:10551000040F12D0A0692844A84206D96060246113
:10552000211DF06800F034F907E000232A461946EF
:105530002046009701F008F840B1F06800680028A4
:10554000D9D1F0683169F1603061F8BD502080F345
:105550001188BFF34F8FBFF36F8FFEE70C01002060
:105560000A484068B0F1FF3F07D0502080F311880F
:10557000BFF34F8FBFF36F8FFEE7502080F311888A
:10558000BFF34F8FBFF36F8FFEE700004401002091
:1055900082B001A8FFF746FD0199FFF747FFFFF72B
:1055A000BDFEF6E770B5044600F01AF994F94550CF
:1055B000002D0CDD606A50B104F1240000F0EEFE15
:1055C00008B100F0F3F9681E45B2002DF2DC4FF08F
:1055D000FF3684F8456000F023F900F001F994F9F2
:1055E0004450002D0CDD206950B104F1100000F092
:1055F000D5FE08B100F0DAF9681E45B2002DF2DCE4
:1056000084F84460BDE8704000F00AB92DE9F0412B
:105610000546002600F050FA344F386808B9FFF705
:1056200013FD7869054251D19DB1083515F0070F7A
:105630000FD005F00700C0F10800054415F0070F72
:1056400007D0502080F31188BFF34F8FBFF36F8FC7
:10565000FEE7002D3AD07868854237D824490846BD
:10566000046801E0214604466068A84202D220682E
:105670000028F7D13868844228D0086800F108066D
:10568000206808606068411B10290FD9601910F06C
:10569000070F07D0502080F31188BFF34F8FBFF35F
:1056A0006F8FFEE741606560FFF796FD616878687F
:1056B000401A7860BA68904200D2B86078690843AE
:1056C000606000202060F868401CF86000F0A2FED6
:1056D00016F0070F07D0502080F31188BFF34F8FCB
:1056E000BFF36F8FFEE73046BDE8F0812401002054
:1056F0003C010020001F4FF080730360001F21F069
:1057000001010160001F0549016014380260001F9B
:105710006FF00201016020387047000061550008F9
:105720000169436882689A60836842685A604A687F
:10573000824201D182684A60002202610868401EEC
:105740000860086870470000034B036003F15C00C9
:105750000860802010607047D40E0020044B036066
:1057600003F15C0008604FF4807010607047000027
:105770003011002000F1080141604FF0FF328260DB
:10578000C160016100210160704700210161704723
:1057900010B4D1F800C0BCF1FF3F02D000F1080204
:1057A00002E0026904E01A4653681C686445FAD9AD
:1057B00053684B6099608A60516008610168491CB8
:1057C000016010BC704742684A6093688B609368C0
:1057D0005960916008610168491C016070470000D0
:1057E000502080F31188BFF34F8FBFF36F8F0A49AA
:1057F0004868401C486001280CD10848006810F037
:10580000FF0F07D0502080F31188BFF34F8FBFF3F5
:105810006F8FFEE7704700004401002004ED00E0B8
:1058200009494868002806D0401E4860002801D178
:1058300080F311887047502080F31188BFF34F8F99
:10584000BFF36F8FFEE700004401002070B5002811
:105850002AD0A0F10804154D60686969084207D193
:10586000502080F31188BFF34F8FBFF36F8FFEE797
:1058700022683AB1502080F31188BFF34F8FBFF3F5
:105880006F8FFEE78843606000F016F96068696812
:10589000084468602046FFF79FFC2869401C286187
:1058A000BDE8704000F0B6BD70BD000024010020CE
:1058B0004FF0E02000210161816105494FF47A72C7
:1058C0000968B1FBF2F1491E41610721016170478E
:1058D0001000002010B5FAF723FD114910280ED34F
:1058E00000F1E02090F8F0030A78904207D25020AF
:1058F00080F31188BFF34F8FBFF36F8FFEE7094826
:105900000068896800F4E060884207D9502080F37D
:105910001188BFF34F8FBFF36F8FFEE710BD0000FC
:10592000440100200CED00E00022084B53F832C087
:10593000BCF1000F03D0521C082AF7D3704743F87C
:10594000321003EBC201486070470000B808002025
:1059500070B504460D461646FFF742FF94F9440021
:10596000B0F1FF3F4FF0000001D184F8440094F9FA
:105970004510B1F1FF3F01D184F84500FFF750FF1A
:10598000A06B28B93246294604F1240000F02EF815
:105990002046BDE87040FFF705BE000002490A6AD4
:1059A0000260C96841607047D000002001490120B1
:1059B000C8617047D000002010B50C4600280BD0FD
:1059C000094A126802F11801FFF7E2FE2046BDE81D
:1059D00010400121FFF7FAB9502080F31188BFF37E
:1059E0004F8FBFF36F8FFEE7D000002070B50D46DC
:1059F000144600280DD00B4909681831FFF7E3FE63
:105A00000CB14FF0FF3521462846BDE87040FFF746
:105A1000DDB9502080F31188BFF34F8FBFF36F8F34
:105A2000FEE70000D000002030B587B000250695C5
:105A3000059504AA05A906A8FFF786FE069805990C
:105A4000019102900023009517A11948049A00F0D3
:105A5000BBFB184CE06208B1012000E000200128E7
:105A600001D100F03DFD01280AD0B0F1FF3F19D16E
:105A7000502080F31188BFF34F8FBFF36F8FFEE785
:105A8000502080F31188BFF34F8FBFF36F8F4FF01B
:105A9000FF30A06201206061E56007B0BDE83040E2
:105AA00000F048B807B030BD49444C450000000044
:105AB00099500008D00000200248016B491C016386
:105AC00070470000D0000020184B186B002802D04F
:105AD0000120D86170470020D8611869144900EB93
