:020000040800F2
:10000000005A002029030008933500083731000802
:1000100091350008AD0D00083956000800000000B9
:10002000000000000000000000000000690200085D
:100030008118000800000000C5020008C94200083D
:100040004303000843030008430300084303000878
:100050004303000843030008430300084303000868
:100060004303000843030008430300084303000858
:100070004303000843030008430300084303000848
:100080004303000843030008430300084303000838
:100090004303000843030008430300084303000828
:1000A0004303000843030008430300084303000818
:1000B0008D4300084303000843030008430300087E
:1000C00043030008430300084303000843030008F8
:1000D00043030008430300084303000843030008E8
:1000E00043030008430300084303000843030008D8
:1000F0004303000899430008430300084303000832
:1001000043030008430300084303000843030008B7
:1001100043030008430300084303000843030008A7
:10012000C5170008D117000843030008430300085F
:100130004303000843030008430300084303000887
:100140004303000843030008430300084303000877
:100150004303000843030008430300084303000867
:100160004303000843030008430300084303000857
:100170004303000843030008430300080000000095
:10018000430300084303000800F002F800F05CF8A5
:100190000AA090E8000C82448344AAF10107DA45E2
:1001A00001D100F051F8AFF2090EBAE80F0013F0D8
:1001B000010F18BFFB1A43F00103184720960000F7
:1001C000409600000A444FF0000C10F8013B13F079
:1001D000070408BF10F8014B1D1108BF10F8015BA0
:1001E000641E05D010F8016B641E01F8016BF9D193
:1001F00013F0080F1EBF10F8014BAD1C0C1B09D1EA
:100200006D1E58BF01F801CBFAD505E014F8016B5B
:1002100001F8016B6D1EF9D59142D6D370470000ED
:100220000023002400250026103A28BF78C1FBD8FF
:10023000520728BF30C148BF0B6070471FB507F099
:10024000B8FA1FBD10B510BD00F0D0F91146FFF788
:10025000F5FF05F0B3FA00F0EEF903B4FFF7F2FF93
:1002600003BC00F0F5F900002C4B19680868B0E8F1
:10027000F04F80F30988BFF36F8F4FF0000080F3D9
:10028000118870470000000008480068006880F38B
:1002900008884FF0000080F3148862B661B6BFF39F
:1002A0004F8FBFF36F8F00DF00BF00BF08ED00E08E
:1002B000DFF80C00016841F470010160704700BF75
:1002C00088ED00E0EFF30980BFF36F8F134B1A68DE
:1002D0001EF0100F08BF20ED108A20E9F04F1060CB
:1002E00009B44FF0500080F31188BFF34F8FBFF374
:1002F0006F8F06F09DF94FF0000080F3118809BC64
:1003000019680868B0E8F04F1EF0100F08BFB0EC95
:10031000108A80F30988BFF36F8F7047DC000020DC
:10032000EFF30580704700000948804709480047FF
:10033000FEE7FEE7FEE7FEE7FEE7FEE7FEE7FEE795
:10034000FEE7FEE704480549054A064B70470000F2
:100350007D4300088901000800540020005A002055
:10036000005600200056002053EA020C00F069807D
:100370002DE9F04B4FF00006002B1FBFB3FA83F5B9
:1003800003FA05F424FA05F65E4012BF1643B2FAEA
:1003900082F502FA05F4C5F120051EBF22FA05FC1C
:1003A00044EA0C04203556EA044C4FEA144418BFC2
:1003B000641C4FF000084FF00009904271EB030CF1
:1003C00039D3002919BFB1FA81F701FA07F6B0FA5B
:1003D00080F700FA07F6C7F120071EBF20FA07FCD6
:1003E00046EA0C062037B6FBF4FCA7EB0507103FE6
:1003F00007F01F0BCBF120060CFA0BFB2CFA06F6CC
:1004000044BFB3460026202FA4BF5E464FF0000B2A
:100410005BEA060C08BF4FF0010B19EB0B09ABFBB5
:10042000027C48EB0608C01B06FB02CC0BFB03CC8E
:1004300071EB0C01C1E70B46024641464846BDE858
:10044000F08B13B54FF000004FF00001AFF30080C8
:10045000BDE81C407047032A40F2308010F0030CC6
:1004600000F0158011F8013BBCF1020F624498BF07
:1004700011F801CB00F8013B38BF11F8013BA2F1A4
:10048000040298BF00F801CB38BF00F8013B11F01F
:10049000030300F07980083AC0F0088051F8043B6B
:1004A000083A51F804CBA0E80810F5E7121D5CBF2C
:1004B00051F8043B40F8043BAFF30080D20724BF5F
:1004C00011F8013B11F801CB48BF11F8012B24BFF3
:1004D00000F8013B00F801CB48BF00F8012B704742
:1004E00002F0FF0343EA032242EA024200F002B8AC
:1004F0004FF000020429C0F0128010F0030C00F04D
:100500001B80CCF1040CBCF1020F18BF00F8012BCA
:10051000A8BF20F8022BA1EB0C0100F00DB85FEA98
:10052000C17C24BF00F8012B00F8012B48BF00F864
:10053000012B70474FF0000200B5134694469646D3
:10054000203922BFA0E80C50A0E80C50B1F12001E6
:10055000BFF4F7AF090728BFA0E80C5048BF0CC094
:100560005DF804EB890028BF40F8042B08BF7047F2
:1005700048BF20F8022B11F0804F18BF00F8012B64
:10058000704770477047704710B5203AC0F00B8035
:10059000B1E81850203AA0E81850B1E81850A0E887
:1005A0001850BFF4F5AF5FEA027C24BFB1E81850E1
:1005B000A0E8185044BF18C918C0BDE810405FEA51
:1005C000827C24BF51F8043B40F8043B08BF7047CD
:1005D000D20728BF31F8023B48BF11F8012B28BFD2
:1005E00020F8023B48BF00F8012B7047754600F029
:1005F0002BF8AE4605006946534620F007008546B5
:1006000018B020B5FFF79EFEBDE820404FF0000671
:100610004FF000074FF000084FF0000B21F00701EA
:10062000AC46ACE8C009ACE8C009ACE8C009ACE82D
:10063000C0098D46704710B50446AFF300802046D0
:10064000BDE81040FFF709BE00487047A0530020E6
:1006500001491820ABBEFEE726000200704710B526
:1006600000F006F800F03AF8BDE8104000F06CB871
:10067000124810B50088124C00EE100AB8EE400A7D
:1006800010EE100A07F024F89FED0E1B53EC112B0F
:1006900006F036FE06F046FD07F01AF89FED0B1B3C
:1006A00053EC112B06F02CFE9FED0A1B53EC112B83
:1006B00006F024FF06F036FD206010BD5C0100202E
:1006C00028520020011D41857E01483F9886E12384
:1006D00062723B40BDE3141DC9954440124810B5F9
:1006E0008088124C00EE100AB8EE400A10EE100A94
:1006F00006F0EEFF9FED0E1B53EC112B06F000FEF3
:1007000006F010FD06F0E4FF9FED0B1B53EC112BE0
:1007100006F0F6FD9FED0A1B53EC112B06F0EEFEE2
:1007200006F000FDA06010BD6401002038520020DA
:10073000011D41857E01483F9A081B9E5E290040AD
:10074000E78C28ED0D3E084010B52748284C2DEDCC
:10075000028B016825489FED278B808841B30129D2
:1007600023D100EE100AB8EE400A10EE100A06F08F
:10077000AFFF53EC182B06F0C3FD06F0D3FC06F0D8
:10078000A7FF9FED1E1B53EC112B06F0B9FD41ECAA
:10079000100B9FED1C1B00BF53EC112B51EC100BE9
:1007A00006F0ACFE06F0BEFCA060BDEC028B10BDF6
:1007B00000EE100AB8EE400A10EE100A06F088FFAC
:1007C00053EC182B06F09CFD06F0ACFC06F080FF05
:1007D0009FED0E1B53EC112B06F092FD41EC100B1C
:1007E0009FED0C1BD8E700002800002064010020CA
:1007F00038520020011D41857E01483F9A081B9E0A
:100800005E290040E78C28ED0D3E08409886E123E4
:1008100062723B40BDE3141DC995444010B50146CA
:10082000806B026C12F0500F05D0026CD20626D5F8
:1008300001F0F1F810BD016C41F400710164016830
:100840008A6812F0405F17D1027EAAB9CA6A12F410
:10085000700F02D08A6852050ED44A6822F0200236
:100860004A60016C21F480710164016CC90403D4F5
:10087000016C41F00101016401F0ACF810BD806B26
:10088000C26CBDE810400846104710B5806B40218F
:100890000164416C41F00401416401F0BCF810BDF9
:1008A00010B5806B01F0B6F810BD0000464910B5D8
:1008B0004A6822F440324A604A6843681A434A60F0
:1008C00001684A6822F480724A6001684A680369D4
:1008D00042EA03224A6001684A6822F040724A6094
:1008E00001684A6883681A434A6001688A6822F48A
:1008F00000628A6001688A68C3681A438A60816AF4
:100900006FF07062D14201688A6822F070628A607A
:1009100001688A680CD0836A1A438A6001688A6811
:1009200022F040528A6001688A68C36A1A4301E073
:1009300022F040528A6001688A6822F002028A60CE
:1009400001688A68037E42EA43028A6090F82010B8
:10095000002901684A680FD042F400624A600168C9
:100960004A6822F460424A6001684A68174C436A48
:1009700004EB43331A4301E022F400624A60016849
:10098000CA6A22F47002CA620168CA6A838B104C78
:1009900004EB03531A43CA6201688A6822F40072A6
:1009A0008A6001688A6890F8303042EA43228A609F
:1009B00001688A6822F480628A6001688A684069F6
:1009C00042EA8020886010BD0023014000E0FFFF64
:1009D0000000F0FF044AA2F11C004168505C0028AE
:1009E00001D0401E5054704730000020044AA2F14C
:1009F00022004168505C052801D0401C50547047CB
:100A000036000020264842681C30811D062A12D27A
:100A1000DFE802F003121F2C353E007800EB800265
:100A2000204800EB8202087852F82010092902D0F1
:100A3000491C42F8201070474078497800EB80024A
:100A400018483C3000EB82020BE0401C42F82100C9
:100A500070478078897800EB80021248783000EB8C
:100A6000820252F821000928EFD17047C078C97876
:100A700000EB80020B48B43000EB8202F1E7007912
:100A8000097900EB80020748F03000EB8202E8E7CA
:100A90004079497900EB8002034800EB8202E0E7ED
:100AA00014000020EC0300201805002003484168D2
:100AB000052901D0491C4160704700001400002046
:100AC000044AA2F11C004168505C022801D0401C7D
:100AD0005054704730000020044AA2F122004168BF
:100AE000505C002801D0401E505470473600002052
:100AF000264842681C30811D062A12D2DFE802F027
:100B000003121F2C353E007800EB8002204800EBDA
:100B10008202087852F82010002902D0491E42F8BB
:100B2000201070474078497800EB800218483C302C
:100B300000EB82020BE0401E42F8210070478078F3
:100B4000897800EB80021248783000EB820252F87C
:100B500021000028EFD17047C078C97800EB8002EF
:100B60000B48B43000EB8202F1E70079097900EB21
:100B700080020748F03000EB8202E8E740794979CB
:100B800000EB8002034800EB8202E0E71400002043
:100B9000EC0300201805002003484168002901D01B
:100BA000491E41607047000014000020034881681E
:100BB000032901D0491C8160704700001400002007
:100BC0000348C168042901D0491CC1607047000076
:100BD000140000200548A0F1A801C96850F82120A0
:100BE000092A02D0521C40F821207047BC00002086
:100BF00003480169022901D0491C016170470000C6
:100C00001400002003488168002901D0491E81603A
:100C100070470000140000200348C168002901D07B
:100C2000491EC16070470000140000200548A0F173
:100C3000A801C96850F82120002A02D0521E40F8AD
:100C400021207047BC00002003480169022901D01F
:100C5000491E016170470000140000200548A0F102
:100C6000BC01096950F82120092A02D0521C40F821
:100C700021207047D000002003484169012901D09C
:100C8000491C41617047000014000020034881693D
:100C9000012901D0491C8161704700001400002027
:100CA0001023002101A2084602F0E8BD4252315F44
:100CB000424334000548A0F1BC01096950F82120E5
:100CC000002A02D0521E40F821207047D000002098
:100CD00003484169002901D0491E41617047000065
:100CE0001400002003488169002901D0491E816158
:100CF00070470000140000201023002101A20846C4
:100D000002F0BCBD4252325F424334001023002146
:100D100001A2084602F0B2BD4252335F42433100A5
:100D20001023002101A2084602F0A8BD4252335F01
:100D3000424332001023002101A2084602F09EBD6A
:100D40004252335F424333001023002101A2084680
:100D500002F094BD4252335F42433400102300211D
:100D600001A2084602F08ABD4252345F424331007C
:100D70001023002101A2084602F080BD4252345FD8
:100D8000424332001023002101A2084602F076BD42
:100D90004252345F424333001023002101A208462F
:100DA00002F06CBD4252345F42433400FEE7000063
:100DB0002DE9F05F9E48DFF87C92A04F40F25C5630
:100DC0002DED068B01689C489FED9D9BF7EE008AF8
:100DD0009FED9DABDFF878A29E4D9F4C90ED020AEF
:100DE000A7F12408B2EE048A002964D09B49834607
:100DF0003846096800297DD003F0C2F994ED000A55
:100E0000B8EEC00A10EE100A06F062FC53EC192B83
:100E100006F076FA06F086F900EE100AD7ED110A10
:100E200030EE800A84ED010AD4ED030A30EEA81AF0
:100E3000C8EE810AC4ED040A94ED021A60EE810A3C
:100E4000C4ED050A04F074FCD4ED050A20EE200A76
:100E500010EE100A06F03CFC53EC1A2B06F050FA88
:100E600006F060F900EE100A84ED060ADBED000AD8
:100E700070EE600AC4ED070A98ED010A98ED031AB6
:100E8000D8ED001A98ED042A20EE010A01EEA00A1E
:100E9000D8ED021A01EE820AD8ED051A88ED041A7F
:100EA000C8ED030A30EE210A88ED050A84ED080A30
:100EB00020EE080A61E08346604803F061F994ED92
:100EC000000AB8EEC00A10EE100A06F001FC53EC5E
:100ED000192B06F015FA06F025F900EE100AD7EDE9
:100EE000110A30EE800A84ED010AD4ED030A70EE97
:100EF000A81A00E04BE080EEA11A84ED041AD4EDAC
:100F0000020A61EE200AC4ED050A04F011FCD4EDDA
:100F1000050A20EE200A10EE100A06F0D9FB53EC69
:100F20001A2B06F0EDF906F0FDF800EE100A84ED3C
:100F3000060ADBED000A30EE600A84ED070AD8ED00
:100F4000010A98ED031AD8ED001A98ED042A60EE14
:100F5000810A41EE800AD8ED021A41EE820AD8EDEC
:100F6000051A88ED041A88ED030A70EEA10AC8ED8F
:100F7000050A20EE880AC4ED080A10EE100A504552
:100F800003DC10EE100A484540DA6E6343E003F0DC
:100F9000F7F894ED000AB8EEC00A10EE100A06F059
:100FA00097FB53EC192B06F0ABF906F0BBF800EEFB
:100FB000100AD7ED110A30EE800A84ED010AD4ED53
:100FC000030A30EEA81AC0EE811AC4ED041AD4ED5B
:100FD000020AC4ED050A04F0ABFBD4ED050A20EECD
:100FE000200A10EE100A06F073FB53EC1A2B06F0E1
:100FF00087F906F097F800EE100A84ED060ADBED9B
:10100000000A30EE600ADBED020A31E7BCEEC00AEE
:1010100010EE100A68632068A0F580718F3905D042
:10102000401C2060BDEC068BBDE8F09F0020F8E777
:10103000280000200000E04138520020B452002077
:10104000981826AEBE15903F39B4C876BE9FF63FBD
:101050000080AB4400000140880100202C000020EB
:1010600010B54B4C94ED000AB8EEC00A10EE100A11
:1010700006F02EFB9FED471B53EC112B06F040F9B9
:1010800006F050F800EE100A84ED020A04F050FB5E
:10109000F3EE080A20EE200A10EE100A06F018FB04
:1010A0009FED3E1B53EC112B06F02AF906F03AF89F
:1010B00000EE100A3B4884ED010A3D4AD0ED000ADB
:1010C000394830EE600A84ED030AD0ED010A90ED54
:1010D000031AD0ED001A90ED042A60EE810A41EE69
:1010E000800AD0ED021A41EE820AD0ED051A80ED99
:1010F000041A80ED030A70EEA10AC0ED050A2B4820
:10110000C4ED040A90ED000A274870EEC00A2430AE
:10111000C4ED050A90ED010A90ED031AD0ED001A16
:1011200090ED042A20EE010A01EEA00AD0ED021A89
:1011300001EE820AD0ED051A80ED041AC0ED030A13
:10114000F2EE040A30EE210A80ED050A84ED060A6B
:1011500020EE200A174810EE101A914202DD40F2EC
:101160005C510AE010EE101A134A914201DA1C2178
:1011700003E0BCEEC00A10EE101A41632068A0F52F
:1011800080718F3902D0401C206010BD0020FBE729
:101190006C010020981826AEBE15903F39B4C87671
:1011A000BE9FF63F285200204852002038520020AF
:1011B0000080AB44000001400000E04110B5394C14
:1011C00094ED000AB8EEC00A10EE100A06F080FA9C
:1011D0009FED351B53EC112B06F092F805F0A2FFA2
:1011E00000EE100A84ED010A04F0A2FAF3EE080AF8
:1011F00020EE200A10EE100A06F06AFA9FED2C1B72
:1012000053EC112B06F07CF805F08CFF00EE100A71
:10121000294884ED020A2A4AD0ED000A274830EE18
:10122000600A84ED030AD0ED010A90ED031AD0EDB7
:10123000001A90ED042A60EE810A41EE800AD0ED9A
:10124000021A41EE820AD0ED051A80ED041A80EDF3
:10125000030AB2EE040A70EEA10AC0ED050A20EE00
:10126000800A1848C4ED040A10EE101A914202DDFB
:1012700040F25C510AE010EE101A134A914201DA72
:101280001C2103E0BCEEC00A10EE101A4163206876
:10129000A0F580718F3902D0401C206010BD002065
:1012A000FBE70000B0010020981826AEBE15903F65
:1012B00039B4C876BE9FF63F285200207C530020E8
:1012C0000080AB44000001400000E04110B51C4824
:1012D0009FED1C0A01212DED028BB7EE008A80EDF7
:1012E000068A80ED070A80ED080A04F005FA144822
:1012F000243002F019FF1248FBEE041AB3EE041A70
:10130000DFED110A9FED110A243002F0F3FE1048C0
:10131000B1EE000A9FED0F2A80ED020A80ED038AEC
:101320000748F6EE001ABDEC028BB7EE000ABDE8E6
:1013300010409FED091ADFED090AA83002F06ABBE0
:10134000905200200000000000409C4600004842EF
:101350008801002063149D4317B751380000C6422E
:1013600038B51025009504460268012311214A2052
:1013700002F048FA0120009010232E221121512062
:1013800002F0E6F90095012311215820626802F06D
:1013900039FA0095012311215F20A26802F032FA88
:1013A0000095012311216620E26802F02BFA0095D6
:1013B000012311216D20226902F024FA38BD0000BA
:1013C00010B511489FED0F0A01212DED028B9FED05
:1013D0000F8A80ED060A80ED078A80ED088A04F006
:1013E0008BF90948B7EE000A2430012180ED060A86
:1013F00080ED078A80ED088ABDEC028BBDE81040C5
:1014000004F07AB985EB913F4852002000000000BB
:1014100038B5854801244FF0100300680094C8B126
:1014200042222F215F2002F093F980484FF01003F1
:101430000068009480B131222F216E2002F088F9DB
:101440007B48006850B1012831D002285AD00328C7
:101450004FD17EE04122E4E73022EDE71023532212
:1014600000214620009402F073F910236922002124
:101470004D20009402F06CF910236E2200215420BC
:10148000009402F065F91023672200215B2000948C
:1014900002F05EF910236C2200216120009402F01A
:1014A00057F9102365220021682000941FE01023C3
:1014B000442200214620009402F04AF910236F22B2
:1014C00000214D20009402F043F9102375220021E1
:1014D0005420009402F03CF91023622200215B208A
:1014E000009402F035F910236C22009429E002F0F8
:1014F0002FF950480068062867D2DFE800F0535CF7
:101500007079828B1023562200214620009402F02D
:101510001FF910236F2200214D20009402F018F9CA
:101520001023742200215420009402F011F910239A
:10153000612200215B20009402F00AF91023672247
:1015400000940021652002F003F910236522009425
:1015500025E01023502200214620009402F0F8F8E4
:101560001023522200214D20009402F0F1F81023A4
:10157000432200215420009402F0EAF81023742240
:1015800000215B20009402F0E3F810237222002176
:101590006520009402F0DCF810236C2200940021F6
:1015A0006B20A4E71023312200211920009402F0BF
:1015B000CFF8214807E0102332220021192000949F
:1015C00002F0C6F81D4802F0A9F91D48FFF7C8FE51
:1015D0001C4802F07CFABDE8384002F093B81023B2
:1015E000332200211920009402F0B2F81648EAE7ED
:1015F0001023342200211920009402F0A9F8134886
:10160000E1E71023352200211920009402F0A0F810
:101610000F48D8E71023362200211920009402F049
:1016200097F80C48CFE70000280000202C0000208D
:101630001C00002018000020EC03002028040020DB
:10164000BC000020D000002064040020A004002082
:10165000DC0400201805002038B5012400211023E7
:1016600050220846009402F073F81023492200210A
:101670000720009402F06CF81023442200210E2071
:10168000009402F065F810234D22002128200094D8
:1016900002F05EF810234F2200212F20009402F068
:1016A00057F81023442200213620009402F050F80D
:1016B0001023452200213D20009402F049F8102318
:1016C0004B2211210020009402F042F810237022D6
:1016D00011210820009402F03BF810234B22202116
:1016E0000020009402F034F8102369222021082001
:1016F000009402F02DF810234B222F21002000949B
:1017000002F026F8102364222F210820009402F012
:101710001FF81023492211213C20009402F018F8F0
:101720001023722211214320009402F011F810239B
:10173000522220213C20009402F00AF8102361225A
:1017400020214320009402F003F81023742220216A
:101750004A20009401F0FCFF10236F222021512029
:10176000009401F0F5FF102343222F213C20009428
:1017700001F0EEFF102368222F214320009401F096
:10178000E7FF102369222F214A20009401F0E0FF97
:10179000102370222F215120009401F0D9FF102333
:1017A0002E222F215820009401F0D2FF10232E2248
:1017B0002F216820009401F0CBFFBDE8384001F0F4
:1017C000A1BF0000014800F0A1BA000054020020AF
:1017D000014800F09BBA0000B40200200168182301
:1017E000CAB2103AB2FBF3F2054B6FF30901032AB8
:1017F0009B5CC36500D9091D8165084670470000E0
:10180000EC77000810B5014600208B698A6A4FF01A
:10181000C07453B1B3F5005F15D072B1012A0CD07A
:10182000022A0AD0032A09D104E01AB1012A06D0FB
:10183000022A03D1C96AC90100D5012010BDC96AB5
:10184000A142FAD010BD002AF7D0012AF2D0022A14
:10185000F3D0032AF3D010BD30B50468256825F411
:1018600080252560046863608368402B036803D08B
:1018700099600068C26030BD9A600068C16030BD88
:10188000704772B6FEE7000078B50024009490F827
:101890003C20012A19D0012280F83C200A68072345
:1018A0000568092A13D9EE680A3A02EB420293400E
:1018B0009E43EE600B788A680A3B03EB43039A4031
:1018C0000368DD682A43DA6010E0022078BD2E69E3
:1018D00002EB420293409E432E610B788A6803EB31
:1018E00043039A4003681D692A431A614A681F230B
:1018F000072A13D205686E6B521E02EB82029340D8
:101900009E436E630B790A885B1E92B203EB8303DE
:101910009A4003685D6B2A435A6327E005680D2AE5
:1019200012D22E6BD21F02EB820293409E432E6393
:101930000B790A88DB1F92B203EB83039A4003689A
:101940001D6B2A431A6311E0EE6A0D3A02EB820224
:1019500093409E43EE620B790A880D3B92B203EBF3
:1019600083039A400368DD6A2A43DA62164B0568EE
:10197000144A9D4206D10D68122D03D1556845F4D5
:101980008005556005689D4218D10B68102B01D069
:10199000112B13D1536843F40003536009681029D5
:1019A0000CD10A490A4A0968B1FBF2F101EB810145
:1019B000490000E0491E00910029FBD180F83C401D
:1019C000002078BD002301400020014010000020CD
:1019D00040420F0010B500680C49884214D1FEF750
:1019E0003EFE0B48006838B1012809D002280BD10F
:1019F000BDE81040FFF7E2BBBDE81040FFF730BB89
:101A0000BDE81040FFF7D4B910BD0000002201402E
:101A10001C0000207047704770B504004FF00005AF
:101A200003D0206C002610B107E0012070BD2046D5
:101A300000F01CF8666484F83C60206CC00610D48A
:101A4000206C20F4885040F0020020642046FEF70D
:101A50002DFF6664206C20F0020040F0010020643D
:101A600000E0012584F83C60284670BD2DE9F04F68
:101A700087B0054614216846FEF75CFD4848DFF84C
:101A80001CC12B6800244649143806270326454A02
:101A90004FF480684FF400694FF4005A4FF4807B94
:101AA000634538D10B6843F480730B60096801F417
:101AB00080710591016841F004010160016801F045
:101AC00004010591016841F001010160006800977F
:101AD00000F001000590CDE901646946104600F070
:101AE00099FA4820CDE90006694602942E4800F094
:101AF00091FA2F4E2D4806F10C03C6E90004B4609C
:101B000083E8100F3462304674623FE0AE63B56321
:101B100007B0BDE8F08FDFF89CC06345F8D10B68D3
:101B200043F480630B60096801F4806105910168EA
:101B300041F004010160016801F0040105910168B0
:101B400041F0010101600068694600F00100059064
:101B50000920CDE900060294104600F05BFA0097D8
:101B6000CDE901646946104800F054FA104E0F4860
:101B70006036183030604FF08060C6E9010406F12D
:101B80000C03304683E8100F3462746200F08EF963
:101B90000028BBD0FFF775FEB8E700000020014029
:101BA0004438024000080240000002401064024035
:101BB0005402002000220140F8B5044600200E46E1
:101BC000009094F83C10012907D0012184F83C10C2
:101BD00021688B68DB0702D011E00220F8BD8B681A
:101BE00043F001038B604049404B0968B1FBF3F1BE
:101BF00001EB410100E0491E00910029FBD1216861
:101C00008B68DB0503D58B6823F480738B602168B8
:101C10008B68DB075DD0236C40F20165AB4343F476
:101C2000807323644968490505D5216C21F400516E
:101C300041F480512164216CC90404D5616C21F008
:101C40000601616400E0606484F83C00A16B2948EF
:101C5000274DC863A16B28480864A16B2748C86456
:101C600021686FF0220008602068416841F08061BF
:101C700041602068816841F4807181602168134669
:101C800032464C31A06B00F07BF968681C49C006F5
:101C9000206806D0884224D1816811F0405F13D0BB
:101CA0001FE08842F8D0174A904203D1D1F80423AC
:101CB000D206F1D0144A904213D1D1F8041301F0A6
:101CC0001F011029E8D30CE0816841F08041816058
:101CD00007E0206C40F010002064606C40F00100D0
:101CE00060640020F8BD00001000002040420F009A
:101CF000002301401D080008A10800088B08000807
:101D00000020014000210140002201402DE9F8435C
:101D100004464FF00009CDF8009063484FF4165187
:101D2000A56D0068B0FBF1F72E6894F85C100820F0
:101D300000FA01F131420FD021680A6852070BD531
:101D40000A6822F004020A6094F85C108840A860D7
:101D5000606D40F00100606594F85C104FF0010880
:101D600008FA01F0304208D021684969090604D513
:101D7000A860606D40F00200606594F85C1004207B
:101D80008840304208D021680968890704D5A860D6
:101D9000606D40F00400606594F85C10102088408D
:101DA000304218D021680968090714D5A860206856
:101DB0000168490304D50068000308D5A16C07E059
:101DC0000168C90503D4016821F008010160216C94
:101DD00009B12046884794F85C10202088403042A2
:101DE00031D021680968C9062DD5A86094F835005E
:101DF00005282068016806D0490347D5006800031C
:101E00001DD4616C1CE021F016010160206841695D
:101E100021F080014161206C08B9A06C20B12068DC
:101E2000016821F00801016094F85C103F208840AF
:101E3000A86084F8358084F83490216D1FE0E16B50
:101E400009B120468847606D00282BD0606DC0071F
:101E500014D0052084F835002068016821F00101C4
:101E600001600098401C0090B84203D820680068C8
:101E7000C007F6D184F8358084F83490E16C0029ED
:101E800010D001B02046BDE8F04308470168C905FD
:101E9000D5D4016821F01001016084F8358084F800
:101EA0003490CCE7BDE8F883100000202DE9F04124
:101EB000044600F0B1F906465CB1022084F8350012
:101EC000002584F834502068016821F00101016088
:101ED0000DE00120BDE8F08100F09EF9801B05288F
:101EE00005D920206065032084F83500F2E72068DA
:101EF0000068C007F0D12268116820480140D4E989
:101F000001031843D4E90336334318436369184384
:101F1000A3691843E3691843236A18430843616AB5
:101F2000042903D1D4E90B13194308431060206836
:101F30004069666A20F0070130460E4301270428F5
:101F40000CD1A06A0643E06A40B12046FFF75AFC74
:101F500020B14020606584F83570BAE7206846619A
:101F60002046FFF73BFC94F85C203F2191408160C4
:101F7000656584F835700020ACE700003F8010F004
:101F80002DE9F0410446866D90F8340000250128C3
:101F90000DD0012084F8340094F835700020012F12
:101FA00007D084F8340002252846BDE8F0810220DD
:101FB000FBE7022784F8357060652046FFF74CFC8C
:101FC00094F85C103F208840B0602068016841F0C0
:101FD00016010160206C20B12068016841F0080101
:101FE00001602068016841F001010160DCE7000048
:101FF00070B5044600F010F90546601C02D0044894
:102000000078044400F008F9401BA042FAD370BDE8
:10201000040000202DE9F84FDFF8BCA100220125C3
:1020200003264FF00F090AF1040BAAF1040E00BFBA
:102030000B6805FA02F42340A34270D10F7907F030
:102040000307012F01D0022F16D187684FEA4208FB
:1020500006FA08FC27EA0C07D1F80CC00CFA08FCB9
:102060004CEA070CC0F808C04768A7430C79C4F3D2
:10207000001494403C4344600C79E443A4070AD024
:10208000C4684FEA420C06FA0CF7BC438F6807FAA3
:102090000CF72743C7600C7904F00304022C12D11B
:1020A000D40800EB840CDCF820405707FF0E09FA37
:1020B00007F824EA0804D1F8108008FA07F848EA7B
:1020C0000408CCF8208004684FEA420C06FA0CF7AA
:1020D000BC430F7907F0030707FA0CF727430760A3
:1020E0004C6814F4403F70D03C4C276847F480475C
:1020F0002760246822F0030704F480440094384CDD
:1021000007EB040CDCF8084897074FEA177809FA40
:1021100008F7BC43334FB84202D1002724E054E013
:10212000314FB84201D101271EE0304FB84201D1F2
:10213000022719E02E4FB84201D1032714E02D4F9A
:10214000B84201D104270FE02B4FB84201D1052737
:102150000AE02A4FB84201D1062705E0284FB842CD
:1021600001D1072700E0082707FA08F72743CCF832
:102170000878DAF800405746D1F804C09C435FEA7B
:10218000CC2C00D51C433C60DBF800405F46D1F806
:1021900004C09C435FEA8C2C00D51C433C60DEF8F5
:1021A00000407746D1F804C09C435FEA8C3C00D5E0
:1021B0001C433C60084F083F3C68D1F804C09C4376
:1021C0005FEACC3C00D51C433C60521C102AFFF453
:1021D0002FAFBDE8F88F0000083C014044380240B2
:1021E00000300140000002400004024000080240AC
:1021F000000C02400010024000140240001802408F
:10220000001C02400069084000D0012070470AB15C
:10221000816170470904FBE701488068704700004E
:1022200004000020024881680278114481607047F0
:10223000040000200B4810B5016841F400710160F2
:10224000016841F480610160016841F480710160BE
:10225000032000F09FF80F2000F006F800F050F87F
:10226000002010BD003C024030B505461F4887B035
:102270000024016841F480710160006806A900F43F
:102280008070009001A800F031F90498A8B100F026
:102290004DF940001649174AB0FBF1F11648491EA6
:1022A000026040F2E732C0E90324C0E9011484610E
:1022B00000F008FC040003D015E000F037F9E9E76E
:1022C0000D4800F093FC04000DD12D2000F034F8EF
:1022D000102D07D2002229462D2000F03BF8074898
:1022E000056000E0012407B0204630BD40380240C0
:1022F00040420F0000200040A403002008000020FE
:102300000C4882B0016841F480410160006800F42B
:10231000804000900748001F016841F08051016033
:102320000068002200F0805000900F21901E02B043
:1023300000F010B844380240002809DB00F01F020A
:10234000012191404009800000F1E020C0F8001117
:1023500070470000F0B40E4B1B680C46C3F3022319
:10236000C3F10705042D00D90425191D072901D241
:10237000002300E0DB1E012606FA05F1491E21407C
:1023800099409E40761E16403143F0BC03F068B978
:102390000CED00E0064900F0070208684FF6FF0365
:1023A000184040EA0220034A1043086070470000CA
:1023B0000CED00E00000FA052DE9F0470E4605009F
:1023C00065D0DFF81481D8F80000F7B200F00700FC
:1023D000B04207D288F80070D8F8000000F007007B
:1023E000B04254D128683D4C810712D5400703D52F
:1023F000206840F4E05020602878000703D520686A
:1024000040F4604020602068A96820F0F000084394
:1024100020602878C0072DD0304968680839012825
:1024200012D0022813D0032811D009688907002987
:102430002DDA216821F0030101432160FFF7ECFE52
:10244000814641F2883A0EE009688903EFE709689E
:102450008901ECE7FFF7E0FEA0EB0901514502D945
:102460000320BDE8F0872068696800F00C00B0EB3D
:10247000810FEFD1D8F80010404601F00701B142BA
:1024800007D90770006800F00700B04201D00120B2
:10249000E7E72878400705D52068E96820F4E05090
:1024A000084320602878000706D52068296920F4B1
:1024B000604040EAC100206000F048F82168084A06
:1024C000C1F30311515CC840064908600648006822
:1024D000FFF7CAFE0020C4E7003C02400838024073
:1024E000F477000810000020080000200F2202608E
:1024F0000C4A136803F003034360136803F0F0030E
:102500008360136803F4E053C36012684FF4E05330
:1025100003EAD20202610448006800F00700086084
:102520007047000008380240003C0240044805495A
:1025300000680968044AC1F38221515CC8407047B1
:10254000100000200838024004780008154810B533
:10255000006810F00C02144813D01449042A0FD05C
:10256000082A0ED10F4C241F2268236802F03F0274
:102570005B0207D52068C0F38810A0FB010106E0CC
:10258000084610BD2168C1F38811A1FB000100239A
:10259000FDF7EAFE2168C1F30141491C4900B0FB87
:1025A000F1F010BD083802400024F40040787D01AD
:1025B0002DE9F84F04006ED02078DFF84C93C00767
:1025C000A9F104054AD009F104000168C1F38101B1
:1025D000012908D00068C0F3810002280AD1D9F887
:1025E0000000400206D52868800337D560680028BF
:1025F000E1D033E06068B0F5803F10D0B0F5A02F97
:10260000286810D020F480302860286820F48020CA
:1026100028606068A8B1FFF7FFFD06460DE0286856
:1026200040F48030F4E740F480202860F7E700BFF2
:10263000FFF7F2FD801B642873D828688003F7D564
:102640000CE0FFF7E9FD064605E000BFFFF7E4FDFB
:10265000801B6428F0D828688003F7D42078DFF83E
:10266000AC8280074FF0000A3ED5A748001D0168E4
:1026700011F00C0F08D00068C0F3810002280BD1C4
:10268000D9F80000400207D42868800716D5E06812
:10269000012800D112E033E1E068B8B10120C8F8A8
:1026A0000000FFF7B9FD064605E000BFFFF7B4FDE7
:1026B000801B0228C0D828688007F7D528682169C0
:1026C00020F0F80040EAC10028600DE0C8F800A042
:1026D000FFF7A2FD064604E0FFF79EFD801B0228DF
:1026E0001FD828688007F7D42078000722D5864FA6
:1026F00087486169703771B101210160FFF78CFD76
:10270000064604E0FFF788FD801B022809D83868D8
:102710008007F7D50EE0C0F800A0FFF77DFD064664
:1027200005E082E0FFF778FD801B02287DD838683D
:102730008007F7D42078400768D5DFF8CCB10027B0
:102740000BF13C0BDBF80000C0000BD4DBF80010F1
:1027500041F08051CBF80010DBF80000012700F0B9
:10276000805000906B4E3068C00510D4306840F443
:1027700080703060FFF750FD009005E0FFF74CFDE2
:102780000099401A022850D83068C005F6D55E4E30
:10279000A0686C3601280FD00528306810D020F0D2
:1027A00001003060306820F004003060A068B8B1EB
:1027B000FFF732FD00900FE0306840F00100F4E7D1
:1027C00040F004003060F7E7FFF726FD0099411A5A
:1027D00041F28830814266D830688007F4D50EE037
:1027E000FFF71AFD009007E0FFF716FD0099411A68
:1027F00041F28830814256D830688007F4D42FB136
:10280000DBF8001021F08051CBF80010A069C8B3AC
:102810003D49091D0968C1F3810102294AD00228F6
:10282000504607D0C8F8600000E03CE0FFF7F4FC39
:1028300004463BE04746C8F86000FFF7EDFC06465B
:1028400005E000BFFFF7E8FC801B02282BD82868B2
:102850008001F7D4D4E907010843A16A2E4A490848
:1028600002EB0141626A41EA8211084394F82C109C
:1028700040EA0161C9F8001001203866FFF7CCFC7E
:10288000044606E03EE000BFFFF7C6FC001B02283E
:1028900009D828688001F7D534E000BFFFF7BCFCF9
:1028A000001B022802D90320BDE8F88F28688001A8
:1028B000F4D427E00128F7D0D9F80000E26900F449
:1028C000800191421CD1226A00F03F01914217D150
:1028D00047F6C071626A0140B1EB821F10D1A26A53
:1028E0004FF0FF3300F4403103EB5202B1EB024FE3
:1028F00006D194F82C1000F07060B0EB016F01D09D
:102900000120D1E70020CFE7043802400000474211
:10291000800E4742007000400000FFFF7047704784
:1029200010B590F83C20012A22D0012280F83C20EA
:10293000CA688C6822F4407222434C6822F4806298
:1029400022430C6822F4006222430C6922F4805274
:1029500022434C6922F400522243C969002322F425
:1029600080420A4301684A6480F83C30002010BD70
:10297000022010BD70B590F83C20012A32D001240D
:1029800080F83C40022280F83D2003685A689D6828
:1029900022F070060A6832435A60134B02689A426A
:1029A00014D0B2F1804F11D0104B9A420ED0104B80
:1029B0009A420BD00F4B9A4208D00F4B9A4205D047
:1029C0000E4B9A4202D00E4B9A4204D1496825F030
:1029D00080031943916080F83D40002180F83C104D
:1029E000084670BD022070BD000001400004004098
:1029F00000080040000C004000040140004001407D
:102A00000018004010B50446022249B104290ED036
:102A1000082913D094F84500012816D0012010BDD4
:102A200094F842000128F9D184F842200FE094F88C
:102A300043000128F2D184F8432008E094F84400D0
:102A40000128EBD184F8442001E084F845200422D9
:102A5000206801F018FD2068416C41F40041416498
:102A600011492068884214D0B0F1804F11D00F492D
:102A700088420ED00E4988420BD00E49884208D0B9
:102A80000D49884205D00D49884202D00C49884240
:102A900004D1816801F00701062903D0016841F0E3
:102AA00001010160002010BD000001400004004051
:102AB00000080040000C00400004014000400140BC
:102AC0000018004010B5040003D094F83D0010B188
:102AD00007E0012010BD002084F83C00204600F0F3
:102AE0001FF8022084F83D00211D206801F05AFCE7
:102AF000012084F8460084F83E0084F83F0084F802
:102B0000400084F8410084F8420084F8430084F8CF
:102B1000440084F8450084F83D00002010BD00000A
:102B200008B500681149884209D11148016841F08F
:102B300001010160006800F00100009008BDB0F1E3
:102B4000804FFBD10A48001F016841F0010101607C
:102B50000068002200F00100009005211C20FFF712
:102B6000F9FBBDE808401C20FFF7E6BB0000014070
:102B70004438024090F83D10012901D001207047EF
:102B8000022180F83D1000681149884214D0B0F14C
:102B9000804F11D00F4988420ED00F4988420BD088
:102BA0000E49884208D00E49884205D00D49884216
:102BB00002D00D49884204D1816801F0070106293D
:102BC00003D0016841F0010101600020704700005E
:102BD000000001400004004000080040000C0040DC
:102BE00000040140004001400018004090F83D10F2
:102BF000012901D001207047022180F83D100168B1
:102C0000CA6842F00102CA6000681149884214D0C3
:102C1000B0F1804F11D00F4988420ED00E49884242
:102C20000BD00E49884208D00D49884205D00D4985
:102C3000884202D00C49884204D1816801F0070122
:102C4000062903D0016841F00101016000207047AE
:102C5000000001400004004000080040000C00405B
:102C600000040140004001400018004070B50446D7
:102C700090F83C000025012817D0012684F83C601C
:102C8000022084F83D002068826822F0770222F456
:102C90007F4282600868502838D00DDC20284FD051
:102CA00005DC90B3102811D14AE0022070BD302815
:102CB00046D040280AD13BE060282FD070280DD0A4
:102CC000B0F5805F03D0B0F5005F12D0012584F825
:102CD0003D60002084F83C00284670BDCB68D1E9F7
:102CE0000121206801F0DCFB2068816841F0770158
:102CF00009E0CB68D1E90121206801F0D1FB20680F
:102D0000816841F480418160E1E719E0CA6849685F
:102D1000206801F099FC5021206806E0CA684968E3
:102D2000206801F0A2FC6021206801F0C3FBCEE71F
:102D3000CA684968206801F087FC40212068F4E7F0
:102D4000226801461046F0E7704770B504460068F7
:102D500001694FF00005C943890715D4C168C9430B
:102D6000890711D4E91E016101202077206880695C
:102D70008007204602D0FFF7E7FF04E000F0D6F816
:102D8000204600F068F9257720680169C9434907A2
:102D900017D4C168C943490713D46FF00401016116
:102DA000022020772068806910F4407F204602D0FE
:102DB000FFF7CAFF04E000F0B9F8204600F04BF935
:102DC000257720680169C943090716D4C168C9433A
:102DD000090712D46FF008010161042020772068F0
:102DE000C0698007204602D0FFF7AEFF04E000F084
:102DF0009DF8204600F02FF9257720680169C94326
:102E0000C90617D4C168C943C90613D46FF01001AD
:102E10000161082020772068C06910F4407F2046B7
:102E200002D0FFF791FF04E000F080F8204600F0A8
:102E300012F9257720680169C943C90708D1C1681B
:102E4000C943C90704D1891E0161204600F068F911
:102E500020680169C943090609D4C168C943090644
:102E600005D46FF0800101612046FFF757FD20680F
:102E70000169C943490609D4C168C943490605D453
:102E80006FF040010161204600F054F920680169AB
:102E9000C94389060BD4C168C943890607D46FF0BA
:102EA000200101612046BDE87040FFF738BD70BDCC
:102EB00070B586B0044614216846FDF73BFB174900
:102EC0002068884227D116480024016841F001019A
:102ED0000160016801F001010591016841F01001F4
:102EE00001600068022500F010000590802000902D
:102EF000CDE901540126CDE9034669460948FFF7AB
:102F000089F828020090CDE90154CDE903466946CD
:102F10000548FFF77FF806B070BD000000000140D3
:102F2000303802400000024000100240704770B587
:102F3000044690F83C0000260D4601280FD00120E1
:102F400084F83C006AB1042A1DD0082A2FD00C2A2C
:102F50003FD00126002084F83C00304670BD02209E
:102F600070BD206801F0AEFA2068816941F0080167
:102F700081612068816921F0040181612068816993
:102F80002A69114311E0206801F0CCFA20688169B8
:102F900041F4006181612068816921F4806181616F
:102FA000206881692A6941EA02218161D2E72068AB
:102FB00001F0EEFA2068C16941F00801C1612068A2
:102FC000C16921F00401C1612068C1692A69114306
:102FD00011E0206801F010FB2068C16941F4006134
:102FE000C1612068C16921F48061C1612068C16943
:102FF0002A6941EA0221C161ACE710B5040003D09F
:1030000094F83D0010B107E0012010BD002084F8C5
:103010003C00204600F01EF8022084F83D00211DEF
:10302000206801F0BFF9012084F8460084F83E00D2
:1030300084F83F0084F8400084F8410084F842009E
:1030400084F8430084F8440084F8450084F83D0087
:10305000002010BD7047704710B50446022249B1E8
:1030600004290ED0082913D094F84100012816D065
:10307000012010BD94F83E000128F9D184F83E20CB
:103080000FE094F83F000128F2D184F83F2008E0D7
:1030900094F840000128EBD184F8402001E084F846
:1030A00041200122206801F0E1F916492068164A02
:1030B000884201D0904203D1436C43F400434364FF
:1030C0002068884213D0B0F1804F10D00F49884259
:1030D0000DD00F4988420AD00E49884207D090424D
:1030E00005D00D49884202D00C49884204D181683C
:1030F00001F00701062903D0016841F001010160D8
:10310000002010BD00000140000401400004004008
:1031100000080040000C0040004001400018004042
:1031200000680349884201D1FFF77CB8704700006E
:10313000002000407047FEE77FB500212548009140
:1031400001910291224A0391026001244FF440321E
:103150000461C0E90121017680F820102207C262D3
:1031600004251211C5618262C16080F8304041615E
:10317000FEF752FC08B1FEF784FB0326CDE900649C
:10318000694614480294FEF77FFB08B1FEF779FB0D
:103190000220019069460F48FEF776FB08B1FEF762
:1031A00070FB0B20CDE9000669460A48FEF76CFB70
:1031B00008B1FEF766FB0C20CDE90005694605481D
:1031C000FEF762FB002801D0FEF75BFB7FBD00002D
:1031D00000200140C40100207FB500212548009156
:1031E00001910291224A0391026001244FF440327E
:1031F0000461C0E90121017680F820102207C26233
:1032000004251211C5618262C16080F830404161BD
:10321000FEF702FC08B1FEF734FB00940194694606
:1032200014480294FEF730FB08B1FEF72AFB022097
:103230000090019069460F48FEF726FB08B1FEF7A3
:1032400020FB0A2000900320019069460948FEF700
:103250001BFB08B1FEF715FB0D20CDE90005694603
:103260000448FEF711FB002801D0FEF70AFB7FBDE2
:10327000002201400C0200200D4808B5016841F40D
:10328000800101600068002200F4800000900521A8
:103290003820FFF75FF83820FFF74EF800220521AD
:1032A0003920FFF757F8BDE808403920FFF744B848
:1032B0003038024010B5044A0021044802F0DCFA1C
:1032C0000349086010BD0000C87700089D4200084F
:1032D000000000202DE9F04F87B014216846FDF76B
:1032E00029F948480025016841F080010160016822
:1032F00001F080010591016841F00401016001685D
:1033000001F004010591016841F0010101600168CB
:1033100001F001010591016841F0100101600168AF
:1033200001F010010591016841F00201016001689E
:1033300001F002010591016841F008010160006897
:10334000DFF8C49000F008000590002220214846D4
:10335000FEF75DFFDFF8B4B04FF470470022394646
:103360005846FEF754FFDFF8A8A04AF65508012298
:1033700041465046FEF74BFF01224FF4207148466C
:10338000FEF745FF01244FF42870CDE90004032621
:10339000CDE9024669464846FEF73CFECDE9007499
:1033A000CDE9024669465846FEF734FECDE9008471
:1033B000CDE9024669465046FEF72CFE4FF40A401E
:1033C000CDE90005694602941248FEF723FEE002AB
:1033D000CDE90005694602944846FEF71BFE4FF40E
:1033E000A470CDE90005694602945846FEF712FE26
:1033F000CDE90045694608480294FEF70BFE07B088
:10340000BDE8F08F3038024000080240000402405E
:10341000000C0240000002400010024010B596B0BF
:1034200000240F9410941194129413941C21684654
:103430001494FDF77FF8202107A8FDF77BF82E48AC
:103440002C49C0E90014202181604FF4AF61C0E92C
:10345000031444618461FFF735FB08B1FEF711FAEC
:103460004FF480500F900FA92348FFF7FFFB08B1DE
:10347000FEF707FA2048FFF7C0FD08B1FEF701FA92
:10348000139413A91C481494FFF774FA08B1FEF7BB
:10349000F8F9602000904FF42F70CDE901040394F7
:1034A000049405940022694613480694FFF73FFDF3
:1034B00008B1FEF7E6F901200190042269460E48A2
:1034C000FFF735FD08B1FEF7DCF90794089409947D
:1034D0004FF400500A94CDE90B4007A906480E941A
:1034E000FFF71EFA08B1FEF7CCF90348FFF7E0FC3E
:1034F00016B010BD000001401403002010B58EB0BE
:1035000000240794089409940A940B941C2168469B
:103510000C94FDF70FF81D484FF08041C0E90014EE
:1035200040F27751C0E9024104618461FFF7CAFAB1
:1035300008B1FEF7A6F94FF48050079007A9134889
:10354000FFF794FB08B1FEF79CF91048FFF755FD13
:1035500008B1FEF796F90B940BA90C480C94FFF7F1
:1035600009FA08B1FEF78DF9602000904FF42F7032
:10357000CDE901040C22694604480494FFF7D7FC06
:10358000002801D0FEF77DF90EB010BD5C030020CD
:10359000FEE7FEE710B40021084B0A465FF000008A
:1035A00003EBC004401CC0B262548028F8D3491C0D
:1035B000C9B20829F2D310BC00F0A4B85405002009
:1035C00010B57F2816D83F2914D80723A3EBD103C1
:1035D00001F00701C1F107040121A140064CDBB253
:1035E00004EBC000002AC25CC9B201D00A4300E06B
:1035F0008A43C25410BD00005405002070B53F4CF2
:103600000125C4F8BC52C4F8B452C4F8B0523C48C6
:10361000C0F894520020C4F8B802642004F52C7459
:10362000FEF7E6FCA5606420FEF7E2FC0021AE2078
:1036300000F050F90021D52000F04CF90021502075
:1036400000F048F90021A82000F044F900213F20B3
:1036500000F040F90021D32000F03CF90021084699
:1036600000F038F90021402000F034F900218D20CD
:1036700000F030F90021142000F02CF90021202066
:1036800000F028F90021022000F024F90021A120F7
:1036900000F020F90021C02000F01CF90021DA2000
:1036A00000F018F90021122000F014F90021812007
:1036B00000F010F90021EF2000F00CF90021D920D2
:1036C00000F008F90021F12000F004F90021DB20CE
:1036D00000F000F90021302000F0FCF80021A420C7
:1036E00000F0F8F80021A62000F0F4F80021AF2047
:1036F00000F0F0F8BDE87040FFF74CBF008040429A
:103700000000414270B5114E002400BF04F1B0002A
:10371000C0B2002100F0DEF80021084600F0DAF81F
:103720000021102000F0D6F85FF0000506EBC50080
:103730000121005D00F0CEF86D1CEDB2802DF5D3B7
:10374000641CE4B2082CE1D370BD000054050020D5
:103750002DE9FF4F1D460C468946580700D0012031
:1037600000EBD500690810FB01F0203A00F0FF0AD9
:1037700002F0FF0B00263BE00C2D0FD0102D13D0D4
:10378000182D37D11C490BEBCB0001EB80004FF01B
:103790000008875D38060BD50D9A0CE017480BEB37
:1037A0004B0100EB8100F2E7154901EB0B10EEE74E
:1037B0000D9890B1002221460098FFF701FF78068E
:1037C000641C070EE4B2A4EB0900A84207D10098DC
:1037D0004C46401CC0B2009008E00122EBE708F123
:1037E000010000F0FF08B8F1080FD3D3761CF6B241
:1037F0005645C1D3BDE8FF8F708200080C780008E1
:10380000807C00082DE9FF4F81B00026DDF838A04C
:103810001D469346814634464FF001084FEA5A0749
:1038200027E0281B401EC1B20A2001F0EDFFBBFBC0
:10383000F0F00A21B0FBF1F201FB120026B9691E7B
:103840008C4201DA48B101263030C2B207FB049045
:10385000C0B25346CDF8008006E007FB0490C0B22A
:1038600053462022CDF800800299FFF771FF641CB7
:10387000E4B2AC42D5D305B0BDE8F08F2DE9F847EE
:1038800004461F46802016460D46A0EB5709C3F19B
:1038900040084FF0010A16E0A14502D20024E819C1
:1038A000C5B2A84503DA00242546FFF773FECDF81C
:1038B00000A032783B4629462046FFF749FF04EB3B
:1038C0005700C4B2761C307820385E28E4D9BDE8B1
:1038D000F887000070B50F4DC5F894120E4900240A
:1038E000C1F8B04222460123C1F8B442060602D50F
:1038F000C1F8BC3201E0C1F8BC42C1F8B4324006A4
:10390000521C000ED2B2082AEED3C1F8B032C5F86C
:10391000943270BD0000414200804042F8B5044638
:103920000068642148436168102501EB810100EBC8
:103930004100A1680323421811210F200095FFF7D1
:1039400061FF012610232E22112128200096FFF767
:10395000FFFE0095012311212C20E268FFF752FFA2
:1039600000950123112133202269FFF74BFFD4E991
:10397000051001EB810100EB4102022320210F2001
:103980000095FFF73FFF10232E2220211F200096D5
:10399000FFF7DEFE0095012320212320E269FFF7D7
:1039A00031FF0095012320212A20226AFFF72AFFF8
:1039B0000095012320213120626AFFF723FF009543
:1039C00001232F210F20A26AFFF71CFF10232E22B4
:1039D0002F2116200096FFF7BBFE009501232F2113
:1039E0001D20E26AFFF70EFF009501232F212420FE
:1039F000226BFFF707FF009501232F212B20626B1D
:103A0000FFF700FF009501232F213220A26BFFF763
:103A1000F9FEF8BDF1EE002A80ED041A82EE813A3B
:103A200021EEA24A60EE222AC0ED031A80ED022A9E
:103A300020EE025A80EC020A70EE200AC2EE814AA1
:103A4000C3EE013A84EE013A20EE844AC4EE812AA4
:103A500073EE831A42EE021AC4EE014A32EEA44A11
:103A600043EE602A05EE024A45EE022AC4EE214AE0
:103A7000BAEE004A60EE045AC4EE010AC0ED084AEC
:103A8000C5EE814AC4EE815AF0EE004A20EE240AC7
:103A900020EE020A40EE025A85EEA10A80ED090AE4
:103AA00082EEA10A80ED0A0A80EE810A62EE240A03
:103AB00000EE820AC0EE210A33EEC30A02EE020AC9
:103AC000C0ED060AC0EE210AC0ED070A704738B5FE
:103AD0001025009504460268012320215A20FFF793
:103AE00091FE0120009010232E2220216120FFF75B
:103AF0002FFE00950123202168206268FFF782FED7
:103B00000095012320216F20A268FFF77BFE38BDBE
:103B100010B500F009F800F057F800F0A5F8BDE87E
:103B2000104000F0F1B800002DE9F041224F0022D2
:103B300001213846FEF76BFB204D214EA5F12804EC
:103B40002868206008213046FEF75CFB2860216869
:103B5000401A012801D1FCF73DFF68682060402130
:103B60003046FEF74FFB68602168401A012801D1FA
:103B7000FCF73CFFA86820604FF480713046FEF7E8
:103B800041FBA8602168401A012801D1FCF73AFFE7
:103B9000E868206001210B48FEF734FBE8602168EB
:103BA000401A012801D1FCF781FF3846BDE8F041F9
:103BB00001221146FEF72BBB000C02403C00002006
:103BC00000040240001002402DE9F041224F002283
:103BD00004213846FEF71BFB204D214EA5F1280499
:103BE0002869206008213046FEF70CFB2861216817
:103BF000401A012801D1FCF763FF68692060402169
:103C00003046FEF7FFFA68612168401A012801D1A9
:103C1000FCF762FFA86920604FF480713046FEF720
:103C2000F1FAA8612168401A012801D1FCF760FF70
:103C3000E869206001210B48FEF7E4FAE861216899
:103C4000401A012801D1FCF7A7FF3846BDE8F04132
:103C500001220421FEF7DBBA000C02403C000020E8
:103C600000040240001002402DE9F041224F0022E2
:103C700010213846FEF7CBFA204D214EA5F128043D
:103C8000286A206008213046FEF7BCFA28622168C5
:103C9000401A012801D1FCF789FF686A20604021A1
:103CA0003046FEF7AFFA68622168401A012801D158
:103CB000FCF786FFA86A20604FF480713046FEF75B
:103CC000A1FAA8622168401A012801D1FCF782FFFD
:103CD000E86A206001210B48FEF794FAE862216847
:103CE000401A012801D1FCF783FF3846BDE8F041B6
:103CF00001221021FEF78BBA000C02403C0000208C
:103D000000040240001002402DE9F041224F002241
:103D100040213846FEF77BFA204D214EA5F12804BC
:103D2000286B206008213046FEF76CFA2863216872
:103D3000401A012801D1FCF765FF686B2060402123
:103D40003046FEF75FFA68632168401A012801D106
:103D5000FCF762FFA86B20604FF480713046FEF7DD
:103D600051FAA8632168401A012801D1FCF75EFFCF
:103D7000E86B206001210B48FEF744FAE8632168F4
:103D8000401A012801D1FCF75FFF3846BDE8F04139
:103D900001224021FEF73BBA000C02403C0000200B
:103DA000000402400010024010B500F009F800F0D5
:103DB0005DF800F0AFF8BDE8104000F0FBB800007F
:103DC0002DE9F047DFF894904FF400580022414667
:103DD0004846FEF71CFA224D224EA5F168042868D9
:103DE00020604FF400713046FEF70CFA286021681D
:103DF000401A012801D1FCF731FF68684FF40067D1
:103E0000206039463046FEF7FDF968602168401AA7
:103E1000012801D1FCF730FFA86820604FF4004171
:103E20003046FEF7EFF9A8602168401A012801D159
:103E3000FCF72CFFE868206039460B48FEF7E2F9F2
:103E4000E8602168401A012801D1FCF729FF4146AA
:103E50004846BDE8F0470122FEF7D9B9000C024000
:103E60007C00002000000240000802402DE9F047DD
:103E7000DFF890904FF40047002239464846FEF79D
:103E8000C6F9214C214EA4F1680520692860B911BA
:103E90003046FEF7B7F920612968401A012801D1A0
:103EA000FCF708FF60694FF400682860414630461F
:103EB000FEF7A8F960612968401A012801D1FCF7D2
:103EC00007FFA069286039463046FEF79BF9A061DC
:103ED0002968401A012801D1FCF704FFE069286035
:103EE00041460B48FEF78EF9E0612968401A012827
:103EF00001D1FCF701FF39464846BDE8F0470122F1
:103F0000FEF785B9000C02407C0000200000024052
:103F1000000802402DE9F041234F0022802138465D
:103F2000FEF775F9214C224EA4F16805206A28603D
:103F300079153046FEF766F920622968401A012893
:103F400001D1FCF7E3FE606A4FF400682860414647
:103F50003046FEF757F960622968401A012801D1FE
:103F6000FCF7DEFEA06A28604FF400413046FEF701
:103F700049F9A0622968401A012801D1FCF7DAFE4C
:103F8000E06A286041463846FEF73CF9E06229685D
:103F9000401A012801D1FCF7D7FE3846BDE8F041B0
:103FA00001228021FEF733B9000802407C00002086
:103FB000000002402DE9F0474FF40077DFF89480CD
:103FC00000223E4639464046FEF721F9224D314651
:103FD000A5F16804286B214E20603046FEF712F9E7
:103FE00028632168401A012801D1FCF7B7FE686BED
:103FF0004FF40069206049463046FEF703F96863D4
:104000002168401A012801D1FCF7B2FEA86B20609C
:104010004FF400413046FEF7F5F8A8632168401AD6
:10402000012801D1FCF7AEFEE86B20604946464608
:104030004046FEF7E7F8E8632168401A012801D1FD
:10404000FCF7AAFE39463046BDE8F0470122FEF7EC
:10405000DEB80000000802407C00002000000240A2
:1040600090ED100ADFED220AB6EE002A80ED152A47
:1040700060EE200A90ED141AF1EE001AB7EE003A45
:1040800021EE200A80ED160A60EE200A60EE810A19
:10409000C0ED170A30EE201A71EE212A83EE221AA3
:1040A00031EEE03A60EE012A30EE600AC0ED182AE7
:1040B000F1EE622AC0ED192AF0EE002A30EE610A14
:1040C00023EE223A20EE010A23EE013A80ED1A3A5D
:1040D00080ED1B0A20EE820A20EE010A80ED1C0A08
:1040E00060EE220AC0ED1D0A80ED1E0A7047000036
:1040F000DA0FC94010B504462DED028BF0EE418A6F
:1041000080ED100AB7EE000AB0EE618A80EE201A48
:1041100080ED141AFFF7A4FFC4ED208A84ED1F8AF6
:10412000BDEC028B10BD00009FED140A80ED000A6B
:1041300080ED010A80ED020A80ED030A80ED040A99
:1041400080ED050A80ED060A80ED070A80ED080A79
:1041500080ED090A80ED0A0A80ED0B0A80ED0C0A59
:1041600080ED0D0A80ED0E0A80ED0F0A80ED110A38
:1041700080ED130A80ED120A704700000000000075
:1041800010B580ED000AD0ED022A90ED181A90EDDE
:104190001A2A70EE620AD0ED1B1A90ED053A044619
:1041A00020EE811AD0ED040A3B4902EE201A01EEFE
:1041B000831A80ED031AC0ED050A80ED041AD0EDD4
:1041C0001C0AD4ED1D3A94ED013A60EE800A43EEEC
:1041D000830AD4ED1E3A43EEA20AD4ED072A42EE3A
:1041E000220A94ED082A41EE820AC4ED060AC4EDC3
:1041F000082AC4ED070A84ED023A84ED010A94ED21
:10420000122A94ED130A62EE011A40EE201A62EEB1
:10421000200A40EE410AC4ED091AC4ED0B0A94EDE0
:104220000E0AD4ED200A94ED0A1A00EEA10AD4ED8C
:104230001F0A00EE810A84ED0D0A84ED0E0AC4ED1A
:104240000A1AD4ED100A30EE800A84ED0F0AD4ED7C
:10425000140A20EE201A94ED110ADFED0E0A01EE89
:10426000200A10EE100A84ED110A884202DC94ED57
:10427000110A03E030EE600A84ED110A01F058FAE9
:1042800084ED130A94ED110A01F0FAF984ED120A93
:1042900010BD0000DA0FC940DA0FC94001F080F903
:1042A000FFF736FCFFF780FD00F048FB00F040FA16
:1042B00000F012FE01F072F800F00CFFFDF7A8F814
:1042C0003120FDF795FEEBE710B54FF0E0200069D7
:1042D00002F05EFD012803D0BDE8104002F060BA94
:1042E00010BD000030B593B030216846FCF722F9CC
:1042F00014210CA8FCF71EF91E480025016841F0A6
:1043000080510160006800F0805011901A480168E7
:1043100041F4804101600068022400F48040119063
:1043200001200090000401908001CDE90640192091
:1043300008904FF4A870CDE9090404200B9068465A
:10434000FEF736F908B172B6FEE70CA90F2081E836
:1043500031004FF4A0500F904FF480501090052181
:104360000CA8FEF729F8002801D072B6FEE713B0BA
:1043700030BD000040380240007000400248016833
:1043800041F470010160704788ED00E00148FEF7DC
:10439000DCBC00005C0300200148FEF7D6BC000036
:1043A000A4030020F0B50268254C264D264E274F69
:1043B000274B4FF0804CA04209D0604507D0A8425F
:1043C00005D0B04203D0B84201D0984204D122F0C7
:1043D000700E4A6842EA0E02A0421BD0604519D016
:1043E000A84217D0B04215D0B84213D0984211D08D
:1043F000184DA8420ED0184DA8420BD0174DA84218
:1044000008D0174DA84205D0164DA84202D0164D2F
:10441000A84203D122F44075CA682A434D6922F0AC
:1044200080022A4302608A68C2620A688262A042ED
:1044300001D0984201D10969016301214161F0BDB8
:10444000000001400004004000080040000C004053
:104450000004014000400140004401400048014088
:1044600000180040001C00400020004010B501F082
:104470001F030121046A99408C430462016A9A4037
:104480001143016210BD10B501F01F030421046A3D
:1044900099408C430462016A9A401143016210BD45
:1044A00010B5846842EA032224F47F440A4322437D
:1044B000826010BD826822F070020A4342F0070158
:1044C00081607047F0B5026A22F001020262036A5D
:1044D00042688469124E24F073050C682C4323F063
:1044E00002058B682B430D4DA84201D0B04205D187
:1044F00023F00807CB683B4323F00403A84201D014
:10450000B04205D14D6922F4407215438A692A43AD
:1045100042608461496841630362F0BD000001406C
:1045200000040140F0B5026A22F010020262026A41
:10453000436884690D6824F4E64444EA05248D68E0
:1045400022F0200242EA05120F4D104EA84201D07F
:10455000B04206D1CF6822F0800242EA071222F070
:104560004002A84201D0B04207D14D6923F4406314
:1045700043EA85038D6943EA8503436084614968A2
:1045800081630262F0BD00000000014000040140B0
:10459000F0B5026A22F480720262026A4368C4695A
:1045A00022F4007224F073050C68124E2C438D68BF
:1045B00042EA05220E4DA84201D0B04206D1CF6892
:1045C00022F4006242EA072222F48062A84201D06B
:1045D000B04207D14D6923F4405343EA05138D6976
:1045E00043EA05134360C4614968C1630262F0BDD8
:1045F000000001400004014030B5026A22F48052FC
:104600000262046A4268C3690D6823F4E64343EA20
:1046100005238D6824F4005444EA0534084DA8426B
:1046200002D0084DA84204D14D6922F4804242EAEA
:1046300085124260C36149680164046230BD0000B4
:10464000000001400004014010B5036A046A24F030
:1046500001040462846924F0F00444EA021423F0A3
:104660000A020A438461026210BD10B5036A23F096
:10467000100303628369046A23F4704343EA02323D
:1046800024F0A00343EA01118261016210BD000021
:104690002DE9FE4764210020CDE90010234BEA46B6
:1046A0004FF00A084FF47A7442F21079CDF80800FE
:1046B0005AF8207000EB8006B7FBF8F208FB127581
:1046C00003EB86026FF0180C15617D1BB5FBF1F74B
:1046D00001FB1757B7FBF8F7D7607F4207EB870757
:1046E00005EB4705B5FBF4F704FB1757B7FBF1F7EC
:1046F000976007FB0CF705EB87074D46B7FBF5FC0A
:1047000009FB1C7CBCFBF4FCC2F804C06FF07C020B
:104710000CFB02FC07EBCC02B2FBF9F2401C43F8A5
:1047200026200328C4DBBDE8FE87000064040020C7
:1047300070B5774C2DED0E8B94ED040AB8EE400A5F
:1047400010EE100A02F0C4FF9FED728B53EC182B91
:1047500002F0D6FD94ED030A41EC1A0BB8EE400AC4
:1047600010EE100A02F0B4FF9FED6C9B53EC192B76
:1047700002F0C6FD94ED000A41EC1B0BB8EE400AB6
:10478000DFED680AB2EE04EA20EE200AD4ED010A59
:10479000F8EE600A00EE8E0AD4ED020AF8EE600A26
:1047A00030EE200A10EE100A02F092FF53EC1B2BA1
:1047B00002F0EAFC53EC1A2B02F0E6FC02F0B2FC29
:1047C000594DA86194ED090AB8EE400A10EE100A9E
:1047D00002F07EFF9FED55DB53EC1D2B02F090FDA8
:1047E00094ED080A41EC1C0BB8EE400A10EE100ADA
:1047F00002F06EFF53EC182B02F082FD94ED070AD5
:1048000041EC1B0BB8EE400A10EE100A02F060FFFC
:1048100053EC192B02F074FD94ED060AD4ED050A51
:1048200041EC1A0BB8EE400AF8EE600A00EE8E0A70
:1048300010EE100A02F04CFF53EC1A2B02F0A4FC0D
:1048400053EC1B2B02F0A0FC53EC1C2B02F09CFC45
:1048500002F068FCE86194ED0E0AB8EE400A10EE32
:10486000100A02F035FF9FED331B53EC112B02F0C1
:1048700047FD94ED0D0A41EC1A0BB8EE400A10EE1C
:10488000100A02F025FF53EC1D2B02F039FD94EDC8
:104890000C0A41EC1B0BB8EE400A10EE100A02F0B5
:1048A00017FF53EC182B02F02BFD94ED0B0A41EC93
:1048B0001C0BB8EE400A10EE100A02F009FF53EC90
:1048C000192B02F01DFD94ED0A0A41EC180BB8EE0D
:1048D000400A10EE100A02F0FBFE53EC182B02F017
:1048E00053FC53EC1C2B02F04FFC53EC1B2B02F03F
:1048F0004BFC53EC1A2B02F047FC02F013FC28622D
:104900002846BDEC0E8B0021BDE8704000F0F4BEDF
:10491000640400207B14AE47E17A843F9A99999908
:104920009999B93F0000C84290520020FCA9F1D2E9
:104930004D62503F2D431CEBE2361A3F70B5E34CFD
:104940002DED108B94ED040AB8EE400A10EE100A1B
:1049500002F0BEFE9FEDDE8B53EC182B02F0D0FC74
:1049600094ED030A41EC1A0BB8EE400A10EE100A5F
:1049700002F0AEFE9FEDD89B53EC192B02F0C0FC69
:1049800094ED000A41EC1B0BB8EE400ADFEDD4FABF
:10499000D4ED010A20EE2F0AF8EE600A00EEAF0A0D
:1049A000D4ED020AF8EE600A30EE200A10EE100A8A
:1049B00002F08EFE53EC1B2B02F0E6FB53EC1A2B9D
:1049C00002F0E2FB02F0AEFBC64DA86194ED090ACD
:1049D000B8EE400A10EE100A02F07AFE9FEDC2AB6C
:1049E00053EC1A2B02F08CFC94ED080A41EC1D0BE1
:1049F000B8EE400A10EE100A02F06AFE53EC182BD3
:104A000002F07EFC94ED070A41EC1C0BB8EE400A64
:104A100010EE100A02F05CFE53EC192B02F070FC51
:104A200094ED060AD4ED050AB2EE04FAB8EE400A97
:104A3000F8EE600A41EC1B0B00EE8F0A10EE100A34
:104A400002F046FE53EC1B2B02F09EFB53EC1C2B9A
:104A500002F09AFB53EC1D2B02F096FB02F062FB76
:104A6000E86194ED0E0AB8EE400A10EE100A02F06A
:104A70002FFE9FED9FEB53EC1E2B02F041FC94EDBB
:104A80000D0A41EC1D0BB8EE400A10EE100A02F0C0
:104A90001FFE53EC1A2B02F033FC94ED0C0A41EC90
:104AA0001C0BB8EE400A10EE100A02F011FE53EC97
:104AB000182B02F025FC41EC1B0BE06A02F00CFC09
:104AC00053EC192B02F01CFC02F02CFBD4ED0A0A6B
:104AD00000EE100AF8EE600A30EE200A10EE100A1E
:104AE00002F0F6FD53EC1B2B02F04EFB53EC1C2B9B
:104AF00002F04AFB53EC1D2B02F046FB02F012FBC6
:104B000028620021284600F0F7FD7B4C94ED040A52
:104B1000B8EE400A10EE100A02F0DAFD53EC182B42
:104B200002F0EEFB94ED030A41EC1C0BB8EE400AD8
:104B300010EE100A02F0CCFD53EC192B02F0E0FB52
:104B400094ED000AD4ED010A41EC1B0BB8EE400ACB
:104B5000F8EE600A20EE2F0A00EE8F0AD4ED020A6A
:104B6000F8EE600A30EE200A10EE100A02F0B0FDF6
:104B700053EC1B2B02F008FB53EC1C2B02F004FB44
:104B800002F0D0FA2435A86194ED090AB8EE400A83
:104B900010EE100A02F09CFD53EC1A2B02F0B0FB51
:104BA00094ED080A41EC1D0BB8EE400A10EE100A15
:104BB00002F08EFD53EC182B02F0A2FB94ED070AD5
:104BC00041EC1C0BB8EE400A10EE100A02F080FD1A
:104BD00053EC192B02F094FB94ED060AD4ED050A70
:104BE00041EC1B0BB8EE400AF8EE600A00EE8F0AAB
:104BF00010EE100A02F06CFD53EC1B2B02F0C4FA0D
:104C000053EC1C2B02F0C0FA53EC1D2B02F0BCFA43
:104C100002F088FAE86194ED0E0AB8EE400A10EE50
:104C2000100A02F055FD53EC1E2B02F069FB94EDC7
:104C30000D0A41EC1B0BB8EE400A10EE100A02F010
:104C400047FD53EC1A2B02F05BFB94ED0C0A41EC90
:104C50001A0BB8EE400A10EE100A02F039FD53ECC0
:104C6000182B02F04DFB94ED0B0A41EC180BB8EE3B
:104C7000400A10EE100A02F02BFD53EC192B02F043
:104C80003FFB94ED0A0A41EC190BB8EE400A10EE16
:104C9000100A02F01DFD53EC192B02F075FA53ECCB
:104CA000182B02F071FA53EC1A2B02F06DFA53EC48
:104CB0001B2B02F069FA02F035FA28622846BDEC97
:104CC000108B0021BDE8704000F016BDEC03002001
:104CD0007B14AE47E17A843F9A9999999999B93FA3
:104CE0000000C84248520020FCA9F1D24D62503F5A
:104CF0002D431CEBE2361A3F280400202DE9FE4F1D
:104D00004FF0000A7120CDE9000A474C50466B462F
:104D10004FF00A094FF064084FF47A7B42F2107E9C
:104D2000CDF808A053F820604946B6FBF1F209FB24
:104D3000126500EB800704EB87026FF0180C156119
:104D4000751BB5FBF8F608FB1656B6FBF9F1D160FA
:104D5000494201EB810105EB41065946B6FBF1F5ED
:104D60000BFB1565B5FBF8F5956005FB0CF506EB3F
:104D700085067546B6FBF5FC0EFB1C6CBCFBFBFC0C
:104D8000C2F804C06FF07C020CFB02FC06EBCC0204
:104D9000B2FBFEF2401C44F827200328C2DBCDE919
:104DA000008ACDF808A0CC46204A00209A46F14659
:104DB0005AF8204000EB8005B4FBFCF10CFB1143DA
:104DC00002EB85016FF018070B61E31AB3FBF8F4EF
:104DD00008FB1434B4FBFCF4CC60644204EB8404A0
:104DE00003EB44045B46B4FBF3F60BFB1646B6FB41
:104DF000F8F68E607E4304EB86064C46B6FBF4F76D
:104E000009FB1767B7FBFBF34B606FF07C014B436B
:104E100006EBC301B1FBF9F1401C42F82510032851
:104E2000C6DBBDE8FE8F0000EC0300202804002054
:104E300049F640410A22B1FBF2F070B502FB1013B3
:104E400023486FF018060361CB1A6421B3FBF1F419
:104E500001FB1434B4FBF2F4C460644204EB840438
:104E600003EB44054FF47A74B5FBF4F304FB1353DE
:104E7000B3FBF1F38360734305EB830642F21075D5
:104E8000B6FBF5F305FB1363B3FBF4F36FF07C049F
:104E90004360634306EBC303B3FBF5F30360B1FB6D
:104EA000F2F002FB10130B488360C3F16403B3FB01
:104EB000F1F401FB1434B4FBF2F24260524202EB13
:104EC000820203EB4202B2FBF1F1016070BD00000F
:104ED000BC000020D000002070B5494C2DED088B9F
:104EE00094ED020AB8EE400A10EE100A02F0F0FB50
:104EF0009FED44BB53EC1B2B02F002FA94ED010A28
:104F000041EC180BB8EE400A10EE100A02F0E0FB7C
:104F10009FED3EAB53EC1A2B02F0F2F994ED000A30
:104F200041EC190BB8EE400A10EE100A02F0D0FB6B
:104F300053EC192B02F028F953EC182B02F024F94A
:104F400002F0F0F8334D344CE86094ED040AB8EE0A
:104F5000400A10EE100A02F0BBFB9FED301B53EC31
:104F6000112B02F0CDF994ED030A41EC190BB8EEC8
:104F7000400A10EE100A02F0ABFB9FED2A1B53EC27
:104F8000112B02F0BDF994ED020A41EC180BB8EEBA
:104F9000400A10EE100A02F09BFB53EC1B2B02F0B0
:104FA000AFF994ED010A41EC1B0BB8EE400A10EE8C
:104FB000100A02F08DFB53EC1A2B02F0A1F994EDCC
:104FC000000A41EC1A0BB8EE400A10EE100A02F08B
:104FD0007FFB53EC1A2B02F0D7F853EC1B2B02F09B
:104FE000D3F853EC182B02F0CFF853EC192B02F046
:104FF000CBF802F097F8A860BDEC088B70BD0000FC
:10500000D00000207B14AE47E17A843F9A999999A9
:105010009999B93F88010020BC0000202D431CEB6A
:10502000E2361A3FFCA9F1D24D62503F2DE9FE470E
:1050300026486421CDE9001041F288300290244BCB
:105040000020EA464FF00A084FF47A7442F21079D1
:105050005AF8207000EB8006B7FBF8F208FB1275D7
:1050600003EB86026FF0180C15617D1BB5FBF1F7A1
:1050700001FB1757B7FBF8F7D7607F4207EB8707AD
:1050800005EB4705B5FBF4F704FB1757B7FBF1F742
:10509000976007FB0CF705EB87074D46B7FBF5FC60
:1050A00009FB1C7CBCFBF4FCC2F804C06FF07C0262
:1050B0000CFB02FC07EBCC02B2FBF9F2401C43F8FC
:1050C00026200328C4DBBDE8FE870000B88201006B
:1050D000DC04002010B57C4C2DED0E8B94ED040A01
:1050E000B8EE400A10EE100A02F0F2FA9FED779B3C
:1050F00053EC192B02F004F994ED030A41EC1B0B5D
:10510000B8EE400A10EE100A02F0E2FA9FED71AB21
:1051100053EC1A2B02F0F4F894ED000A41EC1C0B4E
:10512000B8EE400ADFED6D0AB2EE048A20EE200AE6
:10513000D4ED010AF8EE600A00EE880AD4ED020A06
:10514000F8EE600A30EE200A10EE100A02F0C0FA03
:1051500053EC1C2B02F018F853EC1B2B02F014F844
:1051600001F0E0FF94ED090A08EE900AB8EE400A5B
:1051700010EE100A02F0ACFA9FED59DB53EC1D2B38
:1051800002F0BEF894ED080A41EC1E0BB8EE400A9E
:1051900010EE100A02F09CFA53EC192B02F0B0F852
:1051A00094ED070A41EC1B0BB8EE400A10EE100A12
:1051B00002F08EFA53EC1A2B02F0A2F894ED060AD4
:1051C000D4ED050A41EC1C0BB8EE400AF8EE600A7B
:1051D00000EE880A10EE100A02F07AFA53EC1C2B4B
:1051E00001F0D2FF53EC1B2B01F0CEFF53EC1E2B32
:1051F00001F0CAFF01F096FF94ED0E0A08EE100AC6
:10520000B8EE400A10EE100A02F062FA9FED361B6B
:1052100053EC112B02F074F894ED0D0A41EC1C0BC9
:10522000B8EE400A10EE100A02F052FA53EC1D2BB1
:1052300002F066F894ED0C0A41EC1B0BB8EE400A44
:1052400010EE100A02F044FA53EC192B02F058F851
:1052500094ED0B0A41EC190BB8EE400A10EE100A5F
:1052600002F036FA53EC1A2B02F04AF894ED0A0ACF
:1052700041EC1A0BB8EE400A10EE100A02F028FAC0
:1052800053EC1A2B01F080FF53EC192B01F07CFF3B
:1052900053EC1B2B01F078FF53EC1C2B01F074FF37
:1052A00001F040FFF0EE480AB0EE680ABDEC0E8B4C
:1052B00001EE900ABDE810409FED0D2A9FED0D1AFA
:1052C0000D48FEF7A7BB0000DC0400207B14AE47AE
:1052D000E17A843F9A9999999999B93F0000C84217
:1052E000FCA9F1D24D62503F2D431CEBE2361A3F30
:1052F00063149D4317B75138385300202DE9FE47FA
:1053000064210020CDE90010234BEA464FF00A0843
:105310004FF47A7442F21079CDF808005AF82070F0
:1053200000EB8006B7FBF8F208FB127503EB860270
:105330006FF0180C15617D1BB5FBF1F701FB1757DA
:10534000B7FBF8F7D7607F4207EB870705EB470508
:10535000B5FBF4F704FB1757B7FBF1F7976007FBB2
:105360000CF705EB87074D46B7FBF5FC09FB1C7CEA
:10537000BCFBF4FCC2F804C06FF07C020CFB02FC26
:1053800007EBCC02B2FBF9F2401C43F826200328BD
:10539000C4DBBDE8FE870000A004002070B5754C9A
:1053A0002DED0C8B94ED040AB8EE400A10EE100AB5
:1053B00002F08EF99FED708B53EC182B01F0A0FFDB
:1053C00094ED030A41EC1A0BB8EE400A10EE100AF5
:1053D00002F07EF99FED6A9B53EC192B01F090FFD0
:1053E00094ED000A41EC1B0BF8EE400A9FED660AB3
:1053F00094ED011A60EE800AB8EE411A41EE000AFF
:1054000094ED020AB8EE400A30EE800A10EE100A5F
:1054100002F05EF953EC1B2B01F0B6FE53EC1A2B95
:1054200001F0B2FE01F07EFE584DA86194ED090A2C
:10543000B8EE400A10EE100A02F04AF99FED54DB74
:1054400053EC1D2B01F05CFF94ED080A41EC1C0BA2
:10545000B8EE400A10EE100A02F03AF953EC182B9D
:1054600001F04EFF94ED070A41EC1A0BB8EE400A2A
:1054700010EE100A02F02CF953EC192B01F040FF4A
:1054800094ED060AD4ED050AB2EE041AB8EE400A0D
:10549000F8EE600A41EC1B0B00EE810A10EE100AD8
:1054A00002F016F953EC1B2B01F06EFE53EC1A2B95
:1054B00001F06AFE53EC1C2B01F066FE01F032FE97
:1054C000E86194ED0E0AB8EE400A10EE100A02F000
:1054D000FFF89FED311B53EC112B01F011FF94ED00
:1054E0000D0A41EC1A0BB8EE400A10EE100A02F059
:1054F000EFF853EC1D2B01F003FF94ED0C0A41EC87
:105500001B0BB8EE400A10EE100A02F0E1F853EC63
:10551000182B01F0F5FE41EC180BE06A01F0DCFEFF
:1055200053EC192B01F0ECFE01F0FCFDD4ED0A0A5E
:1055300000EE100AF8EE600A30EE200A10EE100AB3
:1055400002F0C6F853EC182B01F01EFE53EC1B2B97
:1055500001F01AFE53EC1A2B01F016FE01F0E2FDE9
:1055600028622846BDEC0C8B0021BDE8704000F09D
:10557000C3B80000A00400207B14AE47E17A843F4A
:105580009A9999999999B93F0000C8427C53002093
:10559000FCA9F1D24D62503F2D431CEBE2361A3F7D
:1055A00070B5FEF72BF8FCF757F8FBF709FFFBF790
:1055B0008DFE00F043F8FFF7A1FBFFF769F8FFF756
:1055C00037FCFFF79BFEFFF731FD164D4FF40064EB
:1055D000002221462846FCF71AFE1348FDF7CAFAB6
:1055E00004211148FDF738FD042210491048FCF74A
:1055F000E3FA0E49042208310E48FCF7DDFA0A48A6
:10560000FDF7B8FA00210848FDF726FD00210648FD
:10561000FDF7F8F921462846BDE870400122FCF765
:10562000F6BD0000000C0240140300205C010020C5
:10563000C40100200C020020FEE700000648B7EE7F
:10564000000A012180ED060A9FED040A80ED070A99
:1056500080ED080A00F050B87C53002000000000E4
:105660000907090E002804DB00F1E02080F800148F
:10567000704700F00F0000F1E02080F8141D704723
:105680009FED1A1AF5EE000A40EE010ABDEEE00A9F
:10569000F5EEC00A10EE100AF1EE10FA00D2401E2C
:1056A00000EE100A1349F7EE001AB8EEC00A30EE09
:1056B000C00ADFED0F0A20EE200AFCEEC00A10EE51
:1056C000900AC0F3080000EE900A01EB8000F8EEAB
:1056D000600A90ED011A70EE600A90ED000A71EE1A
:1056E000E01A21EE800A00EE810A704783F9223E1B
:1056F00000000044CC8F0008D0ED060A90ED070AA8
:10570000002930EE801A90ED080A31EE001A80ED83
:10571000001AB0EE001A50EE410AC0ED010A80ED09
:10572000020A03D00021C16001614161704700009D
:10573000B5EEC00AF1EE10FA04D210EE100A1B49C1
:10574000884232D9B5EEC00ADFED190A60EE200AB0
:10575000BDEEE01A11EE100AF1EE10FA00D2401E72
:1057600000EE100A1449F7EE001AB8EEC00A30EE47
:10577000C00ADFED100A60EE200ABCEEE00A10EE6F
:10578000100AC0F3080000EE100A01EB8000B8EE2A
:10579000400A90ED011A70EEC00A90ED000A71EE19
:1057A000E01A21EE800A00EE810A7047CD024CB467
:1057B00083F9223E00000044CC8F0008FCF73AFD3C
:1057C000FEF790FDFDF786FDFDF756FDFDF7B4FCF5
:1057D000FDF794FEFDF722FEFDF7FEFCFDF70EFF40
:1057E000FBF73AFF00F018F8FDF764FD00F028F829
:1057F000FEF78EF9FEF7D8FAFBF70AFEFDF782FFF7
:105800003120FCF7F5FBF3E70246012000E05043AE
:10581000491EC9B2FBD27047EFF30580002802D0C1
:105820006FF0050070470548016811B14FF0FF3077
:105830007047012101600020704700002C0100200A
:1058400010B5EFF30580002802D06FF0050010BD01
:1058500007480168012902D04FF0FF3010BD054A0A
:10586000002111700221016000F092FE002010BDA5
:105870002C0100201FED00E02DE9F04385B00B4620
:105880004FF000070497EFF3058100294ED100285F
:105890004CD080244FF0180C8946491E52B316682C
:1058A00006B1B146956905B1AC46ACF10105382D9C
:1058B00003D2157915F0010F03D005B00020BDE823
:1058C000F083556905B1AC08D2F80880B8F1000F33
:1058D00007D0D6685C2E04D3166916B10DB101212C
:1058E00009E0B8F1000F06D1D56825B9156915B9D9
:1058F000002100E00021012901D061B116E091688A
:10590000126901920291CDF800C02246494601F089
:105910000FFA04900AE004A90191A2B2CDF800C0E8
:10592000494601F0CFF9012800D00497049805B04A
:10593000BDE8F0832DE9F04104460F46134EF568AB
:105940003068001D00F0A0FCB4F1FF3F07D137B173
:105950003068BDE8F041011D0D4800F0E8BC2C4462
:1059600030684460AC4206D23068011DB06BBDE8BF
:10597000F04100F0C1BC3068011D706B00F0BCFC50
:10598000B06A844200D2B462BDE8F081DC0000203D
:10599000440E002070B5044600F0D6FC1C4DA868EB
:1059A000401CA860286810B1686938B10CE02C6010
:1059B000A868012808D100F093F905E02868E16A99
:1059C000C06A884200D82C60686A401C68626064C3
:1059D000E06A2969884200D928610E4900EB8000FD
:1059E00001EB8000211D00F0A2FC00F0CDFC6869F5
:1059F00000280CD02868E16AC06A884207D20649AC
:105A00004FF080500860BFF34F8FBFF36F8F70BDB2
:105A1000DC0000209409002004ED00E038B500F01F
:105A200093FC0F4C2068B8B90E4800F057FC0E48A4
:105A300000F054FC0B48E0601430206100200B4B58
:105A4000009003F1500210210A2000F0BFFE2060F8
:105A500010B107A100F01CFDBDE8384000F094BC77
:105A600018010020480F00205C0F0020580E002075
:105A7000546D72510000000070B50D4C6068002834
:105A800015D00C4E00F060FCF068C568281D00F0D1
:105A9000FBFBA068401EA0606068401E606000F0D4
:105AA00073FC284600F051F860680028EAD170BD08
:105AB000DC000020300E00200B46026C002A0CD0C7
:105AC000C1681144C160D0F808C0614501D30168C4
:105AD000C160C1681846FAF7BEBC70472DE9F041B5
