:020000040800F2
:100000000000022071840008411400084314000815
:1000100045140008471400084914000800000000B7
:10002000000000000000000000000000214D00085A
:100030004B14000800000000C14D0008C74800082C
:10004000C1840008C1840008C1840008C18400087C
:10005000C1840008C1840008C1840008C18400086C
:10006000C1840008C1840008C1840008C18400085C
:10007000C1840008C1840008C1840008C18400084C
:10008000C1840008C1840008C1840008C18400083C
:10009000C1840008C1840008C1840008C18400082C
:1000A000C1840008C1840008C1840008C18400081C
:1000B0004D140008C1840008C1840008C1840008F0
:1000C000C1840008C1840008C1840008C1840008FC
:1000D000C1840008C1840008C1840008C1840008EC
:1000E000C1840008C1840008C1840008C1840008DC
:1000F000C18400085D140008C1840008C1840008A0
:10010000C1840008C1840008C1840008C1840008BB
:10011000C1840008C1840008C1840008C1840008AB
:100120006D1400087D140008C1840008C184000813
:10013000C1840008C1840008C1840008C18400088B
:10014000C1840008C1840008C1840008C18400087B
:10015000C1840008C1840008C1840008C18400086B
:10016000C1840008C1840008C1840008C18400085B
:10017000C1840008C1840008C18400080000000098
:08018000C1840008C1840008DD
:1001900081F0004102E000BF83F0004330B54FEA38
:1001A00041044FEA430594EA050F08BF90EA020FA5
:1001B0001FBF54EA000C55EA020C7FEA645C7FEA38
:1001C000655C00F0E2804FEA5454D4EB5555B8BF5B
:1001D0006D420CDD2C4480EA020281EA030382EACC
:1001E000000083EA010180EA020281EA0303362D5E
:1001F00088BF30BD11F0004F4FEA01314FF4801C31
:100200004CEA113102D0404261EB410113F0004F42
:100210004FEA03334CEA133302D0524263EB4303F9
:1002200094EA050F00F0A780A4F10104D5F1200E97
:100230000DDB02FA0EFC22FA05F2801841F10001F2
:1002400003FA0EF2801843FA05F359410EE0A5F1C6
:1002500020050EF1200E012A03FA0EFC28BF4CF0F7
:10026000020C43FA05F3C01851EBE37101F00045AD
:1002700007D54FF0000EDCF1000C7EEB00006EEBBA
:100280000101B1F5801F1BD3B1F5001F0CD3490844
:100290005FEA30004FEA3C0C04F101044FEA44529B
:1002A00012F5800F80F09A80BCF1004F08BF5FEA22
:1002B000500C50F1000041EB045141EA050130BD02
:1002C0005FEA4C0C404141EB0101013C28BFB1F514
:1002D000801FE9D291F0000F04BF01460020B1FA5F
:1002E00081F308BF2033A3F10B03B3F120020CDA32
:1002F0000C3208DD02F1140CC2F10C0201FA0CF010
:1003000021FA02F10CE002F11402D8BFC2F1200C74
:1003100001FA02F120FA0CFCDCBF41EA0C0190402A
:10032000E41AA2BF01EB0451294330BD6FEA040473
:100330001F3C1CDA0C340EDC04F11404C4F120025E
:1003400020FA04F001FA02F340EA030021FA04F370
:1003500045EA030130BDC4F10C04C4F1200220FAC7
:1003600002F001FA04F340EA0300294630BD21FA05
:1003700004F0294630BD94F0000F83F4801306BFCB
:1003800081F480110134013D4EE77FEA645C18BFBF
:100390007FEA655C29D094EA050F08BF90EA020F56
:1003A00005D054EA000C04BF1946104630BD91EA4E
:1003B000030F1EBF0021002030BD5FEA545C05D151
:1003C0004000494128BF41F0004130BD14F5800490
:1003D0003CBF01F5801130BD01F0004545F0FE4104
:1003E00041F470014FF0000030BD7FEA645C1ABF39
:1003F000194610467FEA655C1CBF0B46024650EA70
:10040000013406BF52EA033591EA030F41F400219B
:1004100030BD00BF90F0000F04BF0021704730B521
:100420004FF4806404F132044FF000054FF00001F6
:1004300050E700BF90F0000F04BF0021704730B5B7
:100440004FF4806404F1320410F0004548BF40428C
:100450004FF000013EE700BF42004FEAE2014FEAE1
:1004600031014FEA02701FBF12F07F4393F07F4FBC
:1004700081F06051704732F07F4208BF704793F0BF
:100480007F4F04BF41F40021704730B54FF46074D2
:1004900001F0004521F000411CE700BF50EA0102D5
:1004A00008BF704730B54FF000050AE050EA01027E
:1004B00008BF704730B511F0004502D5404261EBEE
:1004C00041014FF4806404F132045FEA915C3FF42F
:1004D000D8AE4FF003025FEADC0C18BF03325FEACC
:1004E000DC0C18BF033202EBDC02C2F1200300FA7D
:1004F00003FC20FA02F001FA03FE40EA0E0021FAA2
:1005000002F11444BDE600BF70B54FF0FF0C4CF48F
:10051000E06C1CEA11541DBF1CEA135594EA0C0F41
:1005200095EA0C0F00F0DEF82C4481EA030621EA7C
:100530004C5123EA4C5350EA013518BF52EA0335B7
:1005400041F4801143F4801338D0A0FB02CE4FF069
:100550000005E1FB02E506F00042E0FB03E54FF099
:100560000006E1FB03569CF0000F18BF4EF0010E91
:10057000A4F1FF04B6F5007F64F5407404D25FEA8D
:100580004E0E6D4146EB060642EAC62141EA555140
:100590004FEAC52040EA5E504FEACE2EB4F1FD0C82
:1005A00088BFBCF5E06F1ED8BEF1004F08BF5FEA00
:1005B000500E50F1000041EB045170BD06F00046B2
:1005C00046EA010140EA020081EA0301B4EB5C045F
:1005D000C2BFD4EB0C0541EA045170BD41F4801157
:1005E0004FF0000E013C00F3AB8014F1360FDEBF7C
:1005F000002001F0004170BDC4F10004203C35DA58
:100600000C341BDC04F11404C4F1200500FA05F3DA
:1006100020FA04F001FA05F240EA020001F000427B
:1006200021F0004110EBD37021FA04F642EB0601F1
:100630005EEA430E08BF20EAD37070BDC4F10C041B
:10064000C4F1200500FA04F320FA05F001FA04F2DF
:1006500040EA020001F0004110EBD37041F10001CB
:100660005EEA430E08BF20EAD37070BDC4F12005D6
:1006700000FA05F24EEA020E20FA04F301FA05F23E
:1006800043EA020321FA04F001F0004121FA04F2E6
:1006900020EA020000EBD3705EEA430E08BF20EAB6
:1006A000D37070BD94F0000F0FD101F000464000F0
:1006B00041EB010111F4801F08BF013CF7D041EA72
:1006C000060195F0000F18BF704703F00046520076
:1006D00043EB030313F4801F08BF013DF7D043EA47
:1006E0000603704794EA0C0F0CEA135518BF95EAFD
:1006F0000C0F0CD050EA410618BF52EA4306D1D184
:1007000081EA030101F000414FF0000070BD50EAA2
:10071000410606BF1046194652EA430619D094EA2C
:100720000C0F02D150EA013613D195EA0C0F05D116
:1007300052EA03361CBF104619460AD181EA03016A
:1007400001F0004141F0FE4141F470014FF0000022
:1007500070BD41F0FE4141F4780170BD70B54FF0BD
:10076000FF0C4CF4E06C1CEA11541DBF1CEA13553D
:1007700094EA0C0F95EA0C0F00F0A7F8A4EB05041F
:1007800081EA030E52EA03354FEA013100F0888016
:100790004FEA03334FF0805545EA131343EA1263DF
:1007A0004FEA022245EA111545EA10654FEA002694
:1007B0000EF000419D4208BF964244F1FD0404F54D
:1007C000407402D25B084FEA3202B61A65EB0305A9
:1007D0005B084FEA32024FF480104FF4002CB6EB66
:1007E000020E75EB030E22BFB61A754640EA0C00E6
:1007F0005B084FEA3202B6EB020E75EB030E22BF26
:10080000B61A754640EA5C005B084FEA3202B6EB66
:10081000020E75EB030E22BFB61A754640EA9C0025
:100820005B084FEA3202B6EB020E75EB030E22BFF5
:10083000B61A754640EADC0055EA060E18D04FEAB3
:10084000051545EA16754FEA06164FEAC30343EA53
:1008500052734FEAC2025FEA1C1CC0D111F4801F20
:100860000BD141EA00014FF000004FF0004CB6E719
:1008700011F4801F04BF01430020B4F1FD0C88BFB8
:10088000BCF5E06F3FF6AFAEB5EB030C04BFB6EBC3
:10089000020C5FEA500C50F1000041EB045170BDB6
:1008A0000EF0004E4EEA113114EB5C04C2BFD4EBE3
:1008B0000C0541EA045170BD41F480114FF0000E67
:1008C000013C90E645EA060E8DE60CEA135594EAE3
:1008D0000C0F08BF95EA0C0F3FF43BAF94EA0C0FE6
:1008E0000AD150EA01347FF434AF95EA0C0F7FF45B
:1008F00025AF104619462CE795EA0C0F06D152EAAF
:1009000003353FF4FDAE1046194622E750EA410692
:1009100018BF52EA43067FF4C5AE50EA41047FF4A3
:100920000DAF52EA43057FF4EBAE12E74FF0FF3C08
:1009300006E000BF4FF0010C02E000BF4FF0010CD9
:100940004DF804CD4FEA410C7FEA6C5C4FEA430C52
:1009500018BF7FEA6C5C1BD001B050EA410C0CBFA1
:1009600052EA430C91EA030F02BF90EA020F002003
:10097000704710F1000F91EA030F58BF994208BF6A
:1009800090422CBFD8176FEAE37040F00100704727
:100990004FEA410C7FEA6C5C02D150EA013C07D17E
:1009A0004FEA430C7FEA6C5CD6D152EA033CD3D0C9
:1009B0005DF8040B704700BF8446104662468C46C3
:1009C0001946634600E000BF01B5FFF7B7FF0028F6
:1009D00048BF10F1000F01BD4DF808EDFFF7F4FF1F
:1009E0000CBF012000205DF808FB00BF4DF808EDAA
:1009F000FFF7EAFF34BF012000205DF808FB00BFCD
:100A00004DF808EDFFF7E0FF94BF012000205DF8EE
:100A100008FB00BF4DF808EDFFF7CEFF94BF0120A3
:100A200000205DF808FB00BF4DF808EDFFF7C4FF9C
:100A300034BF012000205DF808FB00BF4A0011D23E
:100A400012F5001211D20DD56FF47873B3EB625228
:100A50000ED44FEAC12343F0004343EA505323FA34
:100A600002F070474FF00000704750EA013002D1A9
:100A70004FF0FF3070474FF0000070474FEA4102DF
:100A8000B2F1E04324BFB3F5001CDCF1FE5C0DD9EC
:100A900001F0004C4FEAC0024CEA5070B2F1004F36
:100AA00040EB830008BF20F00100704711F0804F39
:100AB00021D113F13872BCBF01F00040704741F4FE
:100AC00080114FEA5252C2F11802C2F1200C10FA02
:100AD0000CF320FA02F018BF40F001004FEAC123E6
:100AE0004FEAD32303FA0CFC40EA0C0023FA02F38A
:100AF0004FEA4303CCE77FEA625307D150EA013360
:100B00001EBF4FF0FE4040F44000704701F000402F
:100B100040F0FE4040F40000704700BF53B94AB9AE
:100B2000002908BF00281CBF4FF0FF314FF0FF30F5
:100B300000F00CB8ADF1080C6DE904CE07F0FCFC38
:100B4000DDF804E0DDE9022304B07047704700BF20
:100B500010B5054C237833B9044B13B10448AFF3F7
:100B600000800123237010BDF80600200000000063
:100B7000F487000808B5034B1BB103490348AFF3E2
:100B8000008008BD00000000FC060020F48700087B
:100B900008B50268034B9A4200D008BD01F054FE2C
:100BA000FBE700BF0020004072B6FEE700B595B03D
:100BB0003022002108A807F084FC0023039304934B
:100BC0000593069307930193214A116C41F08051DC
:100BD0001164126C02F080520192019A02931D4B33
:100BE0001A6842F480421A601B6803F4804302933F
:100BF000029B012308934FF48033099302230E9341
:100C00004FF480020F92192210924FF4A8721192A1
:100C100012930423139308A800F056FF98B90F23EA
:100C2000039302230493002305934FF4A0530693E8
:100C30004FF480530793052103A801F095F920B9DB
:100C400015B05DF804FBFFF7AFFFFFF7ADFF00BF86
:100C5000003802400070004008B501F0DBFDFFF7EE
:100C6000A5FF00F021F800F05FFA00F0E3F800F0D3
:100C70007DFA00F057FB00F039F907F0CFF804F0E7
:100C8000B5F903F02DFE00F0C5F803F03BFE04F0CB
:100C9000CDFE05F0EBF804F05FFA06F05FFF3120BF
:100CA00001F0E4FDF3E700002DE9F0438DB00024EE
:100CB0000794089409940A940B9401944F4B1A6B6F
:100CC00042F080021A631A6B02F080020192019ACC
:100CD00002941A6B42F004021A631A6B02F00402C7
:100CE0000292029A03941A6B42F001021A631A6B81
:100CF00002F001020392039A04941A6B42F002027A
:100D00001A631A6B02F002020492049A05941A6B99
:100D100042F010021A631A6B02F010020592059A53
:100D200006941A6B42F008021A631B6B03F0080367
:100D30000693069B324E22462021304601F0F5FAFA
:100D4000304F22464FF47041384601F0EEFADFF89A
:100D5000C09001224AF65501484601F0E6FA012208
:100D60004FF42071304601F0E0FA4FF428730793F6
:100D70000125089509954FF00308CDF8288007A9AB
:100D8000304601F0D5F94FF4704307930895099563
:100D9000CDF8288007A9384601F0CAF94AF655036C
:100DA000079308950995CDF8288007A9484601F0D2
:100DB000BFF94FF40A4307930894099507A912480D
:100DC00001F0B6F94FF4006307930894099507A959
:100DD000304601F0ADF94FF4A473079308940995D8
:100DE00007A9384601F0A4F907950894099507A9C1
:100DF000064801F09DF90DB0BDE8F08300380240CF
:100E000000080240000402400000024000100240BE
:100E1000000C024008B5044A0021044803F08EFD8E
:100E2000034B186008BD00BF80880008ED810008F2
:100E30001407002000B585B00023009301930293AE
:100E400003932848284A02604FF44032426083608E
:100E500001220261037680F820304FF08051C16298
:100E60004FF080718162C3600421C16180F830203D
:100E7000436100F019FC28BB032300930123019375
:100E800002936946174800F055FDF0B9022301931B
:100E90006946144800F04EFDD0B90B23009303239C
:100EA000019369460F4800F045FDA0B90C2300935B
:100EB0000423019369460B4800F03CFD70B905B06E
:100EC0005DF804FBFFF770FED6E7FFF76DFEDDE788
:100ED000FFF76AFEE1E7FFF767FEE7E7FFF764FE6B
:100EE000EDE700BF200800200020014000B585B0DC
:100EF000002300930193029303932848284A026039
:100F00004FF440324260836001220261037680F830
:100F100020304FF08051C1624FF080718162C36018
:100F20000421C16180F83020436100F0BDFB28BB83
:100F300001230093019302936946184800F0FAFCDC
:100F4000F8B90223009301936946144800F0F2FCBB
:100F5000D0B90A2300930323019369460F4800F098
:100F6000E9FCA0B90D2300930423019369460B48C3
:100F700000F0E0FC70B905B05DF804FBFFF714FE6B
:100F8000D6E7FFF711FEDCE7FFF70EFEE1E7FFF71C
:100F90000BFEE7E7FFF708FEEDE700BFD8070020EC
:100FA0000022014070B58CB00446002307930893DB
:100FB00009930A930B930368524A934204D0524A0E
:100FC00093424FD00CB070BD002501954F4B5A6C29
:100FD00042F480725A645A6C02F480720192019A4F
:100FE00002951A6B42F004021A631A6B02F00402B3
:100FF0000292029A03951A6B42F001021A631B6B6C
:1010000003F001030393039B06230793032608962B
:1010100007A93F4801F08CF84823079308960995E3
:1010200007A93C4801F084F83B483C4B036045600D
:101030008560C5604FF4806303614FF400634361D2
:101040004FF4005383614FF48073C36105624562BE
:1010500001F0EEF918B9304BA3639C63B2E7FFF7D8
:10106000A3FDF8E700250495284B5A6C42F48062F2
:101070005A645A6C02F480620492049A05951A6BC1
:1010800042F004021A631A6B02F004020592059AF8
:1010900006951A6B42F001021A631B6B03F0010301
:1010A0000693069B092307930326089607A9184869
:1010B00001F03EF8062307930896099507A91548FD
:1010C00001F036F81648174B03604FF08063436019
:1010D0008560C5604FF4806303614FF40063436132
:1010E0004FF4005383614FF48073C361056245621E
:1010F00001F09EF918B90A4BA3639C6362E7FFF7FE
:1011000053FDF8E700200140002201400038024072
:1011100000080240000002407807002010640240EE
:10112000180700202864024010B582B00024019402
:101130000D4B1A6B42F480021A631B6B03F480039D
:101140000193019B22460521382001F04FFB3820F6
:1011500001F05CFB22460521392001F047FB3920D4
:1011600001F054FB02B010BD0038024000B58FB052
:1011700000230A930B930C930D9308930993019307
:1011800002930393049305930693079320484FF02B
:10119000804202604360836040F27752C260036124
:1011A000836101F0E1FD20BB4FF480530A930AA94B
:1011B000174801F0E4FEF8B9154801F001FEF0B956
:1011C00000230893099308A9114802F075F8C8B9DB
:1011D000602301934FF42F7302930023039305932D
:1011E0000C2201A90A4801F04FFE70B90FB05DF85A
:1011F00004FBFFF7D9FCD7E7FFF7D6FCDCE7FFF7E6
:10120000D3FCDDE7FFF7D0FCE2E7FFF7CDFCEDE72D
:101210006808002000B583B00368154A934205D0E2
:10122000B3F1804F0FD003B05DF804FB00230093AF
:10123000104B5A6C42F001025A645B6C03F00103DC
:101240000093009BEFE70022019203F50E33196C27
:1012500041F0010119641B6C03F001030193019B30
:1012600005211C2001F0C2FA1C2001F0CFFADAE7B8
:10127000000001400038024070B588B0002303939D
:1012800004930593069307930268224B9A4201D078
:1012900008B070BD0024009403F59C331A6B42F033
:1012A00001021A631A6B02F001020092009A019483
:1012B0001A6B42F002021A631A6B02F002020192E8
:1012C000019A02941A6B42F010021A631B6B03F02E
:1012D00010030293029B80230393022504950126A9
:1012E000079603A90C4800F023FF03950495059485
:1012F0000694079603A9094800F01AFF4FF4085313
:101300000393049505940694079603A9044800F0F6
:101310000FFFBDE700000140000002400004024052
:101320000010024030B597B0002412941394149426
:1013300015941094119409940A940B940C940D94A0
:101340000E940F9420252A46214601A807F0B9F8EB
:1013500039483A4B0360446085604FF4AF63C36023
:1013600004614461846101F0FFFC00284BD14FF41B
:101370008053129312A9304801F001FE002845D194
:101380002D4801F01DFD002843D100231093119337
:1013900010A9294801F090FF00283DD1602309934E
:1013A0004FF42F730A9300220B920C920D920E921F
:1013B0000F9209A9204801F067FD00282FD10123D1
:1013C0000A93042209A91C4801F05EFD50BB0023CA
:1013D0000A93082209A9184801F056FD28BB0023EA
:1013E000019302930393049305934FF400520692E2
:1013F000089301A9104801F0A5FFC8B90E48FFF7EE
:101400003BFF17B030BDFFF7CFFBB0E7FFF7CCFBDA
:10141000B6E7FFF7C9FBB8E7FFF7C6FBBEE7FFF784
:10142000C3FBCCE7FFF7C0FBD1E7FFF7BDFBD6E777
:10143000FFF7BAFBE2E700BFB00800200000014060
:10144000FEE7FEE7FEE7FEE7FEE7704708B5024865
:1014500001F06FFB08BD00BF6808002008B5024816
:1014600001F067FB08BD00BFF808002008B502487E
:1014700001F07AF808BD00BF7807002008B50248DF
:1014800001F072F808BD00BF1807002000B583B056
:10149000002200920D4B596C41F480415964596C03
:1014A00001F48041009100990192196C41F0805142
:1014B00019641B6C03F080530193019B0F216FF0A3
:1014C000010001F093F903B05DF804FB003802401D
:1014D00030B589B0044600230193214B1A6C42F4C5
:1014E00080721A641B6C03F480730193019B02A940
:1014F00003A800F0FFFD069BCBB900F0EBFD03460F
:10150000184AA2FB03239B0C013B1748174A0260B1
:1015100040F2E732C260436000230361836083616D
:1015200001F022FC054630B1284609B030BD00F07C
:10153000D1FD4300E4E70C4801F0B2FA054600286B
:10154000F2D12D2001F062F90F2C01D90125EBE732
:10155000002221462D2001F049F9054B1C60E3E7EC
:101560000038024083DE1B43F808002000200040C2
:10157000040000204A4B5A6822F440325A605A68EC
:1015800041680A435A600268536823F480735360C9
:1015900002685368016943EA012353600268536893
:1015A00023F0407353600268536881680B435360B3
:1015B0000268936823F40063936002689368C168CB
:1015C0000B439360826A374B9A4257D00268936804
:1015D00023F07063936002689368816A0B439360A1
:1015E0000268936823F04053936002689368C16A6D
:1015F0000B4393600268936823F0020393600268D0
:101600009368017E43EA4103936090F82030002BF9
:101610003FD00268536843F4006353600268536824
:1016200023F46043536001684B68426A013A43EA1D
:1016300042334B600268D36A23F47003D3620168BB
:10164000CB6AC269013A43EA0253CB6202689368EB
:1016500023F4007393600268936890F8301043EAB3
:10166000412393600268936823F480639360026867
:101670009368416943EA81239360704702689368E5
:1016800023F0706393600268936823F04053936083
:10169000B0E70268536823F400635360CAE700BFF1
:1016A000002301400100000F38B310B50446036C5D
:1016B00043B1236C13F0100F0BD00120002384F8EA
:1016C0003C3010BDFFF76EFC0023636484F83C30AF
:1016D000EFE7236C23F4885323F0020343F0020363
:1016E00023642046FFF746FF00206064236C23F04C
:1016F000030343F001032364E0E701207047000087
:1017000010B582B013460022019290F83C20012AC5
:1017100000F0AE800446012280F83C200268906808
:1017200010F0010F13D1906840F001009060534A0F
:101730001068534AA2FB0020800C00EB400001908F
:1017400002E001980138019001980028F9D122683F
:10175000906810F4807F03D0906820F480709060CF
:101760002268906810F0010F77D0206C20F4E060C0
:1017700020F0010040F480702064526812F4806F01
:1017800005D0226C22F4405242F480522264226C32
:1017900012F4805F36D0626C22F00602626400228E
:1017A00084F83C20A26B3748D063A26B36481064A3
:1017B000A26B3648D06422686FF022001060206867
:1017C000426842F0806242602068826842F480721F
:1017D000826020680A4600F14C01A06B00F08EFE8A
:1017E0002B4B5B6813F01F0F27D12368294A9342C4
:1017F00011D002F58072934207D0274A934214D049
:10180000002033E000226264C9E702F500725268EA
:1018100012F01F0FF1D19A6812F0405F2AD19A6836
:1018200042F080429A60002020E002F58072526807
:1018300012F0100FEFD0002018E02368154A9342F1
:1018400001D0002012E09A6812F0405F14D19A682B
:1018500042F080429A60002008E0236C43F01003BD
:101860002364636C43F001036364002002B010BD85
:101870000220FBE70020F9E70020F7E7080000203E
:1018800083DE1B43C11800089F180008AB1800082E
:10189000002301400020014000220140704708B5AC
:1018A000806BFFF7FBFF08BD704708B5806B4023D6
:1018B0000364436C43F004034364FFF7F5FF08BD82
:1018C00008B50346806B026C12F0500F25D1036CF3
:1018D00043F40073036403689A6812F0405F19D1FF
:1018E000027EBAB9DA6A12F4700F03D09A6812F461
:1018F000806F0FD15A6822F020025A60036C23F4E3
:1019000080730364036C13F4805F03D1036C43F0B2
:101910000103036406F08EFD08BD026C12F0100F87
:1019200004D1826BD26C18469047F5E7FFF7BCFFF5
:10193000F2E7000030B482B00022019290F83C201F
:10194000012A00F0B6800346012280F83C200A6894
:10195000092A40D90468E06892B202EB42021E3ABA
:101960004FF0070C0CFA02F220EA0202E2601C6857
:10197000E0680A8802EB42021E3A8D6805FA02F21C
:101980000243E2604A68062A3CD81C68606B02EB9E
:101990008202053A4FF01F0C0CFA02F220EA020212
:1019A00062631C68606B4A6802EB8202053AB1F818
:1019B00000C00CFA02F20243626318683E4A904289
:1019C00050D018683C4A904255D0002083F83C0023
:1019D00002B030BC70470468206992B202EB420248
:1019E0004FF0070C0CFA02F220EA020222611C6896
:1019F00020690A8802EB42028D6805FA02F202436E
:101A00002261BFE70C2A16D81D68286B02EB820200
:101A1000233A1F2404FA02F220EA02022A631D6814
:101A2000286B4A6802EB8202233A0C8804FA02F21D
:101A300002432A63C1E71D68E86A02EB8202413A69
:101A40001F2404FA02F220EA0202EA621D68E86A30
:101A50004A6802EB8202413A0C8804FA02F202431D
:101A6000EA62AAE70A68122AABD11448426842F433
:101A700080024260A5E70A68103A012AA5D80F48FB
:101A8000426842F4000242600A68102A9DD10C4A62
:101A900012680C49A1FB0212920C02EB8202520066
:101AA000019202E0019A013A0192019A002AF9D1C9
:101AB0008BE702208CE700BF00200140002301409B
:101AC0000800002083DE1B43002800F0E08170B591
:101AD00082B00446036813F0010F3BD09F4B9B6814
:101AE00003F00C03042B2CD09C4B9B6803F00C03DD
:101AF000082B21D06368B3F5803F4FD0B3F5A02FFA
:101B000052D0964B1A6822F480321A601A6822F476
:101B100080221A606368002B50D000F0A1FE0546B9
:101B20008E4B1B6813F4003F14D100F099FE401B4C
:101B30006428F5D90320B1E1884B5B6813F4800F6A
:101B4000D8D0864B1B6813F4003F03D06368002B8A
:101B500000F09F81236813F0020F54D07F4B9B68E5
:101B600013F00C0F3ED07D4B9B6803F00C03082B49
:101B700033D0E368002B68D0794B01221A6000F063
:101B80006FFE0546754B1B6813F0020F54D100F031
:101B900067FE401B0228F5D903207FE16F4A1368D6
:101BA00043F480331360B5E76C4B1A6842F480222B
:101BB0001A601A6842F480321A60ABE700F050FEF7
:101BC0000546664B1B6813F4003FC3D000F048FE87
:101BD000401B6428F5D9032060E1604B5B6813F477
:101BE000800FC6D15D4B1B6813F0020F03D0E36872
:101BF000012B40F05081594A136823F0F803216902
:101C000043EAC1031360236813F0080F42D06369ED
:101C10006BB3534B0122C3F8802E00F021FE054622
:101C20004E4B5B6F13F0020F34D100F019FE401BD6
:101C30000228F5D9032031E1484A136823F0F8035C
:101C4000216943EAC1031360DDE7454B00221A60B6
:101C500000F006FE0546414B1B6813F0020FD2D080
:101C600000F0FEFD401B0228F5D9032016E13C4B95
:101C70000022C3F8802E00F0F3FD0546374B5B6F62
:101C800013F0020F06D000F0EBFD401B0228F5D93F
:101C9000032003E1236813F0040F77D02F4B1B6C54
:101CA00013F0805F33D1002301932C4B1A6C42F068
:101CB00080521A641B6C03F080530193019B012531
:101CC000284B1B6813F4807F23D0A368012B34D0EA
:101CD000052B38D0214B1A6F22F001021A671A6FB8
:101CE00022F004021A67A368002B3DD000F0B8FD73
:101CF00006461A4B1B6F13F0020F46D100F0B0FDE1
:101D0000801B41F288339842F3D90320C6E00025B6
:101D1000D6E7144A136843F48073136000F0A0FD03
:101D20000646104B1B6813F4807FCED100F098FD5F
:101D3000801B0228F5D90320B0E0084A136F43F056
:101D400001031367CFE7054B1A6F42F004021A67CD
:101D50001A6F42F001021A67C5E700BF003802405F
:101D6000000047420070004000F07AFD0646524BEA
:101D70001B6F13F0020F08D000F072FD801B41F2C0
:101D800088339842F3D9032088E0EDB9A369002B8A
:101D900000F08380484A926802F00C02082A51D071
:101DA000022B17D0454B00221A6600F059FD04465D
:101DB000414B1B6813F0007F42D000F051FD001B27
:101DC0000228F5D9032069E03B4A136C23F08053C5
:101DD0001364DBE7394B00221A6600F041FD05462B
:101DE000354B1B6813F0007F06D000F039FD401B17
:101DF0000228F5D9032051E0E369226A1343626A9D
:101E000043EA8213A26A5208013A43EA0243E26AB1
:101E100043EA0263284A5360284B01221A6600F005
:101E20001FFD0446244B1B6813F0007F06D100F011
:101E300017FD001B0228F5D903202FE000202DE01C
:101E400000202BE0012B2BD01B4B5B6803F480019F
:101E5000E269914226D103F03F02216A8A4223D1EE
:101E6000616A47F6C0721A40B2EB811F1ED103F4BB
:101E70004031A26A5208013AB1EB024F18D103F087
:101E80007063E26AB3EB026F14D1002006E0012018
:101E90007047012002E0012000E0002002B070BD88
:101EA0000120FBE70120F9E70120F7E70120F5E732
:101EB0000120F3E70120F1E700380240000047422B
:101EC00008B5264B9B6803F00C03042B41D0082B6C
:101ED00041D1224B5A6802F03F025B6813F4800F35
:101EE00012D01E4B5968C1F388111D480023A1FB75
:101EF0000001FEF713FE194B5B68C3F30143013386
:101F00005B00B0FBF3F008BD144B5868C0F38810B9
:101F10004FEA401CBCEB000C6EEB0E0E4FEA8E132A
:101F200043EA9C634FEA8C11B1EB0C0163EB0E03A7
:101F3000DB0043EA5173C90011EB000C43F10003CD
:101F4000990200234FEA8C2041EA9C51FEF7E6FDFE
:101F5000D1E70348D7E70348D5E700BF0038024080
:101F600040787D010024F400002800F09B8070B5CB
:101F70000D4604464F4B1B6803F007038B4208D203
:101F8000CBB24C4A1370136803F007038B4240F046
:101F90008B80236813F0020F17D013F0040F04D0C6
:101FA000454A936843F4E0539360236813F0080FA5
:101FB00004D0414A936843F4604393603E4A936877
:101FC00023F0F003A1680B439360236813F0010F23
:101FD00032D06368012B21D09A1E012A25D9364AB6
:101FE000126812F0020F61D033498A6822F00302AE
:101FF00013438B6000F034FC06462F4B9B6803F0C4
:102000000C036268B3EB820F16D000F029FC801B32
:1020100041F288339842F0D9032042E0264A126800
:1020200012F4003FE0D101203BE0234A126812F095
:10203000007FD9D1012034E01E4B1B6803F0070359
:10204000AB4207D9EAB21B4B1A701B6803F00703B7
:10205000AB422DD1236813F0040F06D0164A9368C3
:1020600023F4E053E1680B439360236813F0080FF7
:1020700007D0114A936823F46043216943EAC103FE
:102080009360FFF71DFF0C4B9B68C3F303130B4AD0
:10209000D35CD8400A4B18600A4B1868FFF718FA4F
:1020A000002070BD012070470120FAE70120F8E709
:1020B0000120F6E7003C024000380240B4880008E6
:1020C0000800002004000020014B1868704700BF82
:1020D0000800002008B5FFF7F7FF044B9B68C3F327
:1020E0008223034AD35CD84008BD00BF00380240B9
:1020F000AC8800080F2303600B4B9A6802F00302C0
:1021000042609A6802F0F00282609A6802F4E0523B
:10211000C2609B68DB0803F4E0530361034B1B6858
:1021200003F007030B60704700380240003C024098
:1021300000230F2B00F2E98070B582B065E085685E
:102140004FEA430E032404FA0EF425EA0405CC6892
:1021500004FA0EF42C438460446824EA02044A68BA
:10216000C2F300129A40224342605CE0DC0808346B
:1021700050F8242003F00705AD004FF00F0E0EFAC3
:1021800005FE22EA0E0E0A69AA4042EA0E0240F853
:1021900024205CE0072200E0002202FA0EF22A432B
:1021A00002345A4D45F82420594A94686FEA0C02CB
:1021B00024EA0C054E6816F4801F01D04CEA040591
:1021C000534CA560E46802EA04054E6816F4001F4B
:1021D00001D04CEA04054E4CE560646802EA04054F
:1021E0004E6816F4003F01D04CEA0405484C656087
:1021F000246822404D6815F4803F01D04CEA040267
:10220000434C226001330F2B7DD801229A400C6889
:1022100004EA020C32EA0404F4D14C6804F003042A
:10222000013C012C8BD94A6802F00302032A09D031
:10223000C4685D000322AA4024EA02048A68AA4016
:102240002243C2604A6802F00302022A8ED0046868
:102250004FEA430E032202FA0EF224EA02044A680D
:1022600002F0030202FA0EF2224302604A6812F4FC
:10227000403FC7D000220192264A546C44F4804467
:102280005464526C02F480420192019A9C08A51C8D
:102290001E4A52F8255003F0030E4FEA8E0E0F220D
:1022A00002FA0EF225EA02051B4A90423FF474AF8F
:1022B00002F5806290421AD002F58062904218D0F6
:1022C00002F58062904216D002F58062904214D0EE
:1022D00002F58062904212D002F58062904210D0E6
:1022E00002F5806290423FF455AF082255E7012283
:1022F00053E7022251E703224FE704224DE705226C
:102300004BE7062249E702B070BD70470038014034
:10231000003C0140003802400000024003691942BD
:1023200001D001207047002070470AB181617047D9
:1023300009048161704730B405682C6824F4802456
:102340002C60046863608368402B05D00368996043
:102350000368DA6030BC704703689A600368D9602C
:10236000F8E7000010B40368D9B210390A4AA2FB9A
:1023700001421209094CA25CC2655F2907D96FF3BB
:10238000090304338365806D5DF8044B70476FF378
:1023900009038365F7E700BFABAAAAAAA4880008CF
:1023A000836A826992B9012B0AD0022B02D00BB149
:1023B00000207047C36A13F0807F28D10020704747
:1023C000C36AB3F1C07F24D000207047B2F5005F2C
:1023D00009D0022B25D9032B25D1C36A13F0807FA6
:1023E00023D100207047032B03D8DFE803F0140447
:1023F000140A00207047C36A13F0807F0DD10020BB
:102400007047C36AB3F1C07F09D000207047012034
:10241000704701207047012070470120704701205C
:10242000704701207047002070470120704700006E
:1024300070B5044600F014FA002C5BD00546022368
:1024400084F83530002384F834302268136823F090
:102450000103136023681A6812F0010F0AD000F01C
:10246000FFF9431B052BF5D920236365032084F86E
:10247000350070BD1A68204911406268A0680243A7
:10248000E06802432069024360690243A069024395
:10249000E0690243206A02430A43616A04291ED0AC
:1024A0001A602668756925F00705636A1D43042BC9
:1024B00007D1A36A1D43E36A1BB12046FFF770FFF3
:1024C00090B975612046FFF74DFFE26D3F239340C1
:1024D000836000206065012384F83530C9E7E16A34
:1024E000206B01430A43DBE740236365012084F846
:1024F0003500BEE70120BCE73F8010F038B5044648
:10250000856D90F8340001282BD0012084F8340028
:1025100094F83500C0B2012804D0002384F8343088
:10252000022038BD022084F8350000206065204676
:10253000FFF701FFE26D3F239340AB602268136811
:1025400043F016031360236C23B12268136843F031
:10255000080313602268136843F00103136000202E
:10256000DFE70220DDE70000F0B583B0044600237A
:102570000193724B1D68724BA3FB0535AD0A876D45
:102580003E68C26D08239340334210D003681A6836
:1025900012F0040F0BD01A6822F004021A60C26D08
:1025A00008239340BB60436D43F001034365E26D34
:1025B00001239340334209D02268526912F0800F00
:1025C00004D0BB60636D43F002036365E26D0423D6
:1025D0009340334209D02268126812F0020F04D0EF
:1025E000BB60636D43F004036365E26D10239340A9
:1025F000334224D02268126812F0080F1FD0BB604B
:1026000023681A6812F4802F0DD01B6813F4002F72
:1026100004D1236C9BB12046984710E0A36C73B1A2
:10262000204698470BE01A6812F4807F03D11A689D
:1026300022F008021A60236C0BB120469847E26D25
:1026400020239340334255D02268126812F0100FB5
:1026500050D0BB6094F83530DBB2052B0ED0236828
:102660001A6812F4802F33D01B6813F4002F2AD17C
:10267000636C002B3ED0204698473BE022681368ED
:1026800023F0160313602268536923F0800353611B
:10269000236CA3B12268136823F008031360E26D72
:1026A0003F239340BB60012384F83530002384F836
:1026B0003430236D002B3FD0204698473CE0A36C7C
:1026C000002BE7D1EBE7E36BA3B12046984711E07D
:1026D0001A6812F4807F09D11A6822F010021A6079
:1026E000012384F83530002384F83430E36B0BB1D8
:1026F00020469847636DFBB1636D13F0010F17D04F
:10270000052384F835302268136823F00103136031
:10271000019B01330193AB4204D823681B6813F07B
:10272000010FF5D1012384F83530002384F83430CB
:10273000E36C0BB12046984703B0F0BD08000020C1
:10274000B5814E1B002807DB00F01F024009012362
:102750009340024A42F82030704700BF00E100E099
:10276000002808DB0901C9B200F1604000F56140B2
:1027700080F80013704700F00F000901C9B2014B47
:102780001954704714ED00E000B500F00700C0F1E7
:10279000070CBCF1040F28BF4FF0040C031D062BDF
:1027A0000FD9C31E4FF0FF3E0EFA0CF021EA0001D4
:1027B00099400EFA03FE22EA0E0241EA02005DF899
:1027C00004FB0023EEE70000074AD36823F4E0632C
:1027D0001B041B0C000200F4E060034343F0BF63E2
:1027E00043F40033D360704700ED00E010B50446B9
:1027F000054BD868C0F30220FFF7C6FF014620460C
:10280000FFF7AEFF10BD00BF00ED00E008B5FFF719
:1028100099FF08BD08B50B4B1A6842F400721A60A4
:102820001A6842F480621A601A6842F480721A6070
:102830000320FFF7C9FF0F20FEF74AFEFEF726FE32
:10284000002008BD003C0240034A1168034B1B787E
:102850000B441360704700BF4009002000000020B7
:10286000014B1868704700BF4009002038B5044686
:10287000FFF7F6FF0546B4F1FF3F02D0044B1B788B
:102880001C44FFF7EDFF401BA042FAD338BD00BF48
:102890000000002030B4036A026A22F001020262E2
:1028A0004268846924F0730C0C6844EA0C0423F039
:1028B000020C8B6843EA0C03114DA84203D005F5C6
:1028C0008065A84205D123F00803CD682B4323F08F
:1028D00004030B4DA84203D005F58065A84207D13B
:1028E00022F440724D6945EA020C8A6942EA0C0200
:1028F000426084614A684263036230BC704700BF33
:102900000000014030B4036A026A22F4807202625D
:102910004268C46924F0730C0C6844EA0C0523F483
:1029200000738C6843EA0423114CA04203D004F5E1
:102930008064A04206D123F40063CC6843EA0423F8
:1029400023F480630A4CA04203D004F58064A042C3
:1029500007D122F440524C6942EA04128C6942EADF
:1029600004124260C5614A68C263036230BC7047AA
:102970000000014030B4036A026A22F4805202620D
:102980004468C26922F4E6420D6842EA052223F453
:1029900000538D6843EA0533094DA84203D005F57D
:1029A0008065A84204D124F480444D6944EA85142A
:1029B0004460C2614A680264036230BC704700BF71
:1029C0000000014010B4036A046A24F001040462A8
:1029D000846924F0F00C4CEA021223F00A030B4342
:1029E000826103625DF8044B704710B4036A046AA5
:1029F00024F010040462846924F4704C4CEA02321E
:102A000023F0A00343EA0113826103625DF8044BE3
:102A10007047836823F070030B4343F00703836020
:102A20007047000090F83D30DBB2012B32D1022319
:102A300080F83D300368194A934220D0B3F1804FAB
:102A40001DD0A2F57C42934219D002F580629342D8
:102A500015D002F58062934211D002F5784293427C
:102A60000DD002F57052934209D0A2F594329342F0
:102A700005D01A6842F001021A60002070479A6877
:102A800002F00702062A07D01A6842F001021A6013
:102A9000002070470120704700207047000001406F
:102AA00090F83D30DBB2012B37D1022380F83D3066
:102AB0000268D36843F00103D3600368194A934264
:102AC00020D0B3F1804F1DD0A2F57C42934219D0A3
:102AD00002F58062934215D002F58062934211D0D4
:102AE00002F5784293420DD002F57052934209D01C
:102AF000A2F59432934205D01A6842F001021A609E
:102B0000002070479A6802F00702062A07D01A6868
:102B100042F001021A600020704701207047002037
:102B2000704700BF00000140704770477047704712
:102B3000704770B504460368DE681D6915F0020F22
:102B400010D016F0020F0DD06FF002021A610123AF
:102B5000037703689B6913F0030F5ED0FFF7E6FF6E
:102B60000023237715F0040F12D016F0040F0FD0B6
:102B700023686FF004021A610223237723689B699C
:102B800013F4407F4FD02046FFF7D0FF0023237778
:102B900015F0080F12D016F0080F0FD023686FF051
:102BA00008021A61042323772368DB6913F0030FFB
:102BB00040D02046FFF7BAFF0023237715F0100F0F
:102BC00012D016F0100F0FD023686FF010021A61A8
:102BD000082323772368DB6913F4407F31D0204634
:102BE000FFF7A4FF0023237715F0010F02D016F0A2
:102BF000010F2DD115F0800F02D016F0800F2FD1CC
:102C000015F0400F02D016F0400F31D115F0200F13
:102C100002D016F0200F33D170BDFFF786FF20469B
:102C2000FFF785FF9CE72046FFF77FFF2046FFF771
:102C30007EFFABE72046FFF778FF2046FFF777FFE0
:102C4000BAE72046FFF771FF2046FFF770FFC9E79C
:102C500023686FF001021A612046FDF799FFC9E76A
:102C600023686FF080021A61204600F095FBC7E7E9
:102C700023686FF040021A612046FFF759FFC5E74D
:102C800023686FF020021A61204600F084FBC3E73E
:102C90000368344A904212D0B0F1804F0FD0A2F5B1
:102CA0007C4290420BD002F58062904207D002F540
:102CB0008062904203D002F57842904203D123F023
:102CC00070034A681343274A90422AD0B0F1804FDC
:102CD00027D0A2F57C42904223D002F58062904238
:102CE0001FD002F5806290421BD002F578429042DC
:102CF00017D002F57052904213D002F580629042D4
:102D00000FD002F5806290420BD0A2F5983290422B
:102D100007D002F58062904203D002F580629042B3
:102D200003D123F44073CA68134323F080034A6934
:102D3000134303608B68C3620B688362094B98423C
:102D400003D003F58063984201D10B69036301232B
:102D50004361036913F0010F03D0036923F00103FA
:102D6000036170470000014040B310B5044690F87D
:102D70003D30F3B1022384F83D30214651F8040B75
:102D8000FFF786FF012384F8463084F83E3084F84C
:102D90003F3084F8403084F8413084F8423084F881
:102DA000433084F8443084F8453084F83D300020C6
:102DB00010BD80F83C30FEF72DFADBE701207047AC
:102DC00040B310B5044690F83D30F3B1022384F8C7
:102DD0003D30214651F8040BFFF75AFF012384F8D8
:102DE000463084F83E3084F83F3084F8403084F830
:102DF000413084F8423084F8433084F8443084F819
:102E0000453084F83D30002010BD80F83C30FFF79D
:102E10008BFEDBE70120704730B4036A026A22F0C0
:102E2000100202624468826922F4E6420D6842EAB6
:102E3000052223F020038D6843EA0513114DA842B3
:102E400003D005F58065A84206D123F08003CD6844
:102E500043EA051323F040030A4DA84203D005F5C9
:102E60008065A84207D124F440644D6944EA850492
:102E70008D6944EA8504446082614A688263036222
:102E800030BC70470000014038B590F83C30012B51
:102E900066D004460D46012380F83C300C2A5AD8EF
:102EA000DFE802F0075959591B59595930595959F6
:102EB00044000068FFF7EEFC2268936943F00803C2
:102EC00093612268936923F00403936122689369F4
:102ED00029690B43936100203EE00068FFF79CFFE7
:102EE0002268936943F4006393612268936923F431
:102EF0008063936122689369296943EA012393619E
:102F0000002029E00068FFF7FDFC2268D36943F048
:102F10000803D3612268D36923F00403D3612268D4
:102F2000D36929690B43D361002015E00068FFF7DE
:102F300021FD2268D36943F40063D3612268D36919
:102F400023F48063D3612268D369296943EA0123AA
:102F5000D361002000E00120002384F83C3038BD1C
:102F60000220FCE710B4846824F47F4C42EA032278
:102F70000A4342EA0C0282605DF8044B704790F805
:102F80003C30012B78D010B50446012380F83C304A
:102F9000022380F83D300268936823F47F4323F0D6
:102FA000770393600B68602B4CD023D8402B54D010
:102FB00011D8202B03D00AD80BB1102B05D11946FC
:102FC0002068FFF726FD002028E0012026E0302BB6
:102FD000F5D0012022E0502B0AD1CA684968006868
:102FE000FFF7F0FC50212068FFF713FD002015E0EB
:102FF000012013E0B3F5805F3AD0B3F5005F14D041
:10300000702B37D1CB684A6889680068FFF7AAFF40
:103010002268936843F0770393600020012384F8CB
:103020003D30002384F83C3010BDCB684A68896885
:103030000068FFF797FF2268936843F4804393602A
:103040000020EBE7CA6849680068FFF7CEFC602102
:103050002068FFF7DEFC0020E0E7CA6849680068E6
:10306000FFF7B0FC40212068FFF7D3FC0020D5E734
:103070000020D3E70120D1E70220704701F01F01B3
:103080004FF0010C0CFA01FC036A23EA0C03036203
:10309000036A8A40134303627047000010B5044678
:1030A0000846002942D194F83E30DBB2013B18BFFC
:1030B0000123002B6ED1002851D1022384F83E3029
:1030C000012201462068FFF7D9FF2368334A934263
:1030D00003D002F58062934203D15A6C42F400425D
:1030E0005A6423682D4A934249D0B3F1804F46D0A9
:1030F000A2F57C42934242D002F5806293423ED0D8
:1031000002F5806293423AD002F57842934236D07B
:1031100002F57052934232D0A2F5943293422ED0EF
:103120001A6842F001021A60002032E0042908D037
:1031300008290DD094F84130DBB2013B18BF0123C0
:10314000B7E794F83F30DBB2013B18BF0123B0E78B
:1031500094F84030DBB2013B18BF0123A9E70428F3
:1031600005D0082807D0022384F84130A8E70223BD
:1031700084F83F30A4E7022384F84030A0E79A683F
:1031800002F00702062A07D01A6842F001021A600C
:10319000002010BD0120FCE70020FAE700000140FC
:1031A00001F00F014FF0040C0CFA01FC036A23EA52
:1031B0000C030362036A8A401343036270470000F2
:1031C00010B50446084600293BD194F84230DBB2E2
:1031D000013B18BF0123002B67D100284AD10223ED
:1031E00084F84230042201462068FFF7D9FF2268A4
:1031F000536C43F40043536423682E4A934249D0EE
:10320000B3F1804F46D0A2F57C42934242D002F502
:10321000806293423ED002F5806293423AD002F53A
:103220007842934236D002F57052934232D0A2F5E2
:10323000943293422ED01A6842F001021A600020A4
:1032400032E0042908D008290DD094F84530DBB2CB
:10325000013B18BF0123BEE794F84330DBB2013BCA
:1032600018BF0123B7E794F84430DBB2013B18BF25
:103270000123B0E7042805D0082807D0022384F8EA
:103280004530AFE7022384F84330ABE7022384F8EC
:103290004430A7E79A6802F00702062A07D01A68A6
:1032A00042F001021A60002010BD0120FCE700205E
:1032B000FAE700BF0000014090F83C20012A3DD011
:1032C00010B40346012280F83C20022280F83D2001
:1032D00002685068946820F0700C086840EA0C009E
:1032E00050601A68164882421AD0B2F1804F17D047
:1032F000A0F57C40824213D000F5806082420FD05E
:1033000000F5806082420BD000F57840824207D001
:1033100000F57050824203D0A0F59430824204D16F
:1033200024F08004496821439160012283F83D2004
:10333000002083F83C005DF8044B70470220704782
:1033400000000140024690F83C30012B21D00123BF
:1033500080F83C30CB6823F440738868034323F43F
:1033600080634868034323F400630868034323F43D
:1033700080530869034323F400534869034323F44B
:103380008043C9690B4311684B64002082F83C00FC
:10339000704702207047704770470000034AD2F818
:1033A000883043F47003C2F88830704700ED00E0C5
:1033B00000F1080343604FF0FF328260C360036195
:1033C00000230360704700230361704743684B602C
:1033D0009A688A60516099600861036801330360EC
:1033E000704730B40D68B5F1FF3F11D000F108030C
:1033F0001C465B681A68AA42FAD963684B609960F8
:103400008C606160086103680133036030BC704701
:103410000469F2E70369416882688A604168516023
:103420005A68824206D0002202611A68013A1A6084
:103430001868704782685A60F5E710B5044601F0D5
:1034400081FCA26BE36B9A4204D0002401F09CFC47
:10345000204610BD0124F9E710B5044601F072FCC6
:10346000A36B23B9012401F08FFC204610BD00247A
:10347000F9E770B504461546866B026C5AB90368C5
:103480001BB100200136A66370BD806800F0AAFF62
:103490000023A360F6E76DB9406805F03FF8636864
:1034A000226C13446360A268934219D3236863605B
:1034B0002846E7E7C06805F031F8E368226C51421E
:1034C0009B1AE3602268934202D2A3680B44E36034
:1034D000022D01D00020D5E726B1013E0020D1E722
:1034E0002846CFE70020CDE70346026C6AB110B54D
:1034F0000846D9681144D9609C68A14201D3196873
:10350000D960D96805F00AF810BD704738B505468E
:1035100001F018FC95F8454064B201E0013C64B24A
:10352000002C0ADD6B6A43B105F1240000F0B0FE07
:103530000028F3D000F040FFF0E7FF2385F8453086
:1035400001F022FC01F0FEFB95F8444064B201E07A
:10355000013C64B2002C0ADD2B6943B105F1100077
:1035600000F096FE0028F3D000F026FFF0E7FF23DE
:1035700085F8443001F008FC38BD38B5E0B10D469F
:10358000044601F0DFFB2368E26B216C01FB023093
:10359000A0600020A0636360013A02FB0133E36096
:1035A000FF2384F8443084F84530FDB9236963B9BA
:1035B00001F0EAFB012038BD4FF0500383F311887E
:1035C000BFF36F8FBFF34F8FFEE704F1100000F0E1
:1035D0005FFE0028ECD04FF0E0234FF08052C3F89C
:1035E000042DBFF34F8FBFF36F8FE1E704F110009D
:1035F000FFF7DEFE04F12400FFF7DAFED8E738B566
:103600001D46049C0B4649B92460E06323640121F4
:103610002046FFF7B2FF84F84C5038BD2260F4E733
:1036200040B94FF0500383F31188BFF36F8FBFF39E
:103630004F8FFEE710B584B01C46844653B192B15B
:1036400089B94FF0500383F31188BFF36F8FBFF335
:103650004F8FFEE74FF0500383F31188BFF36F8F56
:10366000BFF34F8FFEE76AB150230393039B502BA8
:1036700013D04FF0500383F31188BFF36F8FBFF364
:103680004F8FFEE70029EFD04FF0500383F31188EE
:10369000BFF36F8FBFF34F8FFEE7039B012384F8C7
:1036A000463000949DF818306046FFF7A8FF20468A
:1036B00004B010BDF0B585B0019288B10F461D462B
:1036C0000446B1B1022D20D1E36B012B1DD04FF088
:1036D000500383F31188BFF36F8FBFF34F8FFEE763
:1036E0004FF0500383F31188BFF36F8FBFF34F8FF9
:1036F000FEE7036C002BE5D04FF0500383F31188F5
:10370000BFF36F8FBFF34F8FFEE700F05BFE0646FF
:1037100058B9019B002B48D04FF0500383F3118818
:10372000BFF36F8FBFF34F8FFEE700263DE02A46C1
:1037300039462046FFF79DFE636A7BB948B14FF0DA
:10374000E0234FF08052C3F8042DBFF34F8FBFF337
:103750006F8F01F019FB012005B0F0BD04F12400CA
:1037600000F096FD0028F4D04FF0E0234FF0805297
:10377000C3F8042DBFF34F8FBFF36F8FE9E701F05C
:1037800003FB0020E8E702A800F0C8FD012619E0CD
:10379000002384F8443021E0002384F8453023E0FE
:1037A0002046FFF7B3FE00F077FC01F0CBFAA26BE6
:1037B000E36B9A42BBD3022DB9D0019B002BDED024
:1037C000002EE0D001F0E0FA00F0CCFB01F0BAFAF4
:1037D00094F8442052B2B2F1FF3FD9D094F845207A
:1037E00052B2B2F1FF3FD7D001F0CEFA01A902A840
:1037F00000F0A0FDD8B92046FFF71FFE0028CFD06B
:10380000019904F1100000F00FFD2046FFF77EFE45
:1038100000F042FC0028C8D14FF0E0234FF0805266
:10382000C3F8042DBFF34F8FBFF36F8FBDE7204662
:10383000FFF76CFE00F030FC00208DE72DE9F84327
:1038400090B10F4616461C460546B1B1022C20D158
:10385000EB6B012B1DD04FF0500383F31188BFF3A6
:103860006F8FBFF34F8FFEE74FF0500383F3118844
:10387000BFF36F8FBFF34F8FFEE7036C002BE5D0D4
:103880004FF0500383F31188BFF36F8FBFF34F8F57
:10389000FEE701F07DFBEFF311884FF0500383F357
:1038A0001188BFF36F8FBFF34F8FAA6BEB6B9A42F8
:1038B00006D3022C04D0002088F31188BDE8F883D9
:1038C00095F845904FFA89F9AB6B22463946284660
:1038D000FFF7CFFDB9F1FF3F06D009F101035BB25D
:1038E00085F845300120E7E76B6A0BB90120E3E773
:1038F00005F1240000F0CCFC18B126B101203060A5
:10390000DAE70120D8E70120D6E7F0B585B00192CB
:1039100090B10F460446C1B100F054FD064600BB0D
:10392000019B002B5ED04FF0500383F31188BFF34F
:103930006F8FBFF34F8FFEE74FF0500383F3118873
:10394000BFF36F8FBFF34F8FFEE7036C002BE3D005
:103950004FF0500383F31188BFF36F8FBFF34F8F86
:10396000FEE700263EE039462046FFF7BDFD013D5B
:10397000A563236923B901F007FA012005B0F0BD62
:1039800004F1100000F084FC0028F4D04FF0E02394
:103990004FF08052C3F8042DBFF34F8FBFF36F8FEA
:1039A000E9E701F0F1F90020E8E702A800F0B6FC31
:1039B000012621E0002384F8443029E0002384F824
:1039C00045302BE02046FFF7A1FD00F065FB09E044
:1039D0002046FFF79BFD00F05FFB2046FFF73CFD14
:1039E00000283FD101F0AEF9A56B002DBBD1019BA2
:1039F000002BD6D0002ED8D001F0C6F900F0B2FAD4
:103A000001F0A0F994F844305BB2B3F1FF3FD1D09C
:103A100094F845305BB2B3F1FF3FCFD001F0B4F979
:103A200001A902A800F086FC0028D1D12046FFF7AA
:103A300013FD0028C6D0019904F1240000F0F4FB26
:103A40002046FFF763FD00F027FB0028CAD14FF0A6
:103A5000E0234FF08052C3F8042DBFF34F8FBFF324
:103A60006F8FBFE7002089E70023072B0CD8074A98
:103A700052F833200AB10133F7E7044A42F8331011
:103A800002EBC30250607047704700BF440900203A
:103A900070B504460D46164601F054F994F84430CA
:103AA0005BB2B3F1FF3F0DD094F845305BB2B3F198
:103AB000FF3F0BD001F068F9A36B5BB12046FFF725
:103AC00025FD70BD002384F84430EDE7002384F821
:103AD0004530EFE73246294604F1240000F0BCFBF4
:103AE000ECE70000084B1B681B6823B9074B4FF03D
:103AF000FF321A607047044B1B68DB68DB685A684A
:103B0000024B1A60704700BFF40900208C090020A6
:103B10002DE9F04780460D4617469946089EDDF888
:103B200024A00A9C9200A521206B04F0CAFC236B00
:103B300007F18042013A03EB820727F00707A5B39C
:103B40004FF0000CBCF10F0F09D815F80C3004EB46
:103B50000C0282F8343013B10CF1010CF2E70023AF
:103B600084F84330372E00D93726E662E664002514
:103B70002565201DFFF727FC04F11800FFF723FC43
:103B80002461C6F13806A6616462656584F8585000
:103B90004A464146384601F0A9F82060BAF1000FC4
:103BA00001D0CAF80040BDE8F087002384F8343023
:103BB000D8E7000038B5002407E004EB8402930046
:103BC0000E481844FFF7F4FB0134372CF5D90C4D9F
:103BD0002846FFF7EDFB0B4C2046FFF7E9FB0A48B0
:103BE000FFF7E6FB0948FFF7E3FB0948FFF7E0FBB7
:103BF000084B1D60084B1C6038BD00BF200A002028
:103C00000C0A0020F8090020DC090020C809002067
:103C1000B0090020F4090020F009002010B5044686
:103C200001F090F8224A136801331360214B1B689E
:103C30005BB1214B1B686BB91E4B1B68DA6AE36AE8
:103C40009A4207D81B4B1C6004E01A4B1C60136897
:103C5000012B29D0194A1368013313606364E06AA9
:103C6000174B1B68984201D9154B186000EB800078
:103C7000211D144B03EB8000FFF7A8FB01F084F833
:103C80000D4B1B687BB10B4B1B68DA6AE36A9A42E7
:103C900009D24FF0E0234FF08052C3F8042DBFF358
:103CA0004F8FBFF36F8F10BDFFF784FFD2E700BFC8
:103CB000AC090020800E0020A009002090090020FF
:103CC000A4090020200A002010B5044690F85930BD
:103CD00063B1012B11D0022B0ED04FF0500383F3B0
:103CE0001188BFF36F8FBFF34F8FFEE7006B00F0BB
:103CF00081FF204600F07EFF10BD00F07BFFFBE758
:103D00000F4B1B68D3B110B501F01CF80D4BDB68ED
:103D1000DC68201DFFF77EFB0B4A1368013B136034
:103D2000074A1368013B136001F02EF82046FFF7A5
:103D3000CBFF034B1B68002BE6D110BD704700BFC3
:103D4000C4090020C8090020AC09002008B5FFF70D
:103D5000D7FF074B1B68012BF9D94FF0E0234FF039
:103D60008052C3F8042DBFF34F8FBFF36F8FEEE780
:103D7000200A002070B504460D46174B1E68174BED
:103D800018680430FFF746FBB4F1FF3F0DD0344410
:103D9000124B1B685C60A64210D9114B18680F4B80
:103DA00019680431FFF71DFB70BD002DEFD00B4BE0
:103DB000196804310B48FFF709FBF5E70A4B18684F
:103DC000064B19680431FFF70CFB084B1B68A34234
:103DD000EAD9064B1C60E7E7A8090020800E002006
:103DE000F0090020B0090020F40900208C0900200F
:103DF00030B587B00B9C7CB10C9DB5B15C250495AA
:103E0000049D5C2D1AD04FF0500383F31188BFF34B
:103E10006F8FBFF34F8FFEE74FF0500383F311888E
:103E2000BFF36F8FBFF34F8FFEE74FF0500383F365
:103E30001188BFF36F8FBFF34F8FFEE7049D0C9D7A
:103E40002C63022485F8594000240394029505ACA4
:103E500001940A9C0094FFF75BFE0C98FFF7DEFECE
:103E6000059807B030BD2DE9F04385B00746884678
:103E700014461E46900000F03BFE08B381465C20CD
:103E800000F036FE0546A8B1C0F83090002380F857
:103E90005930039302900D9B01930C9B0093334682
:103EA000224641463846FFF733FE2846FFF7B6FE66
:103EB000012007E0484600F09DFE4FF0FF3001E092
:103EC0004FF0FF3005B0BDE8F083000010B588B0BA
:103ED00000240594069407AA06A905A800F08CFD05
:103EE000059B0293069B019300942346079A17496A
:103EF0001748FFF77DFF174B1860C0B100F026FB95
:103F0000012815D14FF0500383F31188BFF36F8F51
:103F1000BFF34F8F104B4FF0FF321A600F4B01224F
:103F20001A600F4B00221A6000F0A6FF03E0002089
:103F3000B0F1FF3F01D008B010BD4FF0500383F344
:103F40001188BFF36F8FBFF34F8FFEE7188800080B
:103F50004D3D0008880900208C090020A0090020A0
:103F6000A8090020024A136801331360704700BF9C
:103F700084090020014B1868704700BFA809002081
:103F8000F8B53A4B1B68002B69D1394B1D680135D8
:103F90001D60C5B9374B1B681B6843B14FF0500318
:103FA00083F31188BFF36F8FBFF34F8FFEE7314A62
:103FB0001168314B186810601960304A136801337A
:103FC0001360FFF78FFD2E4B1B68AB423DD90027D6
:103FD0002C4B1B68DB6A03EB83039A002A4B9B582C
:103FE000012B00D90127294B1B68002B3CD001274E
:103FF0003AE001271F4B1B681B6843B31D4B1B682E
:10400000DB68DC6863689D4226D3261D3046FFF7D7
:1040100001FAA36A1BB104F11800FFF7FBF9E36A88
:104020001B4A1268934201D9194A136003EB8303B8
:104030009A00314614481044FFF7C8F9E26A114B60
:104040001B68DB6A9A42D4D2D4E70027D2E70C4B34
:104050004FF0FF321A60BBE7094A1360B8E70D4A18
:1040600013680133136000273846F8BD8409002027
:10407000A8090020F4090020F0090020940900207C
:104080008C090020800E0020200A002098090020C2
:10409000A40900209C09002038B5354B1B6843B9A2
:1040A0004FF0500383F31188BFF36F8FBFF34F8F2F
:1040B000FEE700F047FE2E4B1A68013A1A601B68B3
:1040C000002B4FD12B4B1B680BB900244BE0002475
:1040D000294B1B681BB3284BDB68DC6804F1180014
:1040E000FFF798F9251D2846FFF794F9E06A234B5E
:1040F0001B68984201D9214B186000EB80002946CB
:104100001F4B03EB8000FFF761F9E26A1D4B1B6850
:10411000DB6A9A42DCD31C4B01221A60D8E70CB14F
:10412000FFF7E0FC194B1C6884B9174B1C68D4B12D
:104130004FF0E0234FF08052C3F8042DBFF34F8FB0
:10414000BFF36F8F01240EE0013C07D0FFF718FF8B
:104150000028F9D00C4B01221A60F5E70B4B002226
:104160001A60E2E7002400F00FFE204638BD00BFD1
:1041700084090020AC090020DC090020A4090020EB
:10418000200A0020800E0020980900209C090020B1
:10419000204B1B681BB1204B01221A6070471E4B3D
:1041A00000221A601D4B1B6803EB83018A001C4927
:1041B0008A585AB90BB1013BF6E74FF0500383F32D
:1041C0001188BFF36F8FBFF34F8FFEE7084603EBF5
:1041D00083018A00024451684968516003EB830CF3
:1041E0004FEA8C020832024491420BD003EB830267
:1041F00091000B4A0A445268D1680A4A1160074A82
:1042000013607047486862469100054A0A4450604E
:10421000ECE700BF8409002098090020A4090020D1
:10422000200A0020800E002058B110B50C46094A23
:1042300011681831FFF7D5F801212046FFF79AFDE4
:1042400010BD4FF0500383F31188BFF36F8FBFF39E
:104250004F8FFEE7800E002038B570B10D46144632
:104260000A4A11681831FFF7B1F80CB14FF0FF3569
:1042700021462846FFF77EFD38BD4FF0500383F3FB
:104280001188BFF36F8FBFF34F8FFEE7800E0020C2
:1042900038B5C368DC6824B304F118052846FFF775
:1042A000B9F8184B1B682BBB251D2846FFF7B2F841
:1042B000E06A154B1B68984201D9134B186000EB5C
:1042C00080002946114B03EB8000FFF77FF8E26A7C
:1042D0000F4B1B68DB6A9A4211D901200D4B186005
:1042E00038BD4FF0500383F31188BFF36F8FBFF3D6
:1042F0004F8FFEE729460848FFF768F8E7E70020F8
:10430000EEE700BF84090020A4090020200A002055
:10431000800E002098090020DC090020034B1B6858
:104320000360034B1B684360704700BF9409002083
:10433000A8090020F8B5C8B10C460546F9B100F04F
:1043400001FD1B4B19686B68C81A2268B2F1FF3F68
:1043500026D0184E36682F68B74201D08B4224D938
:10436000824215D80023236001241AE04FF0500345
:1043700083F31188BFF36F8FBFF34F8FFEE74FF0CA
:10438000500383F31188BFF36F8FBFF34F8FFEE7A6
:104390005B1A134423602846FFF7C0FF002400E0A7
:1043A000002400F0F1FC2046F8BD0124F9E700BF2D
:1043B000A809002094090020014B01221A607047CF
:1043C00098090020054B1B6833B1054B1B680BB1E6
:1043D000002070470220704701207047A00900208C
:1043E0008409002000283BD038B504461E4B1B68CA
:1043F000834208D04FF0500383F31188BFF36F8FCF
:10440000BFF34F8FFEE7036D43B94FF0500383F3C3
:104410001188BFF36F8FBFF34F8FFEE7013B03653A
:10442000C16AC26C91421DD00BB1002038BD051D80
:104430002846FEF7EFFFE06CE062C0F13803A361AD
:104440000A4B1B68984201D9084B186000EB8000AA
:104450002946074B03EB8000FEF7B8FF0120E5E794
:10446000002070470020E1E7800E0020A409002012
:10447000200A0020064B1A6813682BB90123036039
:1044800023B9D368186870470023F8E70020704705
:10449000840F002008B54160006191420CD8D21A07
:1044A00083699A4201D3012008BD011D094B186898
:1044B000FEF797FF0020F7E79A4201D2994206D211
:1044C000011D054B1868FEF78CFF0020ECE701206A
:1044D000EAE700BF800F0020840F002030B583B0D2
:1044E00000F030FC114B1B681BB100F04DFC03B019
:1044F00030BD0F4D2846FEF75BFF0E4C2046FEF701
:1045000057FF0D4B1D600D4B1C60002300930C4B9F
:104510000C4A10210A20FFF783F8044B186000288A
:10452000E3D00949FFF7A0FADFE700BF7C0F0020C6
:104530009C0F0020880F0020840F0020800F002097
:10454000840E0020D40E00202088000810B588B00A
:10455000FFF7C4FF124B1B68CBB1002405940694EF
:1045600007AA06A905A800F053FA059B0293069B2B
:104570000193022300932346079A0A490A48FFF74A
:1045800037FC0A4B186010B1012008B010BD4FF085
:10459000500383F31188BFF36F8FBFF34F8FFEE794
:1045A0007C0F002028880008B1480008780F002000
:1045B000B8B19C4603461848006858B300B585B0AA
:1045C00000910192029305291CDCFFF7FBFE0228F3
:1045D00010D000231A4669460F480068FFF76AF8B2
:1045E00015E04FF0500383F31188BFF36F8FBFF3D3
:1045F0004F8FFEE70023069A694607480068FFF7D9
:1046000059F804E0002362466946FFF717F905B040
:104610005DF804FB002070477C0F002070B582B06D
:104620001B4B1B681A6862B3DB681E68DC68251DBB
:104630002846FEF7EFFE236A2046984794F8283074
:1046400013F0040FECD0A36933449E4207D2636099
:10465000246129460E4B1868FEF7C3FEE0E70021EF
:1046600000910B4632462046FFF7A2FF0028D7D123
:104670004FF0500383F31188BFF36F8FBFF34F8F59
:10468000FEE7044A106802490860136002B070BD7A
:10469000840F0020800F002038B50546FFF76AFC24
:1046A0000446074B1B68834205D800232B60044B4C
:1046B0001C60204638BDFFF7B1FF01232B60F6E7F1
:1046C000740F002070B582B006460D461749096880
:1046D000C968CC68201DFEF79DFE94F828C01CF028
:1046E000040F08D12CF0010C84F828C0236A20465E
:1046F000984702B070BDA16933462A46314420462E
:10470000FFF7C8FE0028F1D0002100910B46324689
:104710002046FFF74DFF0028E8D14FF0500383F308
:104720001188BFF36F8FBFF34F8FFEE7840F002018
:1047300070B582B006460C46FFF714FC01A8FFF7DF
:10474000ABFF019B33BB0546E4B9B04213D222460E
:10475000711B124B1868FFF79BF9FFF79DFCD8B946
:104760004FF0E0234FF08052C3F8042DBFF34F8F7A
:10477000BFF36F8F10E0FFF78FFC29463046FFF73D
:10478000A1FF09E0064A126812680AB90124DEE7AF
:104790001C46DCE7FFF780FC02B070BD7C0F0020F8
:1047A000800F002010B588B002E0049B002B0FDAC8
:1047B000002204A93D4B1868FFF7A7F8002873D022
:1047C000049B002BF1DA07990698059B9847ECE7C4
:1047D000069C636913B1201DFEF71CFE03A8FFF7BA
:1047E0005BFF049B092BE3D8DFE803F005050530E8
:1047F00037500505303794F8283043F0010384F82A
:104800002830059BA169024619442046FFF742FE65
:104810000028CDD0236A2046984794F8283013F01A
:10482000040FC5D0A269002100910B4605980244EF
:104830002046FFF7BDFE0028BAD14FF0500383F3A6
:104840001188BFF36F8FBFF34F8FFEE794F82830C6
:1048500023F0010384F82830AAE794F8283043F0C5
:10486000010384F828300599A16131B1034602465D
:1048700001442046FFF70EFE9AE74FF0500383F302
:104880001188BFF36F8FBFF34F8FFEE794F8283086
:1048900013F0020F04D023F0010384F8283087E7D7
:1048A000204600F0A7F983E708B010BD7C0F002078
:1048B00000B583B001A8FFF7DDFD0199FFF738FFD0
:1048C000FFF770FFF6E708B54FF0E0231B69FFF72D
:1048D00079FD012800D108BD00F0A4FAFBE7000033
:1048E000EFF305832BB9064B186828B901221A602B
:1048F00070476FF0050070474FF0FF30704700BF02
:1049000068160020EFF3058373B90A4B1B68012B6F
:104910000DD110B50024084BDC77064B02221A603B
:10492000FFF7D4FA204610BD6FF0050070474FF036
:10493000FF3070476816002000ED00E0F0B587B04A
:1049400000240594EFF3058474BB68B322B31568A3
:10495000936903B918235C1E372C49D8546814F0A6
:10496000010F47D156696EB14FEA960C94682CB18D
:10497000D7685B2F02D9176907B1C6B92CB14FF0C0
:10498000FF340EE04FF0800CF0E7D4688CB9146966
:1049900094B14FF0FF3404E01546002418234FF083
:1049A000800C012C0AD0ACB1059807B0F0BD0124F1
:1049B000F7E74FF0FF34F4E70024F2E71469926858
:1049C0000292019400930B4662462946FFF710FAC3
:1049D0000590E9E705AA019200930B461FFA8CF2B5
:1049E0002946FFF740FA0128DED000230593DBE7D4
:1049F0000020DAE70020D8E7034B0360034B0B608D
:104A000080231360704700BF0C1600200C14002098
:104A1000034B0360034B0B604FF4807313607047CC
:104A2000B0130020B00F0020124A12F0070F1ED062
:104A3000D11D21F00701C1F5705313440A460E48F9
:104A40000260002141601344083B23F007030B4838
:104A5000036059601960991A51601360084B19601E
:104A6000084B1960084B4FF000421A6070474FF432
:104A70007053E4E78C160020841600208016002076
:104A8000781600207C1600206C160020164B1A4663
:104A90001B688342FBD3516802EB010C844509D0AB
:104AA000416800EB010C634509D00360904219D0C6
:104AB000106070474068014451601046F0E710B440
:104AC0000A4C2468A3420BD05B6819444160136808
:104AD0001B680360904200D010605DF8044B704783
:104AE0000460F7E7704700BF84160020801600209E
:104AF00038B50446FFF736FA384B1B68B3B1384B6C
:104B00001B681C4250D1002C50D004F1080214F054
:104B1000070F02D022F007020832002A55D0314B8D
:104B20001B68934253D330490C6804E0FFF77CFFC5
:104B3000E5E721461C466368934202D22368002BB6
:104B4000F7D1264B1B68A34243D00D680835236874
:104B50000B6063689B1A102B10D9A01810F0070F78
:104B600008D04FF0500383F31188BFF36F8FBFF36A
:104B70004F8FFEE743606260FFF788FF6268194964
:104B80000B689B1A0B60194909688B4201D21749BF
:104B90000B60134B1B681343636000232360144AAC
:104BA00013680133136002E0002500E00025FFF7E1
:104BB00073FA15F0070F0ED04FF0500383F31188EE
:104BC000BFF36F8FBFF34F8FFEE70025EFE70025A0
:104BD000EDE70025EBE7284638BD00BF8016002032
:104BE0006C1600207C160020841600207816002009
:104BF00074160020002834D038B50446A0F108050A
:104C000050F8043C174A1268134208D14FF0500381
:104C100083F31188BFF36F8FBFF34F8FFEE750F818
:104C2000081C41B14FF0500383F31188BFF36F8F1D
:104C3000BFF34F8FFEE723EA020340F8043CFFF77F
:104C400091F954F8041C084A13680B441360284671
:104C5000FFF71CFF054A136801331360FFF71CFAC6
:104C600038BD70476C1600207C160020701600209E
:104C700082B0002301930D4B1B68B3F1FF3F08D0B6
:104C80004FF0500383F31188BFF36F8FBFF34F8F43
:104C9000FEE74FF0500383F31188BFF36F8FBFF32C
:104CA0004F8F019B002BFCD002B070470C000020FE
:104CB00008480068006880F308884FF0000080F31F
:104CC000148862B661B6BFF34F8FBFF36F8F00DFFA
:104CD00000BF000008ED00E0DFF80C00016841F4BF
:104CE000700101607047000088ED00E04FF08073B4
:104CF00040F8043C21F0010140F8081C054B40F845
:104D00000C3C40F8202C6FF0020340F8243C44385F
:104D1000704700BF714C0008000000000000000058
:104D2000074B19680868B0E8F04F80F30988BFF3B3
:104D30006F8F4FF0000080F311887047AFF3008051
:104D4000800E00204FF0500383F31188BFF36F8F64
:104D5000BFF34F8F0B4A136801331360012B00D050
:104D600070474FF0E023D3F8043D13F0FF0FF7D066
:104D70004FF0500383F31188BFF36F8FBFF34F8F52
:104D8000FEE700BF0C000020094B1B6843B94FF041
:104D9000500383F31188BFF36F8FBFF34F8FFEE78C
:104DA000013B034A13600BB983F31188704700BFBE
:104DB0000C000020000000000000000000000000C7
:104DC000EFF30980BFF36F8F154B1A681EF0100FB9
:104DD00008BF20ED108A20E9F04F10602DE909008E
:104DE0004FF0500080F31188BFF34F8FBFF36F8FE8
:104DF000FFF7CEF94FF0000080F3118809BC196865
:104E00000868B0E8F04F1EF0100F08BFB0EC108A31
:104E100080F30988BFF36F8F704700BFAFF3008046
:104E2000800E002008B54FF0500383F31188BFF3C4
:104E30006F8FBFF34F8FFFF7A3F828B14FF0E02338
:104E40004FF08052C3F8042D002383F3118808BD6E
:104E50004FF0E022002313619361054B1B68054965
:104E6000A1FB03139B09013B5361072313617047A7
:104E700008000020D34D62104FF0E023D3F8002D3E
:104E80003D4B9A421CD04FF0E023D3F8002D3B4B12
:104E90009A421ED030B583B0394B1A78D2B2019203
:104EA000FF221A701B78DBB28DF803309DF80330B7
:104EB00003F05003334A1370334B07221A601BE090
:104EC0004FF0500383F31188BFF36F8FBFF34F8F01
:104ED000FEE74FF0500383F31188BFF36F8FBFF3EA
:104EE0004F8FFEE7284A1368013B13609DF803309B
:104EF0005B00DBB28DF803309DF8033013F0800FB8
:104F0000F0D1214B1B68032B08D04FF0500383F3E3
:104F10001188BFF36F8FBFF34F8FFEE71B021A4A52
:104F2000136003F4E0631360019BDBB2144A137057
:104F30004FF0E024D4F8203D43F47003C4F8203D42
:104F4000D4F8203D43F07043C4F8203DFFF780FFC4
:104F500000250E4B1D60FFF7BFFED4F8343F43F031
:104F60004043C4F8343FFFF7A3FEFFF711F9FFF702
:104F70007FFE284603B030BD71C20F4170C20F41A1
:104F800000E400E0905200208C5200200C00002031
:104F9000EFF305830F2B0FD9114A9B5CDBB2114A4B
:104FA00012789A4208D94FF0500383F31188BFF367
:104FB0006F8FBFF34F8FFEE74FF0E023D3F80C3D28
:104FC00003F4E063084A1268934208D94FF0500393
:104FD00083F31188BFF36F8FBFF34F8FFEE77047E6
:104FE000F0E300E0905200208C52002010B582B017
:104FF00001240094102350220021084602F014FEE0
:105000000094102349220021072002F00DFE009495
:105010001023442200210E2002F006FE00941023EB
:105020004D220021282002F0FFFD009410234F2282
:1050300000212F2002F0F8FD0094102344220021CB
:10504000362002F0F1FD00941023452200213D207E
:1050500002F0EAFD009410234B221121002002F0FF
:10506000E3FD0094102370221121082002F0DCFDE2
:10507000009410234B222021002002F0D5FD009443
:10508000102369222021082002F0CEFD0094102375
:105090004B222F21002002F0C7FD00941023642230
:1050A0002F21082002F0C0FD009410234922112175
:1050B0003C2002F0B9FD00941023722211214320FC
:1050C00002F0B2FD00941023522220213C2002F075
:1050D000ABFD0094102361222021432002F0A4FDA7
:1050E00000941023742220214A2002F09DFD009498
:1050F00010236F222021512002F096FD00941023EE
:1051000043222F213C2002F08FFD009410236822BF
:105110002F21432002F088FD0094102369222F21C3
:105120004A2002F081FD0094102370222F2151208B
:1051300002F07AFD009410232E222F21582002F035
:1051400073FD009410232E222F21682002F06CFDA5
:1051500002F004FD02B010BD10B582B0994B1B687F
:10516000D3B901230093102341222F215F2002F0A5
:105170005BFD954B1B68C3B90123009310233022BC
:105180002F216E2002F050FD904B1B68032B40D85E
:10519000DFE803F0144975A1012300931023422294
:1051A0002F215F2002F040FDE3E70123009310234D
:1051B00031222F216E2002F037FDE5E70124009413
:1051C000102353220021462002F02EFD00941023CC
:1051D000692200214D2002F027FD009410236E2249
:1051E0000021542002F020FD0094102367220021AA
:1051F0005B2002F019FD009410236C220021612035
:1052000002F012FD0094102365220021682002F0B4
:105210000BFD6F4B1B68052B00F29480DFE803F059
:105220008796A2AEBAC6012400941023442200211E
:10523000462002F0F9FC009410236F2200214D203B
:1052400002F0F2FC0094102375220021542002F099
:10525000EBFC00941023622200215B2002F0E4FCAE
:10526000009410236C220021652002F0DDFC0094E4
:105270001023652200216B2002F0D6FCC9E701242F
:105280000094102356220021462002F0CDFC009409
:1052900010236F2200214D2002F0C6FC0094102341
:1052A00074220021542002F0BFFC009410236122DC
:1052B00000215B2002F0B8FC00941023672200213B
:1052C000652002F0B1FC00941023652200216B20C0
:1052D00002F0AAFC9DE70124009410235022002133
:1052E000462002F0A1FC00941023522200214D2000
:1052F00002F09AFC0094102343220021542002F073
:1053000093FC00941023742200215B2002F08CFC9B
:105310000094102372220021652002F085FC009485
:1053200010236C2200216B2002F07EFC71E7012328
:105330000093102331220021192002F075FC25482A
:1053400002F060FB02F00AFC02B010BD01230093E2
:10535000102332220021192002F066FC1E4802F0C0
:1053600051FBEFE701230093102333220021192082
:1053700002F05AFC194802F045FBE3E701230093D1
:10538000102334220021192002F04EFC144802F0B0
:1053900039FBD7E701230093102335220021192080
:1053A00002F042FC0F4802F02DFBCBE701230093F3
:1053B000102336220021192002F036FC0A4802F0A0
:1053C00021FBBFE7985200209452002030000020BB
:1053D00034000020E0530020A45300206853002034
:1053E0002C530020F0520020B4520020044B1A68C5
:1053F000044B9B5C13B1013B02498B54704700BFC7
:1054000034000020AC520020044B1A68044B9B5C13
:10541000052B02D0013302498B5470473400002021
:10542000A45200203D4B1B68052B75D8DFE803F024
:105430000316293C4F623A4AD25C3A49C95C02EBF6
:1054400082030B44384850F82330092B64D002EB18
:1054500082020A44013340F822307047304AD25C5D
:105460003049C95C02EB82030B44304850F82330CA
:10547000092B51D002EB82020A44013340F822305A
:105480007047274AD25C2749C95C02EB82030B4470
:10549000274850F82330092B3ED002EB82020A4401
:1054A000013340F8223070471D4AD25C1D49C95C67
:1054B00002EB82030B441F4850F82330092B2BD0FA
:1054C00002EB82020A44013340F822307047144A4A
:1054D000D25C1449C95C02EB82030B44164850F8B5
:1054E0002330092B18D002EB82020A44013340F822
:1054F000223070470A4AD25C0A49C95C02EB820337
:105500000B440E4850F82330092B05D002EB8202E1
:105510000A44013340F82230704700BF34000020B5
:10552000AC520020A4520020E0530020A4530020DD
:10553000685300202C530020F0520020B452002069
:10554000034B1B68052B02D00133014A13607047DF
:1055500034000020044B1A68044B9B5C022B02D0E1
:10556000013302498B54704734000020AC520020B4
:10557000044B1A68044B9B5C13B1013B02498B54EA
:10558000704700BF34000020A45200203B4B1B6832
:10559000052B72D8DFE803F00316293C4E60384A29
:1055A000D25C3849C95C02EB82030B44364850F8A0
:1055B0002330002B61D002EB82020A44013B40F809
:1055C000223070472E4AD25C2E49C95C02EB82031E
:1055D0000B442E4850F82330002B4ED002EB8202B1
:1055E0000A44013B40F822307047254AD25C2549E5
:1055F000C95C02EB82030B44254850F82330002B92
:105600003BD002EB82020A44013B40F82230704753
:105610001B4AD25C1B49C95C02EB82030B441D4848
:1056200050F823304BB302EB82020A44013B40F8AE
:1056300022307047124AD25C1249C95C02EB8203E5
:105640000B44154850F82330BBB102EB82020A44E8
:10565000013B40F822307047094AD25C0949C95CD5
:1056600002EB82030B440D4850F823302BB102EBC0
:1056700082020A44013B40F8223070473400002087
:10568000AC520020A4520020E0530020A45300207C
:10569000685300202C530020F0520020B452002008
:1056A000034B1B6813B1013B014A1360704700BFF5
:1056B00034000020034B1B68032B02D00133014A46
:1056C0001360704730000020034B1B68042B02D08E
:1056D0000133014A13607047A0520020054B1A683D
:1056E000054B53F82230092B03D00133024941F80E
:1056F00022307047A05200201C000020034B1B6882
:10570000022B02D00133014A136070479C520020E3
:10571000034B1B6813B1013B014A1360704700BF84
:1057200030000020034B1B6813B1013B014A13609A
:10573000704700BFA0520020054B1A68054B53F874
:1057400022301BB1013B034941F82230704700BFB2
:10575000A05200201C000020034B1B68022B02D02B
:10576000013B014A136070479C52002038B500226B
:1057700001212548FCF7D9FD244D2B68244C2360DA
:1057800008212448FCF7CAFD28602368C01A0128B4
:105790002DD01E4D6B681E4C236040211D48FCF728
:1057A000BDFD68602368C01A012823D0174DAB687F
:1057B000174C23604FF480711648FCF7AFFDA860CA
:1057C0002368C01A012818D0104DEB68104C2360D4
:1057D00001211148FCF7A2FDE8602368C01A0128E6
:1057E0000ED0012211460848FCF79FFD38BDFFF797
:1057F000FDFDCEE7FFF708FED8E7FFF713FEE3E76E
:10580000FFF79EFEEDE700BF000C0240780000208D
:105810001C540020000402400010024038B5002251
:1058200004212548FCF781FD244D2B69244C23607D
:1058300008212448FCF772FD28612368C01A01285A
:105840002DD01E4D6B691E4C236040211D48FCF776
:1058500065FD68612368C01A012823D0174DAB6924
:10586000174C23604FF480711648FCF757FDA86170
:105870002368C01A012818D0104DEB69104C236022
:1058800001211148FCF74AFDE8612368C01A01288C
:105890000ED0012204210848FCF747FD38BDFFF770
:1058A00059FECEE7FFF764FED8E7FFF76FFEE3E7A8
:1058B000FFF7F6FEEDE700BF000C02407800002085
:1058C0001C540020000402400010024038B50022A1
:1058D00010212548FCF729FD244D2B6A244C236018
:1058E00008212448FCF71AFD28622368C01A012801
:1058F0002DD01E4D6B6A1E4C236040211D48FCF7C5
:105900000DFD68622368C01A012823D0174DAB6AC9
:10591000174C23604FF480711648FCF7FFFCA86217
:105920002368C01A012818D0104DEB6A104C236070
:1059300001211148FCF7F2FCE8622368C01A012833
:105940000ED0012210210848FCF7EFFC38BDFFF70C
:10595000B1FECEE7FFF7B8FED8E7FFF7BFFEE3E7FB
:10596000FFF7CCFEEDE700BF000C024078000020FE
:105970001C540020000402400010024038B50022F0
:1059800040212548FCF7D1FC244D2B6B244C23608F
:1059900008212448FCF7C2FC28632368C01A0128A8
:1059A0002DD01E4D6B6B1E4C236040211D48FCF713
:1059B000B5FC68632368C01A012823D0174DAB6B70
:1059C000174C23604FF480711648FCF7A7FCA863BE
:1059D0002368C01A012818D0104DEB6B104C2360BF
:1059E00001211148FCF79AFCE8632368C01A0128DA
:1059F0000ED0012240210848FCF797FC38BDFFF784
:105A000087FECEE7FFF78EFED8E7FFF795FEE3E7C8
:105A1000FFF7A2FEEDE700BF000C02407800002077
:105A20001C540020000402400010024008B5FFF79B
:105A30009DFEFFF7F3FEFFF749FFFFF79FFF08BD4D
:105A4000054B1A68054B53F82230092B03D001335C
:105A5000024941F8223070479C520020100000207B
:105A6000034B1B68012B02D00133014A13607047BE
:105A700098520020034B1B68012B02D00133014ACE
:105A8000136070479452002008B51023024A002189
:105A9000084602F091F908BD30880008054B1A68E5
:105AA000054B53F822301BB1013B034941F822302A
:105AB000704700BF9C52002010000020034B1B6861
:105AC00013B1013B014A1360704700BF9852002098
:105AD000034B1B6813B1013B014A1360704700BFC1
